:020000021000EC
:10900000006000201992010001920100039201000A
:109010000592010007920100099201000000000082
:109020000000000000000000000000000B920100A2
:109030000D920100000000000F920100119201004A
:1090400045E5010013920100B9E901001392010006
:1090500009EA01000000000045E801001392010048
:109060001392010013920100139201001392010068
:109070001392010013920100139201001392010058
:109080001392010081EE010013920100139201007E
:109090001DEF010013920100150C02001392010054
:1090A0001392010013920100000000000000000074
:1090B0001392010013920100000000000000000064
:1090C00000000000000000000000000000000000A0
:1090D0000000000000000000000000000000000090
:1090E0000000000000000000000000000000000080
:1090F0000000000000000000000000000000000070
:10910000000000000000000000000000000000005F
:10911000000000000000000000000000000000004F
:10912000000000000000000000000000000000003F
:10913000000000000000000000000000000000002F
:10914000000000000000000000000000000000001F
:10915000000000000000000000000000000000000F
:1091600000000000000000000000000000000000FF
:1091700000000000000000000000000000000000EF
:1091800000000000000000000000000000000000DF
:1091900000000000000000000000000000000000CF
:1091A00000000000000000000000000000000000BF
:1091B00000000000000000000000000000000000AF
:1091C000000000000000000000000000000000009F
:1091D000000000000000000000000000000000008F
:1091E000000000000000000000000000000000007F
:1091F000000000000000000000000000000000006F
:10920000FEE7FEE7FEE7FEE7FEE7FEE7FEE7FEE736
:10921000FEE7FEE7704700BF0C4880470C484FF060
:109220000701884385460B48804700F01BB80A4871
:109230000A490B4A884207D0521A05D003780130F8
:109240000B700131013AF9D170470000159201000D
:109250000060002069A6010070190200902400201F
:10926000A4240020344935480A1A02D00722914329
:109270008D46334933480A1A06D00722914381F3B9
:109280000988022282F314882F483049304A00F0BE
:1092900041F830483049314A00F03CF83048314913
:1092A000314A00F037F831483149324A00F032F89B
:1092B00031483249324A00F02DF832483249334AB7
:1092C00000F028F832483349334A00F023F8334895
:1092D0003349002200F029F832483349002200F0D7
:1092E00024F832483249091A08F0EEFA314A904718
:1092F0001F482049884205D00268043003B49047D3
:1093000003BCF7E700208646EC46002000212A4AED
:109310009047FEE7884207D0521A05D00378013003
:109320000B700131013AF9D17047884202D00270C6
:109330000130FAE77047000000600020005800206C
:109340000060002000600020041E0200A424002011
:1093500038250020BC930100BC930100DC180200FA
:10936000041E0200A4240020A4240020841902006A
:109370008419020084190200841902008419020071
:10938000841902008419020084190200011E0200DF
:10939000981E02003825002038250020382500209E
:1093A00064310020643100206431002064310020E9
:0C93B000643900202F92010091A10100FF
:1093BC0072DF70474CDF7047014B00221A70704708
:1093CC00C425002037B524490A780423ADF80630AB
:1093DC00224B12B902221A700A7021480A78B0F98D
:1093EC00004090F901009854501CC0B21C541D4C04
:1093FC00901CC0B2B4F9005094F901401C54D41C18
:10940C00E4B2101D1D55184CC0B2B4F9005094F9BB
:10941C0001401C54941D0532D2B2F0289D540C709E
:10942C0006D912480DF1060100F082FB03B030BDE5
:10943C00FCD15870F2220020013AD2B29C5C20443C
:10944C00C0B2002AF8D10A7009490A88134403F8FB
:10945C00010C0248E8E700BF39250020CE2500208A
:10946C00E4280020E8280020EC280020C424002058
:10947C00C824002037B501A8FFF79CFF274A284BCA
:10948C00B2F9001092F901201A70264A5970B2F9FB
:10949C00001092F901209A70234AD970B2F9001089
:1094AC0092F901201A7100229A71DA71019A1A72DA
:1094BC001E4C1F4A1F485971936040F23371237838
:1094CC001D4D118009219180026605EB0312134694
:1094DC003C3099680C3201F0CEF908B105F030FC43
:1094EC002378144805EB03121B010432E95801F0F0
:1094FC00C2F908B105F024FC21781048002205EBD4
:10950C000111FFF755FF08B105F01AFC2378013360
:10951C0003F00103237003B030BD00BFE628002028
:10952C00C5250020EA280020EE2800203825002040
:10953C00B825002000270020A424002000280020AB
:10954C0008B5094B188801F041FF022806D1074BDA
:10955C001B783BB1BDE80840FFF734BFBDE80840BD
:10956C00FFF788BF08BD00BFF4240020C4250020ED
:10957C0010B5044603F018FF2046BDE8104003F078
:10958C001FBF000007B503F0B7FC08B105F0D8FB0E
:10959C00002300938DF804304FF4E663ADF80030EF
:1095AC00684610238DF8023003F0ECFC08B105F08E
:1095BC00C7FB044803F0CEFC08B105F0C1FB03B0B7
:1095CC005DF804FB7D950100A8DF7047ADDF7047A7
:1095DC00AEDF704762DF704770B505468AB00C4647
:1095EC0000295ED000285CD00388502B33D0572B39
:1095FC0069D0102B55D181886069002601AA01968B
:10960C0002F078F80223218AA888ADF80A6002AA31
:10961C00CDF80CD0ADF80830FFF7D8FF002840D1BA
:10962C00A369002B3DD0039802F0A2F8002838D093
:10963C00019E0EB1012333701822002104A807F0FB
:10964C009BFC02238DF81030AB88ADF818300594D4
:10965C00A369079623E08188606902AA02F04AF8A0
:10966C001822002104A807F087FCAB882189ADF8EB
:10967C001830EB88029A05949942079216D12E8ADB
:10968C00022E13D16AB105F1120002F071F8029B9F
:10969C0048B101221A70A3698DF810600BB104A8AF
:1096AC0098470AB070BD18700326F4E7A2899A4255
:1096BC00F7D1A369002BF4D005F1120208922A8A83
:1096CC00ADF82420EBE78188606902AA02F012F859
:1096DC0001460028E5D1029E3378002BE1D01822F8
:1096EC0004A807F049FC0123ACE70000F0B53A4BA5
:1096FC008FB002AD04460A4603F1100C2F461868D1
:10970C0059682E4603C6083363453546F7D1002CFD
:10971C005FD0002A5DD01368A36121463846FFF75D
:10972C0059FF002853D12246012512F8023B8DF82F
:10973C00063001A92846ADF80450FFF745FF002874
:10974C0045D10146202206A807F016FC224602232A
:10975C00ADF8183012F80C3B8DF81A30BDF82430E7
:10976C001E4E6088079623F44F6323F00F0343F4D7
:10977C0040632B4306A9ADF824308DF829508DF8A1
:10978C002A5002F006F810BB0146202206A807F06A
:10979C00F3FB22460323ADF8183012F8043B8DF886
:1097AC001A30BDF824306088079623F4875323F0D1
:1097BC001F0343F480532B43ADF8243006A940F229
:1097CC0001138DF82950ADF82A3001F0E2FF0FB0EB
:1097DC00F0BD0E20FBE700BF84190200F40001006D
:1097EC00F0B50F4687B016461C46054610B34069C7
:1097FC0001AA194601F07EFFD0B94FF6FF739C42C7
:10980C001AD0019BC3B11B78C3B13388F42B17D882
:10981C00AB88CDF80B008DF80F00ADF8083002A91D
:10982C0001232046CDE904678DF80A30FFF7D0FEFE
:10983C0007B0F0BD0E20FBE70520F9E70820F7E79D
:10984C000720F5E777DF704700BF18462DE9F04396
:10985C0087B000AF78607B681B78002B40F01481D8
:10986C006B461E467B689B8A7B827B8A002B00F0B2
:10987C000A81798A0B46013BFB608BB20022984629
:10988C0091464FF000024FF000034FEAC90343EA40
:10989C0058734FEAC8028BB200221C4615464FF093
:1098AC0000024FF00003EB0043EA5473E2000B4656
:1098BC000733DB08DB00ADEB030D6B460033BB60FD
:1098CC0000237B610CE07B681A697B69134419786F
:1098DC00BA687B6913440A461A707B6901337B6151
:1098EC007B8A7A699A42EED3BB681B78613B0C2B5E
:1098FC0000F2B78001A252F823F000BF3D9901009D
:10990C006F9A01007D990100A3990100C99901008A
:10991C00F39901003D9A01006F9A01006F9A0100C2
:10992C006F9A01006F9A01006F9A0100559A01001D
:10993C00BB685B78303B002B14BF01230023DAB2E9
:10994C00534B1A70524B1B78002B08D0514952487C
:10995C0007F0FFFB03469AB2504B1A808AE050493D
:10996C004D4807F0F6FB03469AB24C4B1A8081E047
:10997C00042000F09BF94B4B1B8804221946032052
:10998C00FFF760FF4849444807F0E3FB03469AB2EF
:10999C00424B1A806EE0002000F088F9414B1B8886
:1099AC00002219460320FFF74DFF40493A4807F0C3
:1099BC00D0FB03469AB2394B1A805BE06FF027005C
:1099CC0000F074F9374B1B886FF0270219460320FF
:1099DC00FFF738FF3649304807F0BBFB03469AB215
:1099EC002E4B1A8046E07B8A042B4BD1BB685B78EC
:1099FC00303B642202FB03F1BB689B78A3F130027D
:109A0C0013469B0013445B00CA18BB68DB78303BE1
:109A1C0013441A46274B1A60264B1B681A462649D4
:109A2C001D4807F096FB03469AB21C4B1A8021E0A6
:109A3C00204B01221A602149174807F08AFB034684
:109A4C009AB2164B1A8015E01A4B4FF0FF321A607F
:109A5C001B49114807F07DFB03469AB20F4B1A8045
:109A6C0008E018490C4807F074FB03469AB20B4BFC
:109A7C001A8000BF094B1B88002B01D000F024F882
:109A8C00B54601E000BFB5461C37BD46BDE8F083C6
:109A9C00C425002094190200C8260020FC260020B2
:109AAC00A8190200F4240020BC190200D0190200ED
:109ABC00E4190200FC240020F8190200141A020018
:109ACC00201A0200381A020000B58FB0144B1B8804
:109ADC001A4601AB02331349184607F017FA012353
:109AEC008DF804300E4B1B88DBB28DF805300C4B17
:109AFC001B88023338336B44FF2203F8342C084B99
:109B0C001B8803339AB2064B1A80074B1B8801A99A
:109B1C00034A0648FFF764FE00BF0FB05DF804FB74
:109B2C00FC260020C8260020F4240020D424002089
:109B3C0000B583B001900091054B1B88009A0199E8
:109B4C000448FFF74DFE00BF03B05DF804FB00BFF7
:109B5C00F4240020D424002000B585B001AB0422ED
:109B6C000021184607F008FA094B019301AB19467E
:109B7C000848FFF7BBFD0390039B0293029B002B4D
:109B8C0002D0029805F0DCF800BF05B05DF804FBCC
:109B9C0059980100D424002076DF704777DF704796
:109BAC007ADF70477CDF70478FDF70477047132177
:109BBC00FFF7F2BF05F0C4B80388212B07B523D0FB
:109BCC0006D8102B13D0112B15D003B05DF804FB65
:109BDC003B2B01D0562BF8D180881321FFF7DCFFEB
:109BEC000028F2D003B05DF804EB05F0A9B80C4BDB
:109BFC0082881A80E9E70A4B4FF6FF721A8003B08D
:109C0C005DF804EBFFF7D8BB00238088ADF8043077
:109C1C0001A9FFF7C9FF0028D7D005F091F8D4E7C8
:109C2C00F424002008B530B906F094FF18B1BDE853
:109C3C00084005F085B808BD032807D14FF08043D4
:109C4C00A922C3F82025002006F08CBE7047000026
:109C5C0008B503784BB9054B3B211888FFF79CFFDF
:109C6C0018B1BDE8084005F06BB808BDF42400201D
:109C7C0010B504468CB098B901462C2201A807F007
:109C8C007BF9012307488DF80830802201A9059241
:109C9C008DF8043001F0A5F90348214601F00AFCC7
:109CAC000CB010BDAC270020BB9B0100034B02463F
:109CBC0093F854100120FFF771BF00BFAC270020B0
:109CCC0070B596B006F008FF08B105F039F806AC8F
:109CDC00002321460120069306F0BEFF08B105F0D3
:109CEC002FF8204607F04EF808B105F029F8FFF7D9
:109CFC0033FF40220021204607F03EF99C492046C4
:109D0C0001F03EFD9B490EA801F03AFD9A490CA8C2
:109D1C0001F036FD994908A801F032FD954910A8CB
:109D2C0001F02EFD4FF0805302ADD3F8A830C3F3F1
:109D3C00013242F00C0237328DF80820C3F30322B3
:109D4C00092A94BF303237328DF80920C3F303123D
:109D5C00092A03F00F0394BF30323732092B94BF1A
:109D6C00303337338DF80B304FF080538DF80A2099
:109D7C00D3F8A4301A0FB3F1204F34BF303237323E
:109D8C008DF80C20C3F30362092A94BF30323732AA
:109D9C008DF80D20C3F30352092A94BF30323732A9
:109DAC008DF80E20C3F30342092A94BF30323732A8
:109DBC008DF80F20C3F30332092A94BF30323732A7
:109DCC008DF81020C3F30322092A94BF30323732A6
:109DDC008DF81120C3F30312092A03F00F0394BF6B
:109DEC0030323732092B94BF303337338DF8133080
:109DFC000AA8002329468DF814308DF8122001F0A2
:109E0C00BFFC012320468DF8543001F0A1FB08B1B2
:109E1C0004F096FFFFF7B6FB594B02930023ADF805
:109E2C000C308DF80E304FF0805301AED3F8A430C7
:109E3C00C3F30332092A94BF303237328DF80B202A
:109E4C00C3F30322092A94BF303237328DF80C2029
:109E5C00C3F30312092A03F00F0394BF30323732D5
:109E6C00092B94BF303337338DF80D208DF80E301D
:109E7C0007221123294630468DF80430FFF792FE55
:109E8C0008B104F05DFF0023ADF81C303D4B069388
:109E9C0020464FF4C873ADF81E30FFF781FE08B1B1
:109EAC0004F04EFF3849394802F002FB08B104F0C7
:109EBC0047FF0923ADF81C3040F23373ADF818306E
:109ECC00334B08950021AC221846CDE902118DF8D0
:109EDC0004108DF8101007F04FF80622C270012202
:109EEC002C49028180F87C208022C160C0F8882037
:109EFC000221294A80F83C1004660664C0F8A420AC
:109F0C000146264800F0CAFE08B104F019FF2348A8
:109F1C00012100F0C0FE224B0693204604F040F9CC
:109F2C0008B104F00DFF14220021204607F024F89C
:109F3C004FF470234FF42032CDE9072303238DF81F
:109F4C002430184B0B932046174B0C9301F056F909
:109F5C0008B104F0F5FE1148032100F00FFF20B109
:109F6C0016B0BDE8704004F0EBBE16B070BD00BF7B
:109F7C00401A0200511A0200551A02005F1A020020
:109F8C00495353000C001800B99B010064280020B1
:109F9C0000270020F0240020319C0100AC27002079
:109FAC007D9C01005D9C0100C19B0100094A136866
:109FBC0001331360084B01221A70084B084A1968C8
:109FCC001068814203D20748007800B1116000226A
:109FDC001A607047782800207C2800207428002004
:109FEC00F82400207D28002008B500F0DBF9BDE83E
:109FFC000840002000F0F6B908B505F0E1F808B10A
:10A00C0004F09EFE094A0A48002105F009F908B13E
:10A01C0004F096FE074A0848012105F001F918B131
:10A02C00BDE8084004F08CBE08BD00BFF59F0100E0
:10A03C006C1A0200B99F0100681A020008B50A48A0
:10A04C00002240F6CD4105F0FDF808B104F078FE91
:10A05C00064800224FF4004105F0F4F818B1BDE8B1
:10A06C00084004F06DBE08BDA02800208028002008
:10A07C0082B001904FF0A043184602B0704700B573
:10A08C0085B00190084611461A4603468DF80330F8
:10A09C000B468DF8023013468DF8013001AB184693
:10A0AC00FFF7E6FF03909DF803209DF802305B005C
:10A0BC001A439DF801309B001A439DF818301B027F
:10A0CC0042EA03019DF81C301B04019A1943039BBF
:10A0DC0002F5E07243F8221000BF05B05DF804FBF6
:10A0EC0000B585B003900023019300230093002357
:10A0FC00012201210398FFF7C2FF00BF05B05DF8F4
:10A10C0004FB00B585B0019001AB1846FFF7B0FF1A
:10A11C000390019B012202FA03F31946039800F005
:10A12C0026F800BF05B05DF804FB00B585B00190C2
:10A13C0001AB1846FFF79CFF0390039BD3F8043543
:10A14C000293029BDA43019B012101FA03F31A40AB
:10A15C00039BC3F80825019B01229A40029B1A40DD
:10A16C00039BC3F80C2500BF05B05DF804FB82B05F
:10A17C0001900091019B009AC3F80C2500BF02B01E
:10A18C007047000000B583B004F086F80190019B85
:10A19C000093009B002B02D0009804F0D1FD04200A
:10A1AC00FFF79EFF0420FFF7ACFFFFF725FF00F041
:10A1BC006CF800F02FFAFFF783FDFFF73FFF224BFF
:10A1CC001B78DBB2002B28D0204BB3F900301A4699
:10A1DC004FF47A7302FB03F31B131AB21C4B1A8055
:10A1EC001C4BB3F900301A464FF47A7302FB03F39D
:10A1FC001B131AB2184B1A80184BB3F900301A46BD
:10A20C004FF47A7302FB03F31B131AB2144B1A802C
:10A21C00FFF796F90C4B00221A70124B1B78002B8F
:10A22C000AD0104B00221A700420FFF77EFF012089
:10A23C0000F04AF8FFF784F900F030F80A4B1B687D
:10A24C000133094A1360BAE7DC280020E628002015
:10A25C00E4280020EA280020E8280020EE2800202E
:10A26C00EC2800207C28002074280020022808B547
:10A27C0009D106F06FFC08B104F062FD05F03AF864
:10A28C0008B104F05DFD012008BD08B506F004FB23
:10A29C0018B1BDE8084004F053BD08BD06F014BB6E
:10A2AC0008B54FF0A0434FF40032C3F85427054BC8
:10A2BC004FF47A4043F001039847BDE80840002072
:10A2CC0006F050BB701A02000B4B1A6810B50B4C01
:10A2DC0010441860237813B1012B09D010BD084B22
:10A2EC001B689842FAD900F0FFF801232370F5E7B8
:10A2FC00FFF7D6FF0223F9E7C0280020C42800206E
:10A30C00FC2400201FB5074B0FCB6C4684E80F00D4
:10A31C0005480022214604F07FFC08B104F010FD32
:10A32C0004B010BD781A0200C81A02000C4B30B5EC
:10A33C00B12200251A705D700A4B1D705D700A4BBE
:10A34C000FCB85B06C4684E80F0008482A4621469E
:10A35C0004F062FC08B104F0F3FC05B030BD00BFA2
:10A36C00D4280020CC280020881A0200C81A020029
:10A37C0010B504F057FA88B1094C2378012B01D1A0
:10A38C00FFF7C0FF2378042B01D1FFF7CFFF237811
:10A39C00072B03D1BDE81040FFF7C8BF10BD00BFAD
:10A3AC000725002007B504F077F920B904F044F92B
:10A3BC0008B104F0C5FC0123ADF80430084A0223AF
:10A3CC0001A915208DF8063004F070F908B104F0DD
:10A3DC00B7FC0121152004F0E1F903B05DF804FB92
:10A3EC007DA3010030B5174B002285B01A700328ED
:10A3FC0025D8DFE800F0021E20225722124B5A709B
:10A40C003622002520211A71012219709A719D7033
:10A41C00DD705D710D4B0FCB6C4684E80F000C4862
:10A42C002A46214604F0F8FB08B104F089FC05B07B
:10A43C0030BD2722E2E71722E0E708221A7000223B
:10A44C00DCE700BF07250020D4280020981A020062
:10A45C00C81A0200F0B51F4E337885B0022B6C463B
:10A46C001D4B1CD020221A701F225A700622002568
:10A47C001A7108229A719D70DD705D71DD71174B38
:10A48C000FCB84E80F0016482A46214604F0C4FB83
:10A49C0008B104F055FC0223337005B0F0BD302236
:10A4AC001A7095225A7000272D220325DA701A7122
:10A4BC005A719F709D710B4B0FCB84E80F000848AD
:10A4CC003A46214604F0A8FB08B104F039FC35707B
:10A4DC00E3E700BF07250020D4280020A81A0200BB
:10A4EC00C81A0200981A02007FB51F4E3378052B4C
:10A4FC006C461E4B1DD020221A701F225A70062249
:10A50C001A71082200259A710422DA719D70DD708F
:10A51C005D71174B0FCB84E80F0016482A46214675
:10A52C0004F07AFB08B104F00BFC0523337004B083
:10A53C0070BD30221A702A225A70A0220025DA70BF
:10A54C001A715A7101229A719D700B4B0FCB84E8D2
:10A55C000F0008482A46214604F05EFB08B104F0BF
:10A56C00EFFB0623E2E700BF07250020D4280020DC
:10A57C00A81A0200C81A0200981A020010B51E4C44
:10A58C002378062B1ED8DFE803F004091E221D26B3
:10A59C002A00FFF7B7FE0123237013E0174A136854
:10A5AC0001331360164B174AB3F801101180164A89
:10A5BC00B3F803101180B3F80520144B1A80144B18
:10A5CC0001221A7010BDBDE81040FFF743BFFFF722
:10A5DC00ADFE0423E0E7BDE81040FFF785BF4FF068
:10A5EC00A043D3F810359B0203D5BDE81040FFF70C
:10A5FC009DBE0723D0E700BF07250020E0280020E0
:10A60C00C5280020E6280020EA280020EE2800209B
:10A61C00DC2800201FB50E4B0FCB6C4684E80F00D6
:10A62C004FF08053029303F5702303F612630093EB
:10A63C0003238DF80C30074A0748002321468DF878
:10A64C00063004F005FA08B104F07AFB04B010BD32
:10A65C00B81A020089A50100C81A02004FF08053F5
:10A66C004FF08042D3F84412C1F34231C2F83C158A
:10A67C000021C2F80C11C2F81011C2F8381502F5FD
:10A68C004042D3F80414C2F82015D3F80814C2F8C9
:10A69C002415D3F80C14C2F82815D3F81014C2F8EA
:10A6AC002C15D3F81414C2F83015D3F81814C2F8BA
:10A6BC003415D3F81C14C2F84015D3F82014C2F882
:10A6CC004415D3F82414C2F84815D3F82814C2F84A
:10A6DC004C15D3F82C14C2F85015D3F83014C2F81A
:10A6EC005415D3F83414C2F86015D3F83814C2F8E2
:10A6FC006415D3F83C14C2F86815D3F84014C2F8AA
:10A70C006C15D3F84414C2F87015D3F830210A2A0A
:10A71C0006D1D3F834311BB9174BFB22C3F81825DB
:10A72C004FF0704393F8E02F062A17D1D3F8E42F9B
:10A73C00110713D1D3F8E83F03F0F002302A03D00D
:10A74C0003F0E003402B09D14FF080534FF08042CF
:10A75C00D3F8583203F04F03C2F8E43E4FF0804375
:10A76C00D3F80024D20744BF6FF00102C3F80024D1
:10A77C00024B034A1A60704700F000400825002085
:10A78C000090D0036DDF704779DF70477DDF704735
:10A79C0064DF70472DE9F04F85B000250E9CBDF8A5
:10A7AC003CB0B4F800A00191074690461E46A9465D
:10A7BC003A884A450DDC45B12388013BA3EB0A03DB
:10A7CC009BB2FF2B39D806F80A30002005B0BDE843
:10A7DC00F08F7A6852F82900039000220DF10B01DA
:10A7EC0003A8FFF7D5FF0028F0D19DF80B204245B8
:10A7FC0020D1228885F0010002EB080101EB400119
:10A80C0059451ADC3DB9013292B2019B2280B354F6
:10A81C0022880132228022880DF10B01324403A8D8
:10A82C00FFF7B6FF0028D1D121889DF80B200A44F0
:10A83C002280012509F10109BAE70C20C6E72DE9B0
:10A84C00F341089FBDF824801546CDE9007802221B
:10A85C0004461E46FFF79EFF50B933461022294688
:10A86C002046CDE9087802B0BDE8F041FFF792BF71
:10A87C0002B0BDE8F0812DE9F04F0023178813805A
:10A88C0090F82D3085B006460D4614465BB3082F64
:10A89C0001D80C2028E102A8FFF774FF002840F033
:10A8AC0023812388DDF809100822EA542388013318
:10A8BC009BB21B222380EA54238801339BB2EA18F3
:10A8CC002380E950BDF80D30938023889DF8082033
:10A8DC0006339BB212F0FE0218BF01222380EA5409
:10A8EC00238801332380B378FBB123880433BB4224
:10A8FC00CFD802A8FFF748FF002840F0F580238846
:10A90C000322EA54238801339BB219222380EA5490
:10A91C002388BDF8082001339BB2E9182380EA5440
:10A92C00120A4A70238802332380F2789AB1238862
:10A93C00D91CB942ADD80221E954238801339BB20A
:10A94C0001212380E95423880B449BB22380EA54D1
:10A95C0023880B4423807368ABB193F900202388C0
:10A96C00D91CB94295D80221E954238801339BB2F2
:10A97C000A212380E954238801339BB22380EA54B3
:10A98C002388013323803389002B40F0A180338A44
:10A99C005BB1CDE900472B460722032106F11000DD
:10A9AC00FFF74DFF002840F09F80338B5BB1CDE962
:10A9BC0000472B461522142106F11800FFF73FFF24
:10A9CC00002840F09180326A002A40F09080D6F83E
:10A9DC002480B8F1000F30D0B8F804302188981CCE
:10A9EC008A1C0244BA423FF654AFFE283FF651AFE0
:10A9FC0003336B54238801339BB2FF222380EA5428
:10AA0C00238801339BB22380B8F80020EA54E9185C
:10AA1C00120A4A702088023080B22080B8F80420D4
:10AA2C005AB1D8F8081000296BD0284406F06EFAF9
:10AA3C002388B8F804201344238096F82C30002B7C
:10AA4C0040F09880307800284ED03388012B58D0B5
:10AA5C00228802F1020CBC453FF61BAF012805D140
:10AA6C007378023313449F42FFF413AF023FBF1AB3
:10AA7C00BFB202A905EB0C00ADF80870FFF786FE1B
:10AA8C0090BB3178BDF80830022900F0B98072789B
:10AA9C009A4202D39F4280F0B180012940F0B280EB
:10AAAC00974293B2C0F0AE80ADF808300821BDF8E3
:10AABC000830FE2B3FF6EDAE22880133AB542288D2
:10AACC00013292B22280A9542288134423800BE0D5
:10AADC00CDE900472B460622022106F10800FFF7BC
:10AAEC00AEFE00283FF453AF05B0BDE8F08FB4F8CC
:10AAFC0000C00CF10603BB423FF6CBAE1188052912
:10AB0C0001D80720F0E76FF4486E01EB0E039BB2FF
:10AB1C004FF27D3E7345F4D95388052BF1D96FF470
:10AB2C004860181880B27045EBD94FF6FF7081421F
:10AB3C0001D09942E5D8052305F80C302388013360
:10AB4C009BB212212380E954238801339BB22380CA
:10AB5C001188E954E818090A4170238802339BB222
:10AB6C0023805288EA54E918120A4A702388023367
:10AB7C0023802CE7B36A002BC3D04FF000084FF0B2
:10AB8C000C0A4FF0160BB16A5FFA88F20AFB02F25C
:10AB9C0001EB0209B9F80430981CFE283FF679AE97
:10ABAC00208803332B54238801339BB2238005F870
:10ABBC0003B0238801339BB223808A5AEA54E918E4
:10ABCC00120A4A702088023080B22080B9F8042022
:10ABDC005AB1D9F80810002993D0284406F096F9F8
:10ABEC002388B9F804201344238096F82C2008F10C
:10ABFC0001085FFA88F39A42C5D823E7092156E782
:10AC0C009F42FBD2ADF8087050E770B5C0B14AB1A5
:10AC1C0016880024B44203D305196D789D4208D0E0
:10AC2C00A14201D800200BE0055D01352C44A4B2F3
:10AC3C00F0E7A142F6D9A31C1380005D013880B265
:10AC4C0070BD13B513460022ADF806200DF10602B7
:10AC5C000446FFF7DAFF10B1BDF80600204402B03D
:10AC6C0010BD72DF704773DF704738B501220446A0
:10AC7C000D46B0F89810D0F89400FFF7E2FF00B141
:10AC8C00057004F13C0204F1940104F15400BDE898
:10AC9C003840FFF7E6BF80F830107047F8B504462F
:10ACAC000F46002966D0002864D091F87A301BB189
:10ACBC0091F89830002B5FD1D7F8A030042B5BD0E3
:10ACCC00D7F89C30042B57D04FF0000C84F802C0FE
:10ACDC0007F178060FCE251D0FC50FCE0FC596E8D0
:10ACEC00070085E8070084F830C0D7F8A430636308
:10ACFC00D7F8A830A36304F194024FF6FF73C4F89D
:10AD0C00AAC0A4F8A830C4F8A420C4F8ADC0227816
:10AD1C000AB984F85430224604F155011F25C4F8B1
:10AD2C009410384622F8985FFFF7A5FD08BB224621
:10AD3C0004F17401C4F89C1007F13C0022F8A05FE8
:10AD4C00FFF799FDA8B9A369A4F848304FF48073B4
:10AD5C000125A4F8503063692064014684F83C5006
:10AD6C00636404F13C0204F15400FFF77AFF00B96C
:10AD7C002570F8BD0E20FCE70720FAE7F8B5077838
:10AD8C0004460D46002F00F0F4800023C0F8AA30D2
:10AD9C00C0F8AD30C388817000F1AA060BB101294F
:10ADAC0003D0E37943B1022D06D1636B9BB1012231
:10ADBC0084F8B12008209847324604F1B00112F80B
:10ADCC00013F5BB98A42FAD16A1E032A4DD8DFE8EB
:10ADDC0002F0070D111484F8B130EDE73B46F3E7B0
:10ADEC00A2791AB194F8242002B94BB9E2790AB1CC
:10ADFC00002B3CD1237A002B3BD1657AAD00EDB210
:10AE0C00636BA570002B36D0033D012D33D86279CE
:10AE1C008AB394F8B22072BB84F8B420012284F86F
:10AE2C00B3200720984704F13C051822002128463E
:10AE3C0006F0A2F8E26A0123511E994284F83C30D4
:10AE4C0098BFD3B284F8513094F8243088BF0027CF
:10AE5C001BB1A7B1A36A84F85230A378042B1ED877
:10AE6C00DFE803F06E0F253553000025C8E70225F7
:10AE7C00C6E70325C4E7002384F8B330D3E70123E6
:10AE8C00E9E7012384F831300023C4E91063C4F8E6
:10AE9C00A430022384F83C308023A4F84830A378F3
:10AEAC00002B51D1636B002B5FD100205CE002239F
:10AEBC0084F83130032384F83C302369A4F84830FB
:10AECC000023C4F8A430E36826646364E7E762698E
:10AEDC006264A269A4F8482062797AB194F8B2202D
:10AEEC0062B994F8B4204AB1022384F8503004219A
:10AEFC002046FFF7BAFE0028D1D1052384F8313063
:10AF0C0004F19403C4F8A430C9E7E2696264226ACC
:10AF1C00A4F848206279002AF0D094F8B220002AD4
:10AF2C00ECD194F8B420002AE8D0022384F85030F5
:10AF3C0004212046FFF799FE0028B0D10623DDE757
:10AF4C00002384F83130AAE7D4F8A4102A4604F17F
:10AF5C005400FFF786FE38B994F8301094F854007A
:10AF6C00FFF781FE00289DD0F8BD94F8310098477A
:10AF7C009BE70820F8E70388112B10B50C460AD084
:10AF8C00262B1FD0102B05D1C27B8388012A01D11F
:10AF9C00A1F8A83010BD0022838881F8B220B1F846
:10AFAC00A8209A42F6D10B79002BF3D1012120462F
:10AFBC00FFF7E4FE0028EDD0A36B002BEAD0BDE830
:10AFCC0010401847037A013B012BE3D889780523FD
:10AFDC000131B1FBF3F303EB8303C91AC9B2E6E702
:10AFEC00704730B50D46041D0FCD0FC40FCD0FC4E7
:10AFFC0095E8070084E8070030BD75DF704776DF01
:10B00C0070477ADF70477BDF70470000034B1A886C
:10B01C0082420CBF18460020704700BF0C2900204C
:10B02C00024B9B6903B11847704700BFF028002002
:10B03C0073B585B22846FFF7E9FF044638B3174EBF
:10B04C00027A337B9A420CD200F10A012846FFF7B0
:10B05C00D4FFF0B111281AD002B0BDE87040FFF750
:10B06C00DFBF00230372337C43B13B212846FFF73B
:10B07C00C6FF30F0080301D0FFF7D2FF736933B17C
:10B08C0000228DF80420ADF8065001A8984702B0B4
:10B09C0070BD237A01332372F9E700BFF02800203A
:10B0AC0013B50B46497A02460E4871B9D0E9011026
:10B0BC001C7A002C18BF0146586804F0C3F878B10C
:10B0CC0002B0BDE81040FFF7ABBF00211972436915
:10B0DC0033B101218DF80410ADF8062001A8984772
:10B0EC0002B010BDF02800204B8802889A4212D87A
:10B0FC0042889A420FD380888B8840F2F3118842A1
:10B10C0094BF021A421A9A4205D80844984234BF96
:10B11C000020012070470020704700000388122B8C
:10B12C0070B5014659D004D8102B1ED0112B44D029
:10B13C0070BD502BFCD12F4BC288DB899A42F7D1C2
:10B14C00038A022BF4D186883046FFF75FFF054651
:10B15C000028EDD001F1120000F00AFB38BB686842
:10B16C0004F0B8F80028E3D00AE0C37B8688012BF2
:10B17C00DED14FF6FF70FFF749FF054620B90420DA
:10B18C00BDE87040FFF74CBF1B4A068000230372DA
:10B19C001368C0F80A305368C0F80E3010310A300A
:10B1AC00FFF7A2FF134B6872DB89002BC0D1294635
:10B1BC003046BDE87040FFF773BF8088FFF726FF6D
:10B1CC0004460028B4D0406804F084F808B1FFF7B6
:10B1DC0027FF4FF6FF732380AAE786883046FFF7D8
:10B1EC0015FF05460028A3D008310A30FFF77CFF75
:10B1FC006872DCE7F028002020290020F8B506460C
:10B20C0048B305460FCD154F3C460FC495E80700D3
:10B21C0084E807003068124C3C60B0B1FFF7F1FED7
:10B22C00C0B9326813682360536863600D480E4AD6
:10B23C004FF6FF7303800D4B40F8043F002103F0E1
:10B24C00EFFF002818BF032004E02046FFF7DBFEC9
:10B25C000028EBD0F8BD0E20FCE700BFF028002042
:10B26C00202900200C2900203DB0010028290020B5
:10B27C00F7B5174601900E4691B1019C6CB10025B3
:10B28C002C46294601A805F001F818B13946A8B298
:10B29C00B04701340135142DF3D1204603B0F0BD75
:10B2AC000C46FAE773B50191019C06466CB100257A
:10B2BC002C46294601A804F0E9FF18B106EB44031B
:10B2CC0001349D800135142DF3D13046346002B029
:10B2DC0070BD00002DE9F04703888488112B8CB0D9
:10B2EC0005463DD01A2B42D0102B19D1DFF8AC807B
:10B2FC00D8F80830DB430093D8F80410684605F002
:10B30C001CF8009901A8FFF7CDFF0DF106090027E5
:10B31C00019B9F4207D3132C12D9042003F010FD7C
:10B32C000CB0BDE8F08739F802AF00260136514663
:10B33C0008EB860004F0A0FF1D2EF7D10137E7E7DC
:10B34C001748214604F081FF1648214604F07DFF82
:10B35C00EB7B012BE4D01448214604F076FFDFE7A9
:10B36C000F4821460CB0BDE8F04704F085BF037AC6
:10B37C000E481F2B4FEA131521460AD904F065FF1E
:10B38C00022D0B482146EDD00CB0BDE8F04704F07F
:10B39C005CBF04F071FF06482146E3E74829002012
:10B3AC00502900204C290020542900205829002025
:10B3BC005C2900201328014602D8024804F066BF1D
:10B3CC00002070474C290020FFF7F4BF10B504464D
:10B3DC00FFF7F0FF28B10348214604F057FF013076
:10B3EC00C0B210BD5029002010B50446FFF7E2FF93
:10B3FC0028B121460248BDE8104004F047BF10BDFB
:10B40C005829002010B50446FFF7D4FF28B1214677
:10B41C000248BDE8104004F039BF10BD5C29002083
:10B42C0010B50446FFF7C6FF002814BF20461420B1
:10B43C0010BD000008B51821024804F030FFC0B25E
:10B44C0008BD00BF4829002070B50A4E054630469D
:10B45C000C4604F01BFF58B12846FFF7ABFF38B180
:10B46C000634294606EB8400BDE8704004F00EBF9C
:10B47C00002070BD48290020F8B50D4E0546304619
:10B48C000C46174604F002FF80B12846FFF792FFE6
:10B49C0060B1A01D294606EB80001FB1BDE8F84045
:10B4AC0004F0D3BEBDE8F84004F0E6BEF8BD00BF22
:10B4BC0048290020034B9B680A4601461846FFF7B3
:10B4CC00D7BE00BF48290020F8B50A4D04460E46E9
:10B4DC0001462846174604F0D9FE48B1043405EB62
:10B4EC0084053A46A8683146BDE8F840FFF7C0BE6F
:10B4FC00F8BD00BF48290020A8DF7047F0B507460B
:10B50C0089B014461E460D4611B9084603F018FCC6
:10B51C0014B9204603F014FC20220021684605F0E3
:10B52C002BFD02238DF80D30084B0E9A1888ADF8C0
:10B53C0000706946ADF80440ADF8064002958DF8F0
:10B54C00116000F026F909B0F0BD00BFF829002009
:10B55C0030B587B041F60A035C4AADF80C300446AE
:10B56C0003A901208DF80E00FFF7C6FF0546002841
:10B57C0049D12288002A49D1228952B1544B0093D7
:10B58C00E16894F83C3042F62420FFF7B7FF00281E
:10B59C0047D1228A52B14F4B0093616994F83C30E9
:10B5AC0042F62520FFF7AAFF00283AD1228B52B190
:10B5BC00494B0093E16994F83C3042F62720FFF7A1
:10B5CC009DFF00282DD1228C4AB1444B0093616A17
:10B5DC0094F83C3042F62620FFF790FF08BB228DF2
:10B5EC004AB13F4B0093E16A94F83C3042F6282074
:10B5FC00FFF784FFA8B9236BABB9616B002938D175
:10B60C00A36B002B42D1284607B030BD354B0093BD
:10B61C00616894F83C3042F62920FFF76FFF002850
:10B62C00AAD00546EFE71A688DF810201A68120A9E
:10B63C008DF811205A888DF81220DA788DF81320A5
:10B64C005A688DF814209B688DF815301A0A1B0C5B
:10B65C008DF81730244B8DF816200093082294F89F
:10B66C003C3004A942F62320FFF748FF0028C4D041
:10B67C00D7E71E4B0A790093096894F83C3042F6E0
:10B68C002A20FFF73BFF0028BAD0CAE71A788DF8BA
:10B69C0010205A888DF81120120A8DF812209A88E1
:10B6AC008DF81320120A8DF81420DB888DF81530D4
:10B6BC001B0A8DF816300E4B0093072294F83C3081
:10B6CC0004A942F65020FFF719FFAAE7F829002039
:10B6DC00D8290020F0290020C8290020C0290020EA
:10B6EC00FA290020D0290020022A0020E829002075
:10B6FC00E029002070B50546164608460AB90E200A
:10B70C0070BD00231360002DF9D02B68002BF6D0F0
:10B71C00EB8813F003040ED1FFF782FEC0B214289D
:10B72C000BD02B7983420AD9EA882B6800FB0233B1
:10B73C0033602046E4E70720E2E70520E0E7042039
:10B74C00DEE7AADF7047002301380B70042806D807
:10B75C00DFE800F00306080A0C0011230B70704799
:10B76C002123FBE73123F9E71223F7E72223F5E73F
:10B77C00008800F0010070470088C0F3400070475B
:10B78C0038B5044608460D4605F090FB65602080F0
:10B79C0038BDF0B58B7891B00C46012B38BF012326
:10B7AC0000278DF80E3005460B88607CADF80C3008
:10B7BC006946ADF800708DF80270FFF7C4FFA07CED
:10B7CC000DF10101FFF7BFFF1646227D237B0132ED
:10B7DC0002F0030243EA4203E27B43EAC203227C07
:10B7EC0043EA02139DF8022003F01F0322F01F020C
:10B7FC00134339461C2209A88DF8023005F0BCFB16
:10B80C00637B13F0300F14D00DF10901E07CADF81F
:10B81C0008708DF80A70FFF796FF11238DF8083029
:10B82C009DF80A30012102AA61F342038DF80A3017
:10B83C000E92637B8DF82430A37B8DF8253000238A
:10B84C00CDE90633089303AB0493A388ADF81C3001
:10B85C00A368CDF814D01BB1E288ADF8182008937A
:10B86C00A2695AB301A90023ADF804308B70138878
:10B87C00ADF82C305388ADF82E3053680D91107BF9
:10B88C000A93FFF760FF0DF10501507BFFF75BFF9B
:10B89C00937B117A013303F0030341EA4301937A5A
:10B8AC0041EAC301D37A41EA03119DF8063001F055
:10B8BC001F0123F01F0319438DF80610E36903B130
:10B8CC000C93334604AA09A92846FFF73AFF11B096
:10B8DC00F0BDA0DF7047A1DF7047ADDF7047B3DF6D
:10B8EC00704710B50446408800F076FCA0802046D6
:10B8FC00BDE8104001F0FABA30B587B005460C46E9
:10B90C0018220021684605F037FB072368468DF89E
:10B91C000030ADF802500294FFF7E3FF07B030BDE2
:10B92C0030B587B0054618220021684605F024FB87
:10B93C004FF6FF739D42ADF8025023D0284600F01D
:10B94C0060FB1128044617D007D860B10B2811D022
:10B95C0021462846FFF7D0FF03E043F2020398424A
:10B96C00F6D1002209E00E2368468DF80030FFF76F
:10B97C00B8FFF6E70F23F7E70122034B28461978A7
:10B98C00FFF77AFD07B030BD132A0020FFF7C8BFC0
:10B99C00024B034918780022FFF796BD152A0020A8
:10B9AC00B1B901002DE9F047DFF8008188B098F8B3
:10B9BC0000100446FFF748FD0646002873D12046C8
:10B9CC0000F072FB0828014622D006D888B1062860
:10B9DC004BD02046FFF790FF09E043F20203984258
:10B9EC0005D043F20143984259D01128F1D10125D9
:10B9FC0046E03146182202A805F0BEFA102302A830
:10BA0C008DF80830ADF80A400126FFF76AFFEEE723
:10BA1C0001A8FFF764FF354601274FF002090DF12D
:10BA2C00060ABDF80430BB421FD902AA394620468B
:10BA3C00CDE9029AFFF751FFB8B9BDF806300137CE
:10BA4C0035B942F605255B1B5D425D41BFB2E8E7A7
:10BA5C0042F602129342F9D10DF1020302AAB9B2D5
:10BA6C0020460393FFF739FF30B1204600F0B4FBBA
:10BA7C0000F034FB002503E0BDF80230002BF4D0BD
:10BA8C000B4B2A4619782046FFF7F6FC98F8001065
:10BA9C003246204608B0BDE8F047FFF7EDBC204623
:10BAAC00FFF73EFFA3E708B0BDE8F087162A002099
:10BABC00152A002013B5044600F08EFB00236A46BD
:10BACC00092100F06DFE052805D1044B01221978DF
:10BADC002046FFF7D1FC02B010BD00BF112A002098
:10BAEC0008B5084B084918780022FFF7EDFC024610
:10BAFC0030B9064B06491878BDE80840FFF7E4BC9E
:10BB0C0008BD00BF142A002059BB0100112A0020D7
:10BB1C0021BB010013B50A4B00930A4B044618686D
:10BB2C00019001AA69462046FFF7D3FE28B9064BBF
:10BB3C00012219782046FFF79FFC02B010BD00BF10
:10BB4C00A62A0100D01A0200102A002030B50121CB
:10BB5C0087B005461C4804F0CDFB0446BFF35F8F4D
:10BB6C0070BB284600F008FA862801460ED007D88C
:10BB7C00D0B1112826D02846FFF7BEFE002403E0E2
:10BB8C0043F202039842F6D122460FE018222146D6
:10BB9C00684605F0F1F9062368468DF80030ADF8DB
:10BBAC000250FFF79EFEEFE701240246074B2846A2
:10BBBC001978FFF761FC1CB9BFF35F8F024B1C6057
:10BBCC0007B030BD0122F1E70C2A0020142A002016
:10BBDC0038B503780446A3B94088FFF7A1FE658801
:10BBEC00284600F04EFA28B1064B01221978284657
:10BBFC00FFF742FC6088FFF75DFFBDE83840FFF7B8
:10BC0C006FBF38BD152A002037B50378082B0446C2
:10BC1C0030D1427A72BB057A072D1BD0082D2ED05D
:10BC2C00012D27D180886A46294600F0EDFF08BB1C
:10BC3C00019B1B78F3B1A08800F0FCFA4FF6FF7360
:10BC4C00984217D0124B2A461978FFF715FCFFF7CC
:10BC5C009FFE0FE0808800F0EDFA4FF6FF739842DC
:10BC6C00044607D00B4B01221978FFF705FC204640
:10BC7C00FFF720FF03B0BDE83040FFF731BF064BA4
:10BC8C0019680129F6D1BFF35F8F1A60F2E700BF84
:10BC9C00152A0020142A00200C2A00202DE9F84334
:10BCAC00FFF7C8FBDFF87890DFF8788089F80000A0
:10BCBC00FFF7C0FB88F80000FFF7BCFB1A4F1B4EC8
:10BCCC003870FFF7B7FB3070FFF7B4FB184D194C09
:10BCDC002870FFF7AFFB2070FFF7ACFB164B18700A
:10BCEC0099F80030182B18D098F80030182B14D075
:10BCFC003B78182B11D03378182B0ED02B78182BAF
:10BD0C000BD02378182B08D0182806D00B4B00200A
:10BD1C001860BFF35F8FBDE8F8830320FBE700BF1B
:10BD2C00142A0020132A0020152A0020162A00208D
:10BD3C00112A0020102A0020122A00200C2A002090
:10BD4C0073B50D4B0024CDE900340C4B0E46224646
:10BD5C0019780546FFF790FB094A0A4B2846A6427C
:10BD6C0008BF1346019300F037FA2246694600F0EB
:10BD7C0089FD02B070BD00BF01000900112A00202E
:10BD8C00D41A0200D81A020070B503888488502B8C
:10BD9C0086B0054638D00ED8352B48D0362B63D01C
:10BDAC003F4B404918780022FFF78EFB06B0BDE8E8
:10BDBC007040FFF7EDBD522B22D0542BF0D118223E
:10BDCC000021684605F0D8F8112320468DF8003084
:10BDDC00ADF8024000F000FAADF8040000F07EF976
:10BDEC00314B204619780022FFF746FB2F4B20469B
:10BDFC0019780022FFF740FB6846FFF772FDCFE78A
:10BE0C002046FFF78DFDCBE7037B0189827A012B5E
:10BE1C00C6D1012AC4D142F602139942C0D1244B97
:10BE2C0020461978FFF728FBFFF75AFEB8E7214E9A
:10BE3C0020463178FFF708FB0028B1D0002231787A
:10BE4C002046FFF719FBEA883ABBAE89012E24D1B4
:10BE5C00E9892046FFF73FFDF8B9174B32461978B0
:10BE6C002046FFF709FB9BE7134E20463178FFF77E
:10BE7C00EBFA002894D0317800222046FFF7FCFA28
:10BE8C00E98851B9EB89012B03D1297C003918BF02
:10BE9C0001212046FFF754FF82E70021F9E700BF9C
:10BEAC00132A002099B90100162A0020152A002017
:10BEBC00142A0020102A0020122A0020AFDF70471D
:10BECC00B1DF7047B2DF7047B3DF704710B504467F
:10BEDC00808800F0AFF960802046BDE8104001F08A
:10BEEC0007B80000F0B5184B184D93E8030089B063
:10BEFC006E4686E803004FF6FF772888B8421CD0C0
:10BF0C000022314600F0BEFC0446C0B118220021CC
:10BF1C0002A805F031F82B88ADF80C30112C0CD0A0
:10BF2C00862C0CBF0623072302A80EBF8DF8083001
:10BF3C008DF808300494FFF7C9FF09B0F0BD2888CC
:10BF4C0000F0F7FC2880D8E7DC1A0200182A002041
:10BF5C00044B1A884FF6FF739A4201D0FFF7C2BF09
:10BF6C00704700BF182A0020024B4FF6FF721A8050
:10BF7C0000207047182A00202DE9F743804600F076
:10BF8C002BF94FF6FF739842064637D001274FF036
:10BF9C0003093A466B460821304600F039FE01375A
:10BFAC00BFB2054628BB01990A46032342F8049BFD
:10BFBC0006314046FFF786FF044648B93246082151
:10BFCC00304600F0B0FE0446204603B0BDE8F083D6
:10BFDC000C280CD0052800D12C460821304600F046
:10BFEC0079FE002818BF0324002DD2D1ECE70125DF
:10BFFC00F3E7072814BF04460C24E5E743F20204D8
:10C00C00E2E72DE9F341074600F0E6F84FF6FF733F
:10C01C00984218D10024032526464FF001082B46E0
:10C02C00224631463846FFF74BFF042821D008281A
:10C03C0025D00B281ED115F002030FD196B9ACB93F
:10C04C0002B0BDE8F0816A46082100F0DDFD002851
:10C05C00E0D1019B9C881D689E1DDEE701254FF0F9
:10C06C000008DCE703251C461E46F8E7032534468A
:10C07C00F5E71120B8F1000F08BF0B20E0E7002016
:10C08C00F8E71FB50DF10703039300F0A5F802AA1A
:10C09C00012100F0B9FD20B9039B187805B05DF8BB
:10C0AC0004FB0020FAE7000070B505460A48FFF7CC
:10C0BC000BFF70B9084C43F2030621884FF6FF7250
:10C0CC002846FFF7FBFEB04204D1238801332380BE
:10C0DC00F3E7032070BD00BF1A2A002013B5074AEE
:10C0EC00044692E803006B4683E8030000221946DD
:10C0FC00204600F0C7FB02B010BD00BFE41A0200DE
:10C10C0046DF7047421E00F10F0312F8010F10B901
:10C11C009A42FAD170470120704708B570B171B1DD
:10C12C0003780A78534013F0FE0F08D10622013130
:10C13C00013004F051FFB0FA80F0400908BD002036
:10C14C00FCE72DE9F04700F101084F1C06460D46AF
:10C15C0000F1110901F1110A10223946404604F090
:10C16C003BFF0446D0B94046FFF7CCFF18B1384628
:10C17C00FFF7C8FF044651464846FFF7CEFF737CD5
:10C18C0003F0FC03042B05D06B7C03F0FC03042BA5
:10C19C0018BF044604F00100BDE8F0870024EAE76C
:10C1AC007FB505460E4600F035FB02AA0DF10601DF
:10C1BC00072000F037FB10B94FF6FF7409E0BDF80B
:10C1CC000640B442F1D003992846FFF7BAFF002885
:10C1DC00EBD0204604B070BD132810B5044602D92C
:10C1EC004FF6FF7010BDFFF7E5F80028F8D00A23D2
:10C1FC005C43014B185BF5E71C2A0020132838B56B
:10C20C0005460C4602D943F2020038BDFFF7D2F8BE
:10C21C000028F8D006480A2202FB0500D0F80230AC
:10C22C002360C388A380037AA3710020EDE700BFCD
:10C23C001C2A00204FF6FF7398422DE9F041054669
:10C24C000CD00C4F00244FF00A0808FB04F3A6B2E4
:10C25C00DB5BAB4205D00134142CF6D14FF6FF76E4
:10C26C0004E03046FFF7A6F80028F4D03046BDE8CD
:10C27C00F08100BF1C2A0020038843B9421C00F146
:10C28C00090312F8010F10B99A42FAD17047012034
:10C29C00704710B50446FFF7EFFF58B122880B88A2
:10C2AC009A4208D108220231A01C04F095FEB0FA83
:10C2BC0080F0400910BD0020FCE730B585B0044685
:10C2CC0000F0A8FA02AA0DF10601072000F0AAFA64
:10C2DC0010B94FF6FF700FE0039D204605F14601A3
:10C2EC00FFF7D7FF30B905F12A012046FFF7D1FF40
:10C2FC000028E7D0BDF8060005B030BD13289FBF5D
:10C30C000A235843014B1952704700BF1C2A0020C6
:10C31C0038B50546FFF78EFF0446284600F0E4FCCE
:10C32C0038B9132C05D80A235C43024B4FF6FF7225
:10C33C001A5338BD1C2A002070B58CB014466A46BE
:10C34C000D4600F11003164613F8011D02F8011BEF
:10C35C009842F9D10D22002104A804F00DFE2B788F
:10C36C008DF81F306B788DF81E303046AB788DF819
:10C37C001D30FFF7C5FE9DF82F3023709DF82E3031
:10C38C0063709DF82D30A3700CB070BD1FB50346C3
:10C39C0008461A7802F0FE02042A1BD1DA78B3F8A8
:10C3AC0001108DF806209A88ADF804109B79ADF831
:10C3BC000C2003A902AA8DF80E30FFF7BDFF032253
:10C3CC0002A901A804F008FEB0FA80F0400905B0FB
:10C3DC005DF804FB0020FAE730B50388102B93B00E
:10C3EC004ED1041D0FCC08AD0FC50FCC0FC59DF859
:10C3FC00243094E8030003F0FE03062B85E80300C9
:10C40C0009D000F007FA9DF82430032B4FEA5302B1
:10C41C0004D9022A3DD04FF6FF7310E002AA0DF1A9
:10C42C000601072000F0FEF90028F4D0039909A8B2
:10C43C001131FFF772FE0028F0D0BDF80630BDF8C0
:10C44C00204018480A226243811883529DF82A2002
:10C45C0009980A724FF6FF72C1F802009342BDF8B8
:10C46C002800C8800CD0ADF80C3002A80023ADF821
:10C47C000A408DF8083000F03DFD02A8FFF7A8FB3C
:10C48C0013B030BD039909A80131FFF77FFF0028D5
:10C49C00D3D102AA0DF10601072000F0C3F9002840
:10C4AC00F0D1B8E71C2A0020A5DF7047B5DF704734
:10C4BC0058B14FF0F7130360FB230371F723C380CC
:10C4CC001723C1608360002070470E20704713B59E
:10C4DC00034680880C4688B91A883A2A48D00FD867
:10C4EC00102A2BD0112A3ED0A37A3BB1E188002030
:10C4FC00FFF7DAFF10B94FF48073638102B010BDFF
:10C50C00552AF1D1DB88C988A072172B38BF1723A5
:10C51C008B4228BF0B462381FFF7C8FFE37A002B21
:10C52C00E2D1E368002BDFD040F67722009222891B
:10C53C00ADF80420694620469847D5E7DB7B012BF4
:10C54C0004BF0B88CB80C98823898B42CCD20020B6
:10C55C00FFF7AAFF10B90123E372C5E71128C3D175
:10C56C000123A372C0E7F723CB8017238B60BBE7B3
:10C57C005B89CA88934228BF1346172BCA6838BFF9
:10C58C0017230B814AB1C97A39B140F67721009152
:10C59C00ADF8043069462046904700236381A3E739
:10C5AC004FF6FF73438000F07FBA07B50023A1F567
:10C5BC008041A0F58040CDE9003389B26B4680B252
:10C5CC0003F06AFD002818BF052003B05DF804FBDA
:10C5DC00F0B5204E00238DB04FF6FF70CDE901333E
:10C5EC00337000F053FC4FF6FF770446BC4211D079
:10C5FC00A4F58045ADB201AA03A9284603F066FD57
:10C60C000A2809D0284603F0FDFC082805460BD162
:10C61C00012333700DB0F0BD204600F0DBFB20464B
:10C62C0000F034FC0446E1E7002DF3D01822002181
:10C63C000DEB020004F0A0FC07238DF8183006A8BF
:10C64C000123ADF81C4008958DF82430FFF7A8FFA6
:10C65C00E0E700BFEC2A002070B5044686B0182233
:10C66C000021684604F088FCA0892378344D00F53D
:10C67C00804080B2042BADF8040040D008D85A1E7C
:10C68C00022A12D92B780BB1FFF7A2FF06B070BDAE
:10C69C00052BF7D16368002B4AD113238DF800309A
:10C6AC004FF6FF73ADF804301DE043F6FE76B04252
:10C6BC00E18904D901F5804292B2B242E2D8DA1E85
:10C6CC00534253418DF80930A368039363688DF886
:10C6DC00081063B908238DF800309DF8103043F032
:10C6EC0001038DF810306846FFF75AFFCAE709229C
:10C6FC00049301238DF800208DF81430F3E743F6F2
:10C70C00FE739842BED8E389002BBBD163683BB95A
:10C71C000A238DF8003000F05DFB01232B70E2E75B
:10C72C000B22029301238DF800208DF80C30F4E7D6
:10C73C001422029301238DF800208DF80C30AFE702
:10C74C00EC2A002030B5154889B003F0EDFA08BB8F
:10C75C0003F000FB0446F8B900F01CFBCDE90344E0
:10C76C0003AA05A94CF2070003F0A3FC10B1204664
:10C77C0009B030BD01A905A803F0F2FB019B9D880F
:10C78C0005F58045ADB205A803F00EFC284600F077
:10C79C0009FBE5E70324EAE78624E8E765C6010020
:10C7AC00F0B5FF2887B00E4615461F462DD84B1EF8
:10C7BC00DBB2082B29D8164AD35633B303AAFFF79A
:10C7CC00F4FE18B10524204607B0F0BD01A903A85A
:10C7DC0003F0C6FB04460028F4D1019BAE705E88C2
:10C7EC0002992E8027B9696003A803F0DDFBEAE704
:10C7FC003F886868B600B74228BF37463A4604F00F
:10C80C0085FBBE42F0D90C24DDE70724DBE700BF33
:10C81C00F41A0200024B0022C3E90022704700BF49
:10C82C00E42A002070B5431EDBB2082B86B0054607
:10C83C000E46144620D8114AD356EBB1A0F58040D1
:10C84C000F4A03A980B203F034FC10B1002006B0EB
:10C85C0070BD01A903A803F083FB0028F6D1019B4E
:10C86C00A5705A889B88228003F58043029A6260E7
:10C87C0003A8338003F098FB0120E8E7F41A0200C8
:10C88C00E42A002070B5FF2886B00C46154636D831
:10C89C0089784A1ED2B2082A31D81C4EB25672B3CD
:10C8AC00A0F58043ADF80030A1F58043ADF802301F
:10C8BC006368019303AA23880293FFF776FE052889
:10C8CC00694603A80AD103F091FB0728044618D047
:10C8DC0007D868B10324204606B070BD03F08AFB6C
:10C8EC00F3E708280FD00E2814BF03241124F2E715
:10C8FC00002DF0D0294603A803F0F5FBEBE7072445
:10C90C00E9E78624E7E71124E5E700BFF41A020003
:10C91C004FF6FF7000F046BAFF2808B505D800F0B6
:10C92C0047FAFFF755FE002008BD0720FCE700F092
:10C93C0065BA00F091BA00F0A9BA00000A68084B79
:10C94C0070B50C25032A01D9002006E005FB02F482
:10C95C00E65A864202D10A60181970BD0132F1E71D
:10C96C00442C002037B500230D460446019301A941
:10C97C00FFF7E4FF38B18378AB4206D1837A9B078B
:10C98C0003D143680BB903B030BD019B0133019354
:10C99C0001A92046ECE710B5044600F0C5FB204683
:10C9AC0001F0C4FA2046FFF7D3FA2046BDE8104048
:10C9BC00FFF72AB970B50E4E04460025237AAB4218
:10C9CC000DD84FF6FF732380A370002363604FF4E0
:10C9DC007F432381A37A23F00303A37270BD617A92
:10C9EC002944C9B2304600F0DBFD0135E6E700BF53
:10C9FC00342C002013B50023CDE90033417A837821
:10CA0C008DF802300446264800F0B1FD60B3237A5D
:10CA1C00A2788DF8022003EB83039B00ADF8003065
:10CA2C00531E0190072B08D8DFE803F01607070701
:10CA3C00071604181423ADF800302246694632F864
:10CA4C00040BFFF71FFF112815D00BD870B1072866
:10CA5C0018BF032002B010BD0123ECE78388093313
:10CA6C009B08E8E7862811D00320F3E7A37A23F08C
:10CA7C000303A372EEE7A37A23F0030343F002034C
:10CA8C00A372084B01221A700020E3E7A37A23F06B
:10CA9C00030343F00103A372024B01221A70D9E77E
:10CAAC00342C0020302C00202DE9F0473A4EC16880
:10CABC0086B00546324600233746506881421BD16A
:10CACC000C2202FB03702B78DFF8D080092B1AD0D4
:10CADC00132B55D0082B55D16C7A002C52D1002831
:10CAEC0052D0FFF767FF2846FFF755FF98F8003044
:10CAFC009BB906B0BDE8F0870133042B02F10C02A0
:10CB0C00DBD10020DFE76C7A002C3BD100283BD036
:10CB1C00827A446042F002028272002588F800504A
:10CB2C004FF00C094FF0010A09FB05739B7A99072A
:10CB3C00C3F3400201D4DB0728D588F800A002B962
:10CB4C0024B33046FFF756FF00B34FF6FF73ADF832
:10CB5C0002300C236B438628FB5AADF8043017BF08
:10CB6C00072306238DF80030029018BF0023684677
:10CB7C000CBF8DF800308DF80C30FFF70CFFB8E7C8
:10CB8C000124B0E70024AEE70446ACE70135042DE0
:10CB9C0006F10C06C8D1ACE7442C0020302C002048
:10CBAC00154BF7B500221E464FF6FF754FF0FF0CE4
:10CBBC000C27104607FB02641D809D7083F809C08A
:10CBCC00A17A013221F00301042AA17203F10C03B2
:10CBDC0003F8040C43F8080CECD15023CDE90023E6
:10CBEC000649074B07484FF4A07200F0ACFC002834
:10CBFC0018BF032003B0F0BD442C0020F02A002005
:10CC0C00742C0020342C00200023FFF7C9BD000039
:10CC1C002DE9F04180460E4614461F46002B4FD09E
:10CC2C00CB1F012B4FD8531E032B4CD8FFF79AFE6A
:10CC3C00054610BBFF214FF6FF70FFF793FE05462C
:10CC4C00C8B1A0F8008086706B7AFF2B1AD12048EF
:10CC5C00214600F0BDFCFF2868722ED14FF6FF7301
:10CC6C002B8000236B604FF47F432B81AB7AA87031
:10CC7C0023F00303AB72112023E0037AA342E3D029
:10CC8C000F201EE04FF00008697A11482C7200F05A
:10CC9C006EFCD0B104EB840424010334C4F38D0482
:10CCAC00BE7078603C80B8F1000F04D0082E02D121
:10CCBC00A400063C8480002003E04FF00108E3E769
:10CCCC000E20BDE8F0810720FBE70320F9E700BF49
:10CCDC00342C002008B5FFF745FE18B1FFF76AFEAB
:10CCEC00002008BD0520FCE713B500230446019382
:10CCFC0001A9FFF723FE30B92046FFF70DFE50B116
:10CD0C00072807D107E081782046FFF7E3FF20B121
:10CD1C00052802D0032002B010BD019B0133019302
:10CD2C0001A92046E5E7CB1F012B70B506460C4642
:10CD3C00154601D9072070BD1046FFF7F8FD0028F5
:10CD4C00F8D021463046FFF70DFE28B184700580DF
:10CD5C00BDE87040FFF74EBE0520ECE710B54FF66E
:10CD6C00FF7304469C4208460AD14FF4807103F0CD
:10CD7C0096FA84B2B4F5807F09D14FF6FF7406E0C1
:10CD8C00FF2CFAD8214603F069FA0028F5D1204689
:10CD9C0010BD000002484022002104F0EDB800BF95
:10CDAC00782C00200149FFF7D9BF00BF782C002058
:10CDBC004FF6FF73984210B5044606D00449FFF7AE
:10CDCC00CDFF231A5842584110BD0020FCE700BF8C
:10CDDC00982C0020FF2810B5044609D801460548B8
:10CDEC0003F04AFA21460448BDE8104003F044BA67
:10CDFC0010BD00BF782C0020982C0020FF28014685
:10CE0C0002D8024803F042BA00207047782C002068
:10CE1C00FF28014602D8024803F038BA00207047B8
:10CE2C00982C00204FF6FF73984270B518BF441C25
:10CE3C000E4614BFA4B20024A5B2FF2D02D94FF6A2
:10CE4C00FF7506E02146304603F020FA0134002835
:10CE5C00F2D0284670BD000070B50B490A4EFFF7A2
:10CE6C00E1FF4FF6FF750446AC4201D1204670BD80
:10CE7C002046FFF7CDFF0028F8D020463146FFF7BB
:10CE8C00D1FF0446F0E700BF782C00200149FFF7E2
:10CE9C00C9BF00BF982C0020F8B5074E074F0546B8
:10CEAC0000243B78A34200DCF8BD56F8043B28462E
:10CEBC0098470134F5E700BFC02C0020CF2C002090
:10CECC00074B1B7810B504464BB1FFF785FA20468B
:10CEDC0001F068F82046BDE81040FEF755BF10BDC4
:10CEEC00CE2C002008B1FFF7D7BF7047FFF7D4BF97
:10CEFC00FFF7D2BFFFF7D0BF08B5FFF723FC08B18F
:10CF0C00032008BDFFF74CFE0028F9D101F02EF8E4
:10CF1C000028F5D100F074FC0028F1D1FEF7BEFE1C
:10CF2C000028EDD1FFF720F80028E9D1054B4FF68A
:10CF3C00FF721A80044B1860044B1870044B0122CA
:10CF4C001A70DEE7CC2C0020D42C0020D02C002032
:10CF5C00CE2C0020084B1B7853B1084A1378022BB7
:10CF6C0008D8074941F8230001331370002070479B
:10CF7C000820704704207047CE2C0020CF2C0020B6
:10CF8C00C02C0020034B1B780BB101F025B80820F6
:10CF9C00704700BFCE2C002008B5054B1B782BB179
:10CFAC0001F038F8082808BF112008BD0820FCE75C
:10CFBC00CE2C002038B5194B1B7805460C4633B3E4
:10CFCC0039B3FEF703FA30B3821E53425341227831
:10CFDC0063F3000222702846FFF7FEF84FF6FF734A
:10CFEC00C01A237818BF012060F3C30323702846AE
:10CFFC00FEF7FAF9237860F3410323702846FEF715
:10D00C0001FA237860F382032370002038BD0820D6
:10D01C00FCE70E20FAE743F20200F7E7CE2C0020E3
:10D02C00034B1B780BB1FFF773B90820704700BF97
:10D03C00CE2C00202DE9F04F87B0814601932E4B6A
:10D04C001B7888461646002B53D04FF6FF70FFF71F
:10D05C0070FC0423ADF80A3003AB0025059304AA39
:10D06C000DF10A030621044603950495FFF798FB7E
:10D07C0007283AD04FF6FF77BB464FF0FF3AF0B196
:10D08C00052825D04FF6FF739C4230D1A3452AD0FA
:10D09C00A7420CBF05200020B9F1000F01D0A9F860
:10D0AC0000B0B8F1000F01D0C8F8005006B13780BD
:10D0BC00019B0BB1C3F800A007B0BDE8F08F039B38
:10D0CC00AB4224BFA3461D4653453CBF27469A4658
:10D0DC002046FFF72EFC0DF10A0304AA0621044694
:10D0EC00FFF75EFBCBE70520D6E70520E4E703203E
:10D0FC00E2E70820E0E700BFCE2C002008B50023B3
:10D10C00064907481A46FFF795FF28B1431F5842B6
:10D11C005841044B187008BD0120FAE7B82C0020C8
:10D12C00CC2C0020D02C0020F0B5044687B0808891
:10D13C00FFF780F823786080083B032B20D8DFE8CA
:10D14C0003F002253569637A5BB9424A116851B123
:10D15C00E068814207D113603F4AA1881180E360E7
:10D16C000EE0012B0CD13D4B1B784BB13A4BA288F6
:10D17C001B889A4204D1237A062B01D1FFF7BEFFFC
:10D18C00204607B0BDE8F040FFF786BE637A002B5F
:10D19C00F6D1304A11680029F2D0E0688142EFD113
:10D1AC002F4913600A68013A0A60D8E72D4F3B7883
:10D1BC006BB90125294B1B7833B1274BA2881B88EF
:10D1CC009A4201D1FFF79AFF002D41D0D8E74FF6D4
:10D1DC00FF70FFF7AEFB4FF6FF7398420546E8D1A0
:10D1EC00FFF7A9FBA8420646E3D1002518222946E1
:10D1FC0068463D7003F0C0FE0C2320468DF80030CD
:10D20C00ADF80460ADF80260FFF746FE6846FFF724
:10D21C0043FECFE7134B1A78002AB1D00021182215
:10D22C006846197003F0A8FE0D238DF800304FF6F8
:10D23C00FF73ADF80430ADF80230A36802932046BA
:10D24C00237B8DF80C30FFF727FE6846FFF724FE92
:10D25C0007B0F0BDD42C0020CC2C0020D02C00200A
:10D26C00B82C0020BC2C00202DE9F041304B1B7851
:10D27C0088B00546002B57D02E4B2F4C93E803005B
:10D28C0023786F4687E803004BB1DFF8B080D8F8FD
:10D29C00004054B11124204608B0BDE8F081FFF7DE
:10D2AC002DFF2378002BF5D0EFE7254A254E128869
:10D2BC003368AA421DD1F3B11822214602A803F00B
:10D2CC005BFE082328468DF80830FEF7B3FF0623D3
:10D2DC00ADF810309DF81830ADF80A0064F3000377
:10D2EC0002A8ADF80C5005948DF81830FFF7D4FD5A
:10D2FC00D1E75A1C1AD00133104A336039462846FC
:10D30C00FFF7C0FA04460028C5D00023C8F8003047
:10D31C003368112803F1FF333360BBD08628BAD0B1
:10D32C00072818BF0324B6E70824B4E71324B2E790
:10D33C00CE2C0020001B0200D02C0020D42C00206E
:10D34C00CC2C0020B82C002076DF704713B5044697
:10D35C0069B901A9FFF72EFE43F20202904202D0F6
:10D36C0008B101F0EDFC9DF804309B071AD40021A4
:10D37C002046FFF711FEA8B1112813D00D2806D1B5
:10D38C001321204602B0BDE81040FFF7DDBF0B288B
:10D39C0008D043F20202904204D002B0BDE8104023
:10D3AC0001F0CEBC02B010BD017811B94088FFF776
:10D3BC00CDBF072903D1806808B101F0C1BC70470B
:10D3CC002DE9F041037886B00446142B42D8DFE8EF
:10D3DC0003F00B413341414144416C416C414141AB
:10D3EC0041414141417096008088FFF73DFF8628FE
:10D3FC000ED011280CD008D860B3831F012B29D96B
:10D40C0006B0BDE8F04101F09BBC1328F8D121E037
:10D41C004149424A0B68A08822F8130001335A4252
:10D42C0002F0070203F0070358BF53420B6006B02B
:10D43C00BDE8F04100F078B8037A012B0AD8848853
:10D44C0018220021684603F097FD6846ADF80440A9
:10D45C00FFF7B6FF06B0BDE8F081314D2B78002BFD
:10D46C00F8D1304E3378C3B96A4619461846FFF7DF
:10D47C00E1FD044648B9BDF80000FFF7D1FD0446B4
:10D48C0008B101F05DFC01233370631F012BE1D95E
:10D49C001CB1204601F054FCDCE702F0D9FD10B9B8
:10D4AC0001232B70D6E70828B0E71E4B01221A7017
:10D4BC00D0E71B4B194D00241C701A4B1C70164BDB
:10D4CC001F684FF6FF763B195A4202F0070203F031
:10D4DC00070358BF534235F81380B0450BD025F8DD
:10D4EC00136018220021684603F046FD6846ADF82B
:10D4FC000480FFF765FF0134082CE4D1AAE7084B40
:10D50C0000221A70037B002BA4D083680E2B8ED0C4
:10D51C00012B9FD18BE700BFDC2C00200C250020B9
:10D52C00D82C0020D92C00207FB518220021684669
:10D53C0003F022FD062368468DF80030FFF740FF0C
:10D54C0007B05DF804FB70B5DDE9045468B161B156
:10D55C005BB104FB05F6964207D835B12CB1C0E996
:10D56C000013C0E90254002070BD0720FCE738B559
:10D57C000D46044608B9002038BD0368002BFAD0CC
:10D58C0040680028F7D0FF29F5D0BFF35F8F02F079
:10D59C007DFE0028EFD0E368206803FB0500EBE775
:10D5AC0038B50D46044690B1036883B1406870B13C
:10D5BC00FF290CD0BFF35F8F02F068FE38B16068B2
:10D5CC00BFF35F8F2946BDE8384002F055BE38BD29
:10D5DC002DE9F0418846064618B9FF242046BDE8DF
:10D5EC00F0810368002BF8D04368002BF5D000279E
:10D5FC00FF24B368FDB29D42EFD27068294602F059
:10D60C002DFEBFF35F8F40B9FF2C08BF2C462D1B9E
:10D61C0001354545E2D00137EBE7FF2C07D1FF245C
:10D62C00F9E721463046FFF7BBFF0134E4B2AC42C8
:10D63C00F7D3F4E77EDF70477FDF704786DF7047F4
:10D64C0010B50378182B044602D1FDF7F3FE2070B9
:10D65C0010BD10B504464088FEF7BEFDA0802046E4
:10D66C00BDE8104000F032BC10B586B0044618225C
:10D67C000021684603F080FC042368468DF80030D6
:10D68C00ADF80240FFF7E5FF06B010BD30B587B02E
:10D69C0005460C4618220021684603F06DFC072352
:10D6AC0068468DF80030ADF802500294FFF7D1FFB8
:10D6BC0007B030BDF0B587B004460F4616460021C2
:10D6CC00182268461D4603F057FC03238DF80030E2
:10D6DC00094BADF8024019788DF8087000222046ED
:10D6EC00ADF80A608DF80C50FDF7C6FE6846FFF7E2
:10D6FC00B0FF07B0F0BD00BF1D2500207FB5022391
:10D70C008DF800300388ADF8023043798DF809109C
:10D71C0013F0040F14BF0123022368468DF8083060
:10D72C00FFF797FF07B05DF804FB000030B5144B12
:10D73C0087B00C46012219780546FDF79DFE114B6A
:10D74C00221E1978284618BF0122FDF795FE631E8C
:10D75C005A425A410C4B28461978FDF78DFE182277
:10D76C000021684603F008FC012368468DF8003060
:10D77C00ADF802508DF80840FFF76BFF07B030BDD5
:10D78C001D2500201F2500201E2500202DE9F0411D
:10D79C00184B0E46197804461746FDF755FE30B364
:10D7AC00154B20461978FDF74FFE0146E0B1134B9F
:10D7BC0020461978FDF748FEC0F1020504F580708B
:10D7CC00072180B2FFF786FAEDB2014620B1052899
:10D7DC0002D02046FFF75AFF3B46324629462046E8
:10D7EC00BDE8F041FFF766BF3B463246F7E7BDE8C0
:10D7FC00F08100BF1D2500201F2500201E250020C4
:10D80C00F8B5104F104E114D114C3846FFF718FF5C
:10D81C003046FFF715FF2846FFF712FF2046FFF7AB
:10D82C000FFF3B78182B0BD03378182B08D02B78A4
:10D83C00182B05D02378182B0CBF03200020F8BD23
:10D84C000320FCE71D2500201F2500201E2500209D
:10D85C001C2500202DE9F0418AB00E4617460446DF
:10D86C00FDF7B2FD20220546002102A803F084FB3F
:10D87C00012D08D1364B002219782046FDF7FCFD0E
:10D88C0036B9852114E0002D5BD143F2020053E040
:10D89C002046FEF7A1FC4FF6FF7398420ED10021F3
:10D8AC003378DB0721D42B4B05970993012D4BD1F2
:10D8BC0002AB32462046FFF7BFFE3DE0012DEED114
:10D8CC00DFF88C80204698F80010FDF7BDFD00288D
:10D8DC00E5D12046FFF7C8FE98F800102046FDF76A
:10D8EC00B3FD0028DBD18521DAE78529DED004F5EC
:10D8FC0080706B460122072180B2FFF789F911284D
:10D90C001AD0E0B901465022019803F035FB019979
:10D91C000B46204603F8345B029301F1180306937F
:10D92C004B1C079311310B4B05970993FEF766FCC3
:10D93C0001460028BAD008200AB0BDE8F0810320C7
:10D94C00FAE7002EA4D1852102AB0022B2E700BF7A
:10D95C001C250020E02C002038B505460C46FDF7B0
:10D96C0033FD012808D154B121462846FFF762FE49
:10D97C00042808BF112038BD43F20200FBE7204603
:10D98C00F9E700002DE9F0470388113B88B0044605
:10D99C00092B5ED8DFE813F00A005D00190039008E
:10D9AC005D005D005D005D008A001E01037A8088C9
:10D9BC003D2B41F23D014FF0000218BF4FF488514E
:10D9CC0008B0BDE8F047FFF7E1BE8088FDF7FCFC2E
:10D9DC00012808D1217AA08801F00101C1F10201CE
:10D9EC00C9B2FFF7A3FE34F8045F1822002102A885
:10D9FC0003F0C2FA043405238DF80830ADF80A5050
:10DA0C00049402A8FFF725FE23E000F1100630462F
:10DA1C00FEF753FC4FF6FF7398420546A0881BD1C6
:10DA2C00FEF7DAFB0546A0880021FFF77FFE4FF6D4
:10DA3C00FF739D4214D1002500232946A0881A4665
:10DA4C00FFF7FCFD0828014603D010B3A088FFF7B0
:10DA5C001DFE08B0BDE8F0872946FEF74FFCE2E753
:10DA6C0002AA07212846FFF7CFF80028E3D1A37EAE
:10DA7C00039DD907DFD595F84430DA0701D5343545
:10DA8C00DAE7314605F14600FEF703FC0028F6D133
:10DA9C00D1E7A37EDB07DCD5002DDAD1A0882B469D
:10DAAC0041F206022946FFF705FED2E7067A858881
:10DABC00002E40F089805A4B071D197832462846B3
:10DACC00FDF7DAFC617A11F0040105D1384608B093
:10DADC00BDE8F047FFF712BE05F580791FFA89F90A
:10DAEC006B46012207214846FFF792F8804640B169
:10DAFC0001462846FFF7CAFD31463846FFF7FEFDC2
:10DB0C00A7E72846FEF768FB4FF6FF7398420446DA
:10DB1C00824639D101460198FEF742FB5045044636
:10DB2C00064620D0DFF8FCA001462846FEF7E6FBAF
:10DB3C009AF800102846FDF787FC064620BB2846BD
:10DB4C00FFF792FD9AF800102846FDF77DFC014680
:10DB5C000028D2D0072122464846FFF7E4F80146B8
:10DB6C00A0B90121C9E7FEF7D3FEB042044605D1A6
:10DB7C0004212846FFF78AFD4146BEE701462846A8
:10DB8C00FEF7BCFB0126E5E74646E3E786280DD108
:10DB9C001822002102A803F0EFF9062302A88DF841
:10DBAC000830ADF80A50FFF754FDDAE72846FFF7C6
:10DBBC006DFD00213846FFF7A1FD002E3FF449AF63
:10DBCC002046FEF7A5FB44E7427A314602F00302F9
:10DBDC002846F5E6144B80881978FDF735FC054688
:10DBEC0000287FF436AFA088FDF7FEFB0146A08825
:10DBFC0039B9012341F2060208B0BDE8F047FFF73E
:10DC0C0059BD074B2A461978FDF736FC02238DF8CF
:10DC1C000830A388ADF80A30ADF81050F1E600BF1B
:10DC2C001D2500201C2500201F250020034660B365
:10DC3C00027802F08201802927D0C2F30211042954
:10DC4C0023D802F0F20132291FD04078997888420B
:10DC5C001BD8062819D9102917D8D97811F0040027
:10DC6C0013D11B7913F0040F10D141EA0300010703
:10DC7C000BD4D30700F0030003D4B0FA80F04009B2
:10DC8C007047003818BF0120704700207047FFF71D
:10DC9C0029B910B50378182B044602D1FDF7CAFB3D
:10DCAC00207010BD70B5112986B006460C4615467D
:10DCBC0003D81A4BCB40DB0723D41822002168462B
:10DCCC0003F05AF93046ADF80260FEF785FA0D2CD8
:10DCDC00ADF8040019D103238DF800309DB12B78D9
:10DCEC0003F00103C3F10203DBB28DF8083000230B
:10DCFC008DF80C3041F20113ADF80A306846FFF78D
:10DD0C00C6FF06B070BD0223EFE707238DF8003085
:10DD1C00002302948DF80C30F0E700BF01010200E3
:10DD2C002DE9F0411D4B8AB00027CDE905771B6822
:10DD3C00049304AD0446884695E8070001AE86E8D6
:10DD4C000700052320468DF81030ADF81240FEF781
:10DD5C0043FAADF814002846CDE90686FFF797FF85
:10DD6C000F4B01991A682046FFF774FDA0F11103BF
:10DD7C005A425A410B4B054619782046FDF77CFB5D
:10DD8C00094B3A4619782046FDF776FB019A29464D
:10DD9C002046FFF787FF0AB0BDE8F0812C2D00204C
:10DDAC00202D002023250020222500200021FFF714
:10DDBC00B7BF00002DE9F04705468AB017469846D4
:10DDCC008A4631BB304BCDE905111B68049304AE78
:10DDDC0096E807000DF1040989E807000524284698
:10DDEC008DF81040ADF81250FEF7F6F9ADF81400AE
:10DDFC003046CDE906A9FFF74AFF244BDDF8049025
:10DE0C001B7843B99DF80D302BB920460AB0BDE8FC
:10DE1C00F0874FF000093A4649462846FFF79CFD2B
:10DE2C00A0F111035A425A41194B0646197828465B
:10DE3C00FDF722FB112E11D80124B44042F6011338
:10DE4C001C401ED1112E0FD00324B8F1000FDCD0D2
:10DE5C004A4631462846FFF725FFD6E743F202042F
:10DE6C00A64218BF0324F0E70A4B524619782846FD
:10DE7C00FDF702FB084B3A4619782846FDF7FCFAE9
:10DE8C00E3E73446E1E700BF2C2D0020292D0020CC
:10DE9C0022250020212500202025002070B5094BCB
:10DEAC0019780446FDF7D0FA074B05461978204639
:10DEBC00FDF7CAFA2A46014601232046BDE8704008
:10DECC00FFF778BF202500202125002010B503780E
:10DEDC00052B044606D0122B0AD02046BDE8104074
:10DEEC00FFF7D5BE81684088BDE81040FFF718BF2A
:10DEFC000C4B1B689BB10C4B017A1B7803F0010295
:10DF0C0091420CD8417AC3F34003994294BF00214B
:10DF1C000121608801230022FFF74CFFDDE701217E
:10DF2C00F7E700BF2C2D0020242D002008B5037826
:10DF3C000B2B0FD8072B0FD9084B09491878002247
:10DF4C00FDF7C2FA074B084918780022BDE80840D3
:10DF5C00FDF7BABA132BEFD008BD00BF2325002064
:10DF6C00B9DD010022250020A9DE010010B5094809
:10DF7C00094CFFF78EFE0948FFF78BFE0848FFF7A8
:10DF8C0088FE2046FFF785FE2378182B0CBF032054
:10DF9C00002010BD22250020232500202025002054
:10DFAC002125002008B5FFF7EDFC074B0749187831
:10DFBC000022FDF789FA064B064918780022BDE8C5
:10DFCC000840FDF781BA00BF23250020B9DD010010
:10DFDC0022250020A9DE010010B5044630B90A4BF9
:10DFEC0018600A4B01221A70002010BDFFF71EFEAC
:10DFFC0038B1074B22681A6022791A71024A1360F1
:10E00C00EFE70720F1E700BF2C2D0020292D002081
:10E01C00242D002000230A461946FFF7CBBEA8DFAB
:10E02C007047AEDF7047B0DF704762DF70473CDF90
:10E03C0070473DDF704770477FB5044638B10388A1
:10E04C00502B5BD005D8102B19D0112B1BD004B042
:10E05C0070BD512B1FD0532BF9D12F4DC288EB889B
:10E06C009A42F4D16B7E002BF1D000F097F9002886
:10E07C00EDD06B69022004B0BDE87040184782886F
:10E08C00254B9A80E3E7244B81889A889142DED114
:10E09C004FF6FF72F5E7204D8288AB889A42D6D1B5
:10E0AC008679022ED3D10289EB889A42CFD1837B19
:10E0BC00043B022BCBD910220021684602F05CFFF6
:10E0CC002B7E8DF80060A3B19DF8063043F0010360
:10E0DC008DF80630A8886946FFF7A5FF1128F9D0FE
:10E0EC00BDF80430002BB2D104F1080000F004F9A3
:10E0FC00ADE740F2FD13ADF80430EBE7064DC288F6
:10E10C006B899A42A3D1038A022BA0D11230FDF75E
:10E11C0033FB28769BE700BF302D00207FB5002312
:10E12C00CDF80B308DF80F300323ADF802302023DF
:10E13C008DF804300D4B8DF80500DA88ADF8082009
:10E14C0002228DF80A206A448DF8061004929888F1
:10E15C0001AA02A90592FFF764FF20B9BDF80230AD
:10E16C00032B18BF0C2007B05DF804FB302D0020EA
:10E17C0010B54FF0FF310020FFF75BFF044658B994
:10E18C00B121FFF754FF044630B9044B01205B6901
:10E19C009847022002F0E6FB204610BD302D0020EF
:10E1AC00F0B51C4B87B002AC024603F110072546B4
:10E1BC0018685968264603C60833BB423446F7D163
:10E1CC002AB3154C4FF6FF73A380136800222283E9
:10E1DC00124A002B08BF13466361204600F052F828
:10E1EC0098B901204FF65963A21C01A98DF80600BD
:10E1FC00ADF80430FFF713FF38B921462846FFF776
:10E20C0014FF10B9204600F057F807B0F0BD0E20EF
:10E21C00FBE700BF081B0200302D002043E001008B
:10E22C004FF0030C00DF704714490B6810B51BB39B
:10E23C004B680BB30831984708281DD0104C236845
:10E24C0058B9987601210220FFF768FFA0B1236826
:10E25C005B690320BDE81040184700229A7606211E
:10E26C000220FFF75BFF18B1236803205B69984716
:10E27C00236802205B69EDE710BD00BF6C2D002008
:10E28C00682D002018B1034B1860002070470E2039
:10E29C00704700BF682D002008B502F0ABFB38B901
:10E2AC000448FFF7BDFF18B9BDE8084002F0B0BB49
:10E2BC0008BD00BF6C2D002010B588B0044620228C
:10E2CC000021684602F058FE22460323ADF80030C8
:10E2DC0012F8063B8DF8023042F60103ADF80C3013
:10E2EC001723ADF8043060884FF00133694604936E
:10E2FC00FDF74FFA08B010BD70B50546007B244CF5
:10E30C0001280ED0022824D00221287BFFF706FF1B
:10E31C0018B1236803205B699847236802205B6966
:10E32C0009E023689E7E4EB10621FFF7F7FE50B33D
:10E33C0023685B690320BDE8704018475876014696
:10E34C00FFF7ECFEF8B1236811285E761CD004218F
:10E35C00DBE76A7B531E132B18D80E4E05F10E010A
:10E36C00301D02F0D3FD6B7BB36123689B7E002BC9
:10E37C00EDD10949304651F8083B98470028E6D1C1
:10E38C00236801229A7670BD0621BEE70521BCE701
:10E39C00682D00204C2D00206C2D002008B5044B5E
:10E3AC001B6800205B699847BDE80840FFF7E0BE9A
:10E3BC00682D002038B5074C051E04F1080318BF62
:10E3CC001C4623682BB11A6822605B682846984764
:10E3DC00F7E738BD802D002020B9054B01225A707B
:10E3EC00FFF7E8BF012802D1014A9070F8E77047A7
:10E3FC00782D002020B9034B01225A70FFF7DABFA9
:10E40C00704700BF782D002038B50B4C237883B9AA
:10E41C000A486360A3602361E36000F063F805467B
:10E42C0002F0D8FB08B900F06BF8012323702846E2
:10E43C0038BD8525FBE700BF782D0020E5E3010002
:10E44C0037B50B4C00230DF107008DF8073000F0A9
:10E45C005DFFE368013BE360E56815B900F062F825
:10E46C00A5709DF8070000F075FF03B030BD00BF2C
:10E47C00782D0020012813B508D003281CD018B91A
:10E48C00114B0122C3F8802002B010BD0F4C0023A9
:10E49C000DF107008DF8073000F038FF23780BB929
:10E4AC00FFF7B2FFE3689DF807000133E360012337
:10E4BC00A37000F04FFFE7E700F022F802B0BDE8D0
:10E4CC001040FFF7BDBF00BF00E100E0782D002039
:10E4DC0000F18040002382B0036003680193019B2C
:10E4EC0002B07047054A13792BB901211060937162
:10E4FC009180184670478520704700BF8C2D0020F6
:10E50C00074B1A68D2075FBFC02283F80023012291
:10E51C001A604FF080430022C3F81825704700BFE3
:10E52C0000E100E04FF080430122DA60D3F81824B8
:10E53C00D203FBD4704700004FF0804110B5D1F8E6
:10E54C00003163B14FF48070FFF7C2FF1F4B587955
:10E55C000122C1F8082310B95A711B6898474FF073
:10E56C008042D2F8043153B14FF48270FFF7B0FF00
:10E57C000223C2F80833154B01201B6898474FF053
:10E58C008042D2F8103153B14FF48870FFF7A0FFDE
:10E59C001023C2F808330D4B02201B6898474FF02C
:10E5AC008042D2F80C3183B100214FF48670C2F84E
:10E5BC00341CFFF78DFF0823C2F80833034B997105
:10E5CC00BDE810401B680320184710BD8C2D00209F
:10E5DC0000F1804000F5C040002382B00360036866
:10E5EC000193019B02B07047800000F1A040D0F86D
:10E5FC00003723F44033C0F80037D0F8003743EA33
:10E60C000143C0F800377047C208012300F007002F
:10E61C008340885C03438B5470470000054B4FF0DC
:10E62C00FF32072843F8202084BF1B1883F84820AA
:10E63C00704700BF942D002038B5144D95F8584004
:10E64C000CBB2022FF2105F1300002F095FCE0B25A
:10E65C000134FFF7E3FF0C2CF9D10D4B0022C02144
:10E66C006A6583F80613402119604FF4BE70FFF7FA
:10E67C00AFFF084B4FF00041C3F80413012385F89A
:10E68C005830104638BD0820FCE700BF942D002000
:10E69C0000E100E000600040034B93F858000038A4
:10E6AC0018BF0120704700BF942D00202DE9F041C8
:10E6BC00DFF8E08008EB0003054693F93030002BBF
:10E6CC000F4664DA8B78C3F34003002B0BBF08248E
:10E6DC0000240C2108218C4202D10420BDE8F081D9
:10E6EC0058F8240001303DD108EB050166B248F81A
:10E6FC00242081F830601BB908EB040383F84850E0
:10E70C00BB785A070ED4D9072ED5AB0003F1A04322
:10E71C00D3F8002722F00202C3F800271E4928462E
:10E72C00FFF772FFBB783A7813F0020325D0A400F0
:10E73C0004F1804404F5C0442D02D4F8103523F4C0
:10E74C00473323F44073C4F810351204D4F8103551
:10E75C0005F4F85502F4403215431D43C4F8105526
:10E76C000020BBE70134B6E77A7805F5E0734FF08B
:10E77C00A041920041F82320D0E7083E48FA86F6E3
:10E78C0096F8501041EA821286F85020E8E70820EB
:10E79C00A4E700BF942D0020E82D002010B51F4CDD
:10E7AC00231893F93020072A18DD083A44FA82F22C
:10E7BC0092F850309B09032B0BD14FF0A043D3F8A8
:10E7CC001015C14001F001010231BDE81040FFF706
:10E7DC000BBF012B0CBF02210321F6E7D3B2072B91
:10E7EC001AD8930003F1804303F5C043D3F8100506
:10E7FC0040F00100C3F8100502F1400040B2800067
:10E80C0080B2FFF7E5FE39B154F8223023B1012371
:10E81C009340034AC2F8043310BD00BF942D00206E
:10E82C00006000404FF0A043D3F8103523FA00F0FD
:10E83C0000F00100704700002DE9F04F87B0002474
:10E84C00574D03944FF48072012102F1804303F57C
:10E85C00C04390B21B68012B06D1D5F804330B4290
:10E86C0002D0FFF7B5FE0C430432B2F5907F4FEAAD
:10E87C004101EAD14A4BD3F87C31012B0AD14FF438
:10E88C00BE70FFF7A5FE4FF0A04344F00044D3F850
:10E89C0010350393E3B2D3B1424F01260025344225
:10E8AC0010D0AB0003F1804303F5C043D3F810053F
:10E8BC00D3F8101557F8253023B1C1F30141C0F33B
:10E8CC00042098470135082D4FEA4606E7D1002C65
:10E8DC0060DA0023DFF8CC8004934FF0FF3300267E
:10E8EC00DFF8C4900593374619F9014F631C46D0E5
:10E8FC00C4F3C20318336B440122E5B204F03F0A9F
:10E90C0004F0070402FA04F413F8042C224236D063
:10E91C0008EB0A02AD0992F9302058F822B0BBF18D
:10E92C00000F08D1032D2AD104A950460193FFF7FB
:10E93C006BFE019B01E0032DF6D00AF5E0714FF060
:10E94C00A04213F80C3C52F821102342C1F30141B0
:10E95C0005D0022913D1032D0BD1294604E003293C
:10E96C000DD1032D05D102215046FFF73DFE013696
:10E97C00F6B2BBF1000F02D029465046D8470137FA
:10E98C00042FB1D136B14FF0A043039AD3F8103510
:10E99C00934202D107B0BDE8F08F0393049B9EE72E
:10E9AC0000600040942D0020E32D0020014B1B68DB
:10E9BC00184700BFF02D00200E4B984237B50C467F
:10E9CC0002D0002003B030BD00230DF107008DF8FC
:10E9DC00073000F09BFC084B1D7915B901221C6017
:10E9EC001A719DF8070000F0B5FC002DE9D011203C
:10E9FC00E8E700BF00200040F02D00204FF040233E
:10EA0C0082B0D3F81821EAB10022C3F81821D3F848
:10EA1C0018310193019B0C4BD97FFF2907D0987FAC
:10EA2C0001228A404FF0A04148B1C1F80C250022C8
:10EA3C005A771A72D3E90021044802B01047C1F882
:10EA4C000825F4E702B07047F82D0020002E0020B6
:10EA5C002DE9F74F90F804906B4E01934FF0240A78
:10EA6C000AFB09FA06EB0A0B90469BF81C2007469A
:10EA7C000C46002A40F0C380056864492846FFF71D
:10EA8C009BFF002840F0BD8046F80A80019BCBF824
:10EA9C00043094F800C0227B4FF0A041012303FA0C
:10EAAC000CF3012A94BFC1F80C35C1F808350CF5EC
:10EABC00E0734FF0010E41F823E06378FF2B1FBF8A
:10EACC000EFA03FEC1F80CE503F5E07E4FF0030AE5
