:020000021000EC
:10900000014B00221A707047D4240020ADDF704756
:1090100070B505468AB00C4600295ED000285CD0A9
:109020000388502B33D0572B69D0102B55D1818812
:109030006069002601AA019600F016FC0223218A2D
:10904000A888ADF80A6002AACDF80CD0ADF80830B7
:10905000FFF7DCFF002840D1A369002B3DD0039827
:1090600000F029FC002838D0019E0EB10123337096
:109070001822002104A804F0B1F802238DF8103062
:10908000AB88ADF818300594A369079623E0818872
:10909000606902AA00F0E8FB1822002104A804F08D
:1090A0009DF8AB882189ADF81830EB88029A0594B9
:1090B0009942079216D12E8A022E13D16AB105F178
:1090C000120000F0F8FB029B48B101221A70A3695C
:1090D0008DF810600BB104A898470AB070BD1870E5
:1090E0000326F4E7A2899A42F7D1A369002BF4D0B2
:1090F00005F1120208922A8AADF82420EBE7818854
:10910000606902AA00F0B0FB01460028E5D1029E8A
:109110003378002BE1D0182204A804F05FF8012373
:10912000ACE776DF70478FDF704700000388212BA4
:1091300007B523D006D8102B13D0112B15D003B0B0
:109140005DF804FB3B2B01D0562BF8D1808813210E
:10915000FFF7E7FF0028F2D003B05DF804EB02F060
:1091600042BD0C4B82881A80E9E70A4B4FF6FF722A
:109170001A8003B05DF804EBFFF742BF002380883C
:10918000ADF8043001A9FFF7CEFF0028D7D002F0D8
:109190002AFDD4E7C8240020032807D14FF08043DC
:1091A000A922C3F82025002003F03CBE7047022806
:1091B00008B509D103F018FF08B102F014FD02F060
:1091C000D9FD08B102F00FFD012008BD70B5C0B196
:1091D0004AB116880024B44203D305196D789D4224
:1091E00008D0A14201D800200BE0055D01352C44D8
:1091F000A4B2F0E7A142F6D9A31C1380005D0138A8
:1092000080B270BD13B513460022ADF806200DF1F3
:1092100006020446FFF7DAFF10B1BDF8060020444D
:1092200002B010BD72DF704773DF704738B501229E
:1092300004460D46B0F89810D0F89400FFF7E2FF0E
:1092400000B1057004F13C0204F1940104F15400F2
:10925000BDE83840FFF7E6BFF8B5077804460D468D
:10926000002F00F0F4800023C0F8AA30C0F8AD3021
:10927000C388817000F1AA060BB1012903D0E379FC
:1092800043B1022D06D1636B9BB1012284F8B1205A
:1092900008209847324604F1B00112F8013F5BB94B
:1092A0008A42FAD16A1E032A4DD8DFE802F0070D80
:1092B000111484F8B130EDE73B46F3E7A2791AB117
:1092C00094F8242002B94BB9E2790AB1002B3CD1C1
:1092D000237A002B3BD1657AAD00EDB2636BA570AC
:1092E000002B36D0033D012D33D862798AB394F830
:1092F000B22072BB84F8B420012284F8B320072086
:10930000984704F13C0518220021284603F066FF27
:10931000E26A0123511E994284F83C3098BFD3B2CF
:1093200084F8513094F8243088BF00271BB1A7B1CE
:10933000A36A84F85230A378042B1ED8DFE803F028
:109340006E0F253553000025C8E70225C6E7032523
:10935000C4E7002384F8B330D3E70123E9E701230E
:1093600084F831300023C4E91063C4F8A430022328
:1093700084F83C308023A4F84830A378002B51D1E6
:10938000636B002B5FD100205CE0022384F8313056
:10939000032384F83C302369A4F848300023C4F840
:1093A000A430E36826646364E7E762696264A269E3
:1093B000A4F8482062797AB194F8B22062B994F89E
:1093C000B4204AB1022384F8503004212046FFF72C
:1093D0002DFF0028D1D1052384F8313004F1940306
:1093E000C4F8A430C9E7E2696264226AA4F848209C
:1093F0006279002AF0D094F8B220002AECD194F8D7
:10940000B420002AE8D0022384F8503004212046FA
:10941000FFF70CFF0028B0D10623DDE7002384F816
:109420003130AAE7D4F8A4102A4604F15400FFF71B
:10943000F9FE38B994F8301094F85400FFF7F4FEB0
:1094400000289DD0F8BD94F8310098479BE708208C
:10945000F8E70388112B10B50C460AD0262B1FD035
:10946000102B05D1C27B8388012A01D1A1F8A83035
:1094700010BD0022838881F8B220B1F8A8209A425A
:10948000F6D10B79002BF3D101212046FFF7E4FE42
:109490000028EDD0A36B002BEAD0BDE810401847A0
:1094A000037A013B012BE3D8897805230131B1FB15
:1094B000F3F303EB8303C91AC9B2E6E77047000070
:1094C000034B1A8882420CBF18460020704700BF29
:1094D000C0250020024B9B6903B11847704700BFAD
:1094E000A425002013B50B46497A02460E4871B9EF
:1094F000D0E901101C7A002C18BF0146586802F010
:10950000E1FB78B102B0BDE81040FFF7E3BF0021F6
:109510001972436933B101218DF80410ADF80620AA
:1095200001A8984702B010BDA42500204B880288EE
:109530009A4212D842889A420FD380888B8840F290
:10954000F311884294BF021A421A9A4205D808447D
:10955000984234BF0020012070470020704700006F
:109560000388122B70B5014659D004D8102B1ED099
:10957000112B44D070BD502BFCD12F4BC288DB89FE
:109580009A42F7D1038A022BF4D186883046FFF73E
:1095900097FF05460028EDD001F1120000F08BF98D
:1095A00038BB686802F0D6FB0028E3D00AE0C37B32
:1095B0008688012BDED14FF6FF70FFF781FF05464D
:1095C00020B90420BDE87040FFF784BF1B4A068025
:1095D000002303721368C0F80A305368C0F80E30D5
:1095E00010310A30FFF7A2FF134B6872DB89002BA2
:1095F000C0D129463046BDE87040FFF773BF808870
:10960000FFF75EFF04460028B4D0406802F0A2FBDA
:1096100008B1FFF75FFF4FF6FF732380AAE7868844
:109620003046FFF74DFF05460028A3D008310A3029
:10963000FFF77CFF6872DCE7A4250020D42500201A
:10964000F7B5174601900E4691B1019C6CB100250B
:109650002C46294601A803F09AF918B13946A8B258
:10966000B04701340135142DF3D1204603B0F0BDCD
:109670000C46FAE773B50191019C06466CB10025D2
:109680002C46294601A803F082F918B106EB4403E1
:1096900001349D800135142DF3D13046346002B081
:1096A00070BD00002DE9F04703888488112B8CB031
:1096B00005463DD01A2B42D0102B19D1DFF8AC80D3
:1096C000D8F80830DB430093D8F80410684603F05C
:1096D000B5F9009901A8FFF7CDFF0DF106090027A4
:1096E000019B9F4207D3132C12D9042002F07BFA6E
:1096F0000CB0BDE8F08739F802AF002601365146BC
:1097000008EB860003F039F91D2EF7D10137E7E7A2
:109710001748214603F01AF91648214603F016F9B6
:10972000EB7B012BE4D01448214603F00FF9DFE76F
:109730000F4821460CB0BDE8F04703F01EB9037A8C
:109740000E481F2B4FEA131521460AD903F0FEF8E5
:10975000022D0B482146EDD00CB0BDE8F04703F0D8
:10976000F5B803F00AF906482146E3E7DC250020B6
:10977000E4250020E0250020E8250020EC2500203D
:10978000F02500201328014602D8024803F0FFB854
:1097900000207047E0250020FFF7F4BF10B5044615
:1097A000FFF7F0FF28B121460248BDE8104003F062
:1097B000EEB810BDEC25002010B50446FFF7E2FF1F
:1097C000002814BF2046142010BD000070B50A4EBA
:1097D000054630460C4603F0DAF858B12846FFF744
:1097E000D1FF38B10634294606EB8400BDE870404D
:1097F00003F0CDB8002070BDDC250020F8B50D4E7B
:10980000054630460C46174603F0C1F880B128469D
:10981000FFF7B8FF60B1A01D294606EB80001FB11D
:10982000BDE8F84003F092B8BDE8F84003F0A5B8F1
:10983000F8BD00BFDC250020F8B50A4D04460E46F1
:1098400001462846174603F0A2F848B1043405EB58
:1098500084053A46A8683146BDE8F840FFF7F0BEF7
:10986000F8BD00BFDC25002070B505461646084649
:109870000AB90E2070BD00231360002DF9D02B68AB
:10988000002BF6D0EB8813F003040ED1FFF794FF02
:10989000C0B214280BD02B7983420AD9EA882B68EE
:1098A00000FB023333602046E4E70720E2E70520AF
:1098B000E0E70420DEE7008800F001007047008840
:1098C000C0F340007047A0DF7047A1DF7047ADDFF5
:1098D0007047B3DF704710B50446408800F01CFCA9
:1098E000A0802046BDE8104001F0B2B930B587B085
:1098F00005460C4618220021684603F06FFC07233A
:1099000068468DF80030ADF802500294FFF7E3FF8F
:1099100007B030BD30B587B0054618220021684633
:1099200003F05CFC4FF6FF739D42ADF8025023D06C
:10993000284600F006FB1128044617D007D860B16E
:109940000B2811D021462846FFF7D0FF03E043F251
:1099500002039842F6D1002209E00E2368468DF8F2
:109960000030FFF7B8FFF6E70F23F7E70122034BBC
:1099700028461978FFF742FF07B030BD5B2600206C
:10998000FFF7C8BF024B034918780022FFF754BF06
:109990005D260020999901002DE9F047DFF800814C
:1099A00088B098F800100446FFF710FF064600281C
:1099B00073D1204600F018FB0828014622D006D8B3
:1099C00088B106284BD02046FFF790FF09E043F20C
:1099D0000203984205D043F20143984259D011281E
:1099E000F1D1012546E03146182202A803F0F6FB2A
:1099F000102302A88DF80830ADF80A400126FFF7C1
:109A00006AFFEEE701A8FFF764FF354601274FF034
:109A100002090DF1060ABDF80430BB421FD902AAA3
:109A200039462046CDE9029AFFF751FFB8B9BDF893
:109A30000630013735B942F605255B1B5D425D41B5
:109A4000BFB2E8E742F602129342F9D10DF10203E8
:109A500002AAB9B220460393FFF739FF30B120467E
:109A600000F05AFB00F0DAFA002503E0BDF80230FE
:109A7000002BF4D00B4B2A4619782046FFF7BEFE88
:109A800098F800103246204608B0BDE8F047FFF7CE
:109A9000B5BE2046FFF73EFFA3E708B0BDE8F0875C
:109AA0005E2600205D26002013B5044600F034FB3E
:109AB00000236A46092100F061FD052805D1044B09
:109AC000012219782046FFF799FE02B010BD00BFB1
:109AD0005926002008B5084B084918780022FFF7DE
:109AE000ABFE024630B9064B06491878BDE808407F
:109AF000FFF7A2BE08BD00BF5C260020419B01000D
:109B000059260020099B010013B50A4B00930A4B0C
:109B100004461868019001AA69462046FFF7D3FE63
:109B200028B9064B012219782046FFF767FE02B0DC
:109B300010BD00BFA62A01002CD30100582600202A
:109B400030B5012187B005461C4802F054FF044699
:109B5000BFF35F8F70BB284600F0AEF98628014640
:109B60000ED007D8D0B1112826D02846FFF7BEFE68
:109B7000002403E043F202039842F6D122460FE0AC
:109B800018222146684603F029FB062368468DF813
:109B90000030ADF80250FFF79EFEEFE701240246C9
:109BA000074B28461978FFF729FE1CB9BFF35F8FD2
:109BB000024B1C6007B030BD0122F1E754260020A3
:109BC0005C26002038B503780446A3B94088FFF727
:109BD000A1FE6588284600F0F4F928B1064B012261
:109BE00019782846FFF70AFE6088FFF75DFFBDE899
:109BF0003840FFF76FBF38BD5D26002037B50378CA
:109C0000082B044630D1427A72BB057A072D1BD04F
:109C1000082D2ED0012D27D180886A46294600F0D4
:109C2000ADFE08BB019B1B78F3B1A08800F0A2FA3F
:109C30004FF6FF73984217D0124B2A461978FFF758
:109C4000DDFDFFF79FFE0FE0808800F093FA4FF6EE
:109C5000FF739842044607D00B4B01221978FFF797
:109C6000CDFD2046FFF720FF03B0BDE83040FFF7F1
:109C700031BF064B19680129F6D1BFF35F8F1A6017
:109C8000F2E700BF5D2600205C260020542600205D
:109C900073B50D4B0024CDE900340C4B0E46224623
:109CA00019780546FFF7AAFD094A0A4B2846A6423D
:109CB00008BF1346019300F02FFA2246694600F0D0
:109CC000CFFC02B070BD00BF010009005926002082
:109CD00030D3010034D3010070B503888488502B41
:109CE00086B0054638D00ED8352B48D0362B63D0F9
:109CF0003F4B404918780022FFF79EFD06B0BDE8B3
:109D00007040FFF73FBE522B22D0542BF0D11822C7
:109D10000021684603F062FA112320468DF80030D6
:109D2000ADF8024000F0F8F9ADF8040000F076F963
:109D3000314B204619780022FFF760FD2F4B20465B
:109D400019780022FFF75AFD6846FFF7C4FDCFE7F8
:109D50002046FFF7DFFDCBE7037B0189827A012BE9
:109D6000C6D1012AC4D142F602139942C0D1244B74
:109D700020461978FFF742FDFFF7ACFEB8E7214E09
:109D800020463178FFF722FD0028B1D0002231783B
:109D90002046FFF733FDEA883ABBAE89012E24D175
:109DA000E9892046FFF791FDF8B9174B324619783B
:109DB0002046FFF723FD9BE7134E20463178FFF73F
:109DC00005FD002894D0317800222046FFF716FDCB
:109DD000E98851B9EB89012B03D1297C003918BFDF
:109DE00001212046FFF754FF82E70021F9E700BF79
:109DF0005B260020819901005E2600205D26002060
:109E00005C260020582600205A260020AFDF70472D
:109E1000B1DF7047B2DF7047B3DF704710B504465B
:109E2000808800F0A7F960802046BDE8104000F06F
:109E300011BF0000F0B5184B184D93E8030089B02E
:109E40006E4686E803004FF6FF772888B8421CD09C
:109E50000022314600F004FC0446C0B11822002163
:109E600002A803F0BBF92B88ADF80C30112C0CD0F4
:109E7000862C0CBF0623072302A80EBF8DF80830DE
:109E80008DF808300494FFF7C9FF09B0F0BD2888A9
:109E900000F03DFC2880D8E738D301006026002080
:109EA000044B1A884FF6FF739A4201D0FFF7C2BFE6
:109EB000704700BF602600202DE9F743804600F080
:109EC0002BF94FF6FF739842064637D001274FF023
:109ED00003093A466B460821304600F053FD01372E
:109EE000BFB2054628BB01990A46032342F8049BEA
:109EF00006314046FFF78EFF044648B93246082136
:109F0000304600F0CAFD0446204603B0BDE8F083A9
:109F10000C280CD0052800D12C460821304600F032
:109F200093FD002818BF0324002DD2D1ECE70125B2
:109F3000F3E7072814BF04460C24E5E743F20204C4
:109F4000E2E72DE9F341074600F0E6F84FF6FF732C
:109F5000984218D10024032526464FF001082B46CD
:109F6000224631463846FFF753FF042821D00828FF
:109F700025D00B281ED115F002030FD196B9ACB92C
:109F800002B0BDE8F0816A46082100F0F7FC002825
:109F9000E0D1019B9C881D689E1DDEE701254FF0E6
:109FA0000008DCE703251C461E46F8E70325344677
:109FB000F5E71120B8F1000F08BF0B20E0E7002003
:109FC000F8E71FB50DF10703039300F0A5F802AA07
:109FD000012100F0D3FC20B9039B187805B05DF88F
:109FE00004FB0020FAE7000070B505460A48FFF7B9
:109FF00013FF70B9084C43F2030621884FF6FF7235
:10A000002846FFF703FFB04204D1238801332380A1
:10A01000F3E7032070BD00BF6226002013B5074A96
:10A02000044692E803006B4683E8030000221946C9
:10A03000204600F015FB02B010BD00BF40D3010068
:10A0400046DF7047421E00F10F0312F8010F10B9EE
:10A050009A42FAD170470120704708B570B171B1CA
:10A0600003780A78534013F0FE0F08D1062201311D
:10A07000013003F0E3F8B0FA80F0400908BD002099
:10A08000FCE72DE9F04700F101084F1C06460D469C
:10A0900000F1110901F1110A10223946404603F07E
:10A0A000CDF80446D0B94046FFF7CCFF18B138468A
:10A0B000FFF7C8FF044651464846FFF7CEFF737CC2
:10A0C00003F0FC03042B05D06B7C03F0FC03042B92
:10A0D00018BF044604F00100BDE8F0870024EAE759
:10A0E0007FB505460E4600F083FA02AA0DF106017F
:10A0F000072000F085FA10B94FF6FF7409E0BDF8AB
:10A100000640B442F1D003992846FFF7BAFF002871
:10A11000EBD0204604B070BD132810B5044602D918
:10A120004FF6FF7010BDFFF72DFB0028F8D00A2373
:10A130005C43014B185BF5E764260020132838B513
:10A1400005460C4602D943F2020038BDFFF71AFB60
:10A150000028F8D006480A2202FB0500D0F8023099
:10A160002360C388A380037AA3710020EDE700BFBA
:10A17000642600204FF6FF7398422DE9F041054612
:10A180000CD00C4F00244FF00A0808FB04F3A6B2D1
:10A19000DB5BAB4205D00134142CF6D14FF6FF76D1
:10A1A00004E03046FFF7EEFA0028F4D03046BDE870
:10A1B000F08100BF64260020038843B9421C00F1EF
:10A1C000090312F8010F10B99A42FAD17047012021
:10A1D000704710B50446FFF7EFFF58B122880B888F
:10A1E0009A4208D108220231A01C03F027F8B0FAE5
:10A1F00080F0400910BD0020FCE730B585B0044672
:10A2000000F0F6F902AA0DF10601072000F0F8F9B6
:10A2100010B94FF6FF700FE0039D204605F146018F
:10A22000FFF7D7FF30B905F12A012046FFF7D1FF2C
:10A230000028E7D0BDF8060005B030BD13289FBF49
:10A240000A235843014B1952704700BF642600206F
:10A2500038B50546FFF78EFF0446284600F0FEFBA2
:10A2600038B9132C05D80A235C43024B4FF6FF7212
:10A270001A5338BD6426002070B58CB014466A4667
:10A280000D4600F11003164613F8011D02F8011BDC
:10A290009842F9D10D22002104A802F09FFF2B78EB
:10A2A0008DF81F306B788DF81E303046AB788DF806
:10A2B0001D30FFF7C5FE9DF82F3023709DF82E301E
:10A2C00063709DF82D30A3700CB070BD1FB50346B0
:10A2D00008461A7802F0FE02042A1BD1DA78B3F895
:10A2E00001108DF806209A88ADF804109B79ADF81E
:10A2F0000C2003A902AA8DF80E30FFF7BDFF032240
:10A3000002A901A802F09AFFB0FA80F0400905B056
:10A310005DF804FB0020FAE730B50388102B93B0FA
:10A320004ED1041D0FCC08AD0FC50FCC0FC59DF845
:10A33000243094E8030003F0FE03062B85E80300B5
:10A3400009D000F055F99DF82430032B4FEA530251
:10A3500004D9022A3DD04FF6FF7310E002AA0DF196
:10A360000601072000F04CF90028F4D0039909A851
:10A370001131FFF772FE0028F0D0BDF80630BDF8AD
:10A38000204018480A226243811883529DF82A20EF
:10A3900009980A724FF6FF72C1F802009342BDF8A5
:10A3A0002800C8800CD0ADF80C3002A80023ADF80E
:10A3B0000A408DF8083000F04FFC02A8FFF702FCBD
:10A3C00013B030BD039909A80131FFF77FFF0028C2
:10A3D000D3D102AA0DF10601072000F011F90028DF
:10A3E000F0D1B8E764260020A5DF7047B5DF7047DD
:10A3F00013B5034680880C4688B91A883A2A48D093
:10A400000FD8102A2BD0112A3ED0A37A3BB1E18875
:10A410000020FFF7E9FF10B94FF48073638102B0A9
:10A4200010BD552AF1D1DB88C988A072172B38BF1F
:10A4300017238B4228BF0B462381FFF7D7FFE37A10
:10A44000002BE2D1E368002BDFD040F677220092A8
:10A450002289ADF80420694620469847D5E7DB7B82
:10A46000012B04BF0B88CB80C98823898B42CCD2B7
:10A470000020FFF7B9FF10B90123E372C5E71128E7
:10A48000C3D10123A372C0E7F723CB8017238B60CE
:10A49000BBE75B89CA88934228BF1346172BCA685B
:10A4A00038BF17230B814AB1C97A39B140F67721F9
:10A4B0000091ADF80430694620469047002363813F
:10A4C000A3E74FF6FF73438000F0DCB907B5002324
:10A4D000A1F58041A0F58040CDE9003389B26B46FB
:10A4E00080B202F08FF9002818BF052003B05DF894
:10A4F00004FB0000F0B5204E00238DB04FF6FF7036
:10A50000CDE90133337000F073FB4FF6FF7704465B
:10A51000BC4211D0A4F58045ADB201AA03A92846DA
:10A5200002F08AF90A2809D0284602F045F90828DD
:10A5300005460BD1012333700DB0F0BD204600F06D
:10A54000FBFA204600F054FB0446E1E7002DF3D06F
:10A55000182200210DEB020002F040FE07238DF8C7
:10A56000183006A80123ADF81C4008958DF824305A
:10A57000FFF7A7FFE0E700BF34270020F0B5FF2872
:10A5800087B00E4615461F462DD84B1EDBB2082B52
:10A5900029D8164AD35633B303AAFFF797FF18B149
:10A5A0000524204607B0F0BD01A903A802F0B2F8C7
:10A5B00004460028F4D1019BAE705E8802992E807B
:10A5C00027B9696003A802F0C9F8EAE73F8868681C
:10A5D000B600B74228BF37463A4602F0C9FDBE4230
:10A5E000F0D90C24DDE70724DBE700BF50D30100DE
:10A5F000024B0022C3E90022704700BF2C27002035
:10A6000070B5431EDBB2082B86B005460E461446D5
:10A6100020D8114AD356EBB1A0F580400F4A03A9C8
:10A6200080B202F0FCF810B1002006B070BD01A9A4
:10A6300003A802F06FF80028F6D1019BA5705A8894
:10A640009B88228003F58043029A626003A83380CE
:10A6500002F084F80120E8E750D301002C27002005
:10A6600070B5FF2886B00C46154636D889784A1E44
:10A67000D2B2082A31D81C4EB25672B3A0F580432C
:10A68000ADF80030A1F58043ADF802306368019366
:10A6900003AA23880293FFF719FF0528694603A838
:10A6A0000AD102F07DF80728044618D007D868B10F
:10A6B0000324204606B070BD02F076F8F3E70828C0
:10A6C0000FD00E2814BF03241124F2E7002DF0D080
:10A6D000294603A802F0BDF8EBE70724E9E7862442
:10A6E000E7E71124E5E700BF50D301004FF6FF7004
:10A6F00000F00ABAFF2808B505D800F00BFAFFF7FA
:10A70000F9FE002008BD0720FCE700F029BA00F0A0
:10A7100055BA00F06DBA00000A68084B70B50C25F8
:10A72000032A01D9002006E005FB02F4E65A86421E
:10A7300002D10A60181970BD0132F1E748270020E4
:10A7400037B500230D460446019301A9FFF7E4FF46
:10A7500038B18378AB4206D1837A9B0703D1436833
:10A760000BB903B030BD019B0133019301A9204611
:10A77000ECE710B5044600F0EBFA204600F0FAFFD3
:10A780002046FFF78DFB2046BDE81040FFF736BAA4
:10A7900070B50E4E04460025237AAB420DD84FF615
:10A7A000FF732380A370002363604FF47F432381F2
:10A7B000A37A23F00303A37270BD617A2944C9B25E
:10A7C000304600F07EFB0135E6E700BF3827002069
:10A7D00013B50023CDE90033417A83788DF8023038
:10A7E0000446264800F054FB60B3237AA2788DF823
:10A7F000022003EB83039B00ADF80030531E019051
:10A80000072B08D8DFE803F0160707070716041818
:10A810001423ADF800302246694632F8040BFFF7E6
:10A820001FFF112815D00BD870B1072818BF0320BF
:10A8300002B010BD0123ECE7838809339B08E8E7E9
:10A84000862811D00320F3E7A37A23F00303A37231
:10A85000EEE7A37A23F0030343F00203A372084B4D
:10A8600001221A700020E3E7A37A23F0030343F0E8
:10A870000103A372024B01221A70D9E73827002086
:10A88000352700202DE9F0473A4EC16886B00546CD
:10A89000324600233746506881421BD10C2202FB0E
:10A8A00003702B78DFF8D080092B1AD0132B55D0EA
:10A8B000082B55D16C7A002C52D1002852D0FFF7CA
:10A8C00067FF2846FFF755FF98F800309BB906B0A0
:10A8D000BDE8F0870133042B02F10C02DBD100202C
:10A8E000DFE76C7A002C3BD100283BD0827A4460B1
:10A8F00042F002028272002588F800504FF00C09E5
:10A900004FF0010A09FB05739B7A9907C3F34002D4
:10A9100001D4DB0728D588F800A002B924B330465B
:10A92000FFF756FF00B34FF6FF73ADF802300C236C
:10A930006B438628FB5AADF8043017BF0723062364
:10A940008DF80030029018BF002368460CBF8DF8C8
:10A9500000308DF80C30FFF70CFFB8E70124B0E7AA
:10A960000024AEE70446ACE70135042D06F10C06E1
:10A97000C8D1ACE748270020352700200023FFF787
:10A98000FDBD00002DE9F04180460E4614461F46ED
:10A99000002B4FD0CB1F012B4FD8531E032B4CD86D
:10A9A000FFF7CEFE054610BBFF214FF6FF70FFF705
:10A9B000C7FE0546C8B1A0F8008086706B7AFF2BF1
:10A9C0001AD12048214600F094FAFF2868722ED14F
:10A9D0004FF6FF732B8000236B604FF47F432B8176
:10A9E000AB7AA87023F00303AB72112023E0037A43
:10A9F000A342E3D00F201EE04FF00008697A11480F
:10AA00002C7200F045FAD0B104EB84042401033425
:10AA1000C4F38D04BE7078603C80B8F1000F04D0A0
:10AA2000082E02D1A400063C8480002003E04FF0F1
:10AA30000108E3E70E20BDE8F0810720FBE70320D3
:10AA4000F9E700BF3827002008B5FFF779FE18B1F5
:10AA5000FFF79EFE002008BD0520FCE713B500238C
:10AA60000446019301A9FFF757FE30B92046FFF7CE
:10AA700041FE50B1072807D107E081782046FFF753
:10AA8000E3FF20B1052802D0032002B010BD019BD6
:10AA90000133019301A92046E5E7CB1F012B70B5D7
:10AAA00006460C46154601D9072070BD1046FFF733
:10AAB0002CFE0028F8D021463046FFF741FE28B191
:10AAC00084700580BDE87040FFF782BE0520ECE78A
:10AAD00010B54FF6FF7304469C4208460AD14FF466
:10AAE000807101F05DFF84B2B4F5807F09D14FF62B
:10AAF000FF7406E0FF2CFAD8214601F030FF002851
:10AB0000F5D1204610BD00000149FFF7E1BF00BFAD
:10AB1000782700204FF6FF73984210B5044606D000
:10AB20000449FFF7D5FF231A5842584110BD0020B1
:10AB3000FCE700BF98270020FF2810B5044609D87D
:10AB40000146054801F019FF21460448BDE81040C0
:10AB500001F013BF10BD00BF782700209827002008
:10AB6000FF28014602D8024801F011BF00207047BB
:10AB700078270020FF28014602D8024801F007BFCD
:10AB800000207047982700204FF6FF73984270B559
:10AB900018BF441C0E4614BFA4B20024A5B2FF2D5A
:10ABA00002D94FF6FF7506E02146304601F0EFFE70
:10ABB00001340028F2D0284670BD000070B50B4962
:10ABC0000A4EFFF7E1FF4FF6FF750446AC4201D194
:10ABD000204670BD2046FFF7CDFF0028F8D0204664
:10ABE0003146FFF7D1FF0446F0E700BF7827002089
:10ABF0000149FFF7C9BF00BF98270020F8B5074EED
:10AC0000074F054600243B78A34200DCF8BD56F808
:10AC1000043B284698470134F5E700BFC0270020D1
:10AC2000CF270020074B1B7810B504464BB1FFF728
:10AC300073FB204600F0BEFD2046BDE81040FFF744
:10AC40004BB810BDCE27002008B1FFF7D7BF704723
:10AC5000FFF7D4BFFFF7D2BFFFF7D0BF2DE9F04F0A
:10AC600087B0814601932E4B1B7888461646002BF1
:10AC700053D04FF6FF70FFF74AFD0423ADF80A30BA
:10AC800003AB0025059304AA0DF10A03062104462F
:10AC900003950495FFF772FC07283AD04FF6FF772B
:10ACA000BB464FF0FF3AF0B1052825D04FF6FF73B1
:10ACB0009C4230D1A3452AD0A7420CBF05200020DA
:10ACC000B9F1000F01D0A9F800B0B8F1000F01D020
:10ACD000C8F8005006B13780019B0BB1C3F800A043
:10ACE00007B0BDE8F08F039BAB4224BFA3461D46CF
:10ACF00053453CBF27469A462046FFF708FD0DF115
:10AD00000A0304AA06210446FFF738FCCBE7052016
:10AD1000D6E70520E4E70320E2E70820E0E700BFEC
:10AD2000CE27002008B50023064907481A46FFF73A
:10AD300095FF28B1431F58425841044B187008BD75
:10AD40000120FAE7B8270020CC270020D0270020D8
:10AD5000F0B5044687B08088FFF70CFA237860804E
:10AD6000083B032B20D8DFE803F002253569637A1E
:10AD70005BB9424A116851B1E068814207D1136062
:10AD80003F4AA1881180E3600EE0012B0CD13D4BBE
:10AD90001B784BB13A4BA2881B889A4204D1237A84
:10ADA000062B01D1FFF7BEFF204607B0BDE8F040FB
:10ADB000FFF724BF637A002BF6D1304A11680029CF
:10ADC000F2D0E0688142EFD12F4913600A68013A5E
:10ADD0000A60D8E72D4F3B786BB90125294B1B78CA
:10ADE00033B1274BA2881B889A4201D1FFF79AFF03
:10ADF000002D41D0D8E74FF6FF70FFF788FC4FF6E3
:10AE0000FF7398420546E8D1FFF783FCA842064647
:10AE1000E3D100251822294668463D7002F0DEF98C
:10AE20000C2320468DF80030ADF80460ADF80260C8
:10AE3000FFF7E4FE6846FFF7E1FECFE7134B1A7811
:10AE4000002AB1D0002118226846197002F0C6F914
:10AE50000D238DF800304FF6FF73ADF80430ADF8D8
:10AE60000230A36802932046237B8DF80C30FFF755
:10AE7000C5FE6846FFF7C2FE07B0F0BDD42700202C
:10AE8000CC270020D0270020B8270020BC27002096
:10AE900038B50D46044608B9002038BD0368002BBC
:10AEA000FAD040680028F7D0FF29F5D0BFF35F8FB4
:10AEB00001F06DFD0028EFD0E368206803FB05007A
:10AEC000EBE738B50D46044690B1036883B140689E
:10AED00070B1FF290CD0BFF35F8F01F058FD38B17E
:10AEE0006068BFF35F8F2946BDE8384001F045BD7B
:10AEF00038BD2DE9F0418846064618B9FF242046A2
:10AF0000BDE8F0810368002BF8D04368002BF5D032
:10AF10000027FF24B368FDB29D42EFD27068294636
:10AF200001F01DFDBFF35F8F40B9FF2C08BF2C4619
:10AF30002D1B01354545E2D00137EBE7FF2C07D14A
:10AF4000FF24F9E721463046FFF7BBFF0134E4B2A6
:10AF5000AC42F7D3F4E77EDF70477FDF704786DFD0
:10AF6000704710B504464088FFF7D6F8A080204609
:10AF7000BDE8104000F0CEBB10B586B004461822E4
:10AF80000021684602F02AF9042368468DF8003053
:10AF9000ADF80240FFF7E5FF06B010BD30B587B051
:10AFA00005460C4618220021684602F017F90723CF
:10AFB00068468DF80030ADF802500294FFF7D1FFDB
:10AFC00007B030BDF0B587B004460F4616460021E5
:10AFD000182268461D4602F001F903238DF800305F
:10AFE000094BADF8024019788DF808700022204610
:10AFF000ADF80A608DF80C50FEF700FC6846FFF7CC
:10B00000B0FF07B0F0BD00BFCB2400207FB5022306
:10B010008DF800300388ADF8023043798DF80910BF
:10B0200013F0040F14BF0123022368468DF8083083
:10B03000FFF797FF07B05DF804FB000030B5144B35
:10B0400087B00C46012219780546FEF7D7FB114B55
:10B05000221E1978284618BF0122FEF7CFFB631E77
:10B060005A425A410C4B28461978FEF7C7FB182262
:10B070000021684602F0B2F8012368468DF80030DE
:10B08000ADF802508DF80840FFF76BFF07B030BDF8
:10B09000CB240020CD240020CC2400202DE9F04139
:10B0A000184B0E46197804461746FEF78FFB30B34F
:10B0B000154B20461978FEF789FB0146E0B1134B8A
:10B0C00020461978FEF782FBC0F1020504F5807076
:10B0D000072180B2FFF7B8FCEDB2014620B1052888
:10B0E00002D02046FFF75AFF3B463246294620460B
:10B0F000BDE8F041FFF766BF3B463246F7E7BDE8E3
:10B10000F08100BFCB240020CD240020CC240020DF
:10B110002DE9F0418AB00E4617460446FEF73CFB87
:10B1200020220546002102A802F058F8012D08D17E
:10B13000364B002219782046FEF760FB36B9852190
:10B1400014E0002D5BD143F2020053E02046FEF7ED
:10B15000E3FF4FF6FF7398420ED100213378DB07EF
:10B1600021D42B4B05970993012D4BD102AB3246CD
:10B170002046FFF7F2FE3DE0012DEED1DFF88C8096
:10B18000204698F80010FEF721FB0028E5D1204664
:10B19000FFF7F2FE98F800102046FEF717FB002894
:10B1A000DBD18521DAE78529DED004F580706B4696
:10B1B0000122072180B2FFF7E5FB11281AD0E0B980
:10B1C00001465022019802F009F801990B462046E9
:10B1D00003F8345B029301F1180306934B1C0793A9
:10B1E00011310B4B05970993FEF7A8FF0146002884
:10B1F000BAD008200AB0BDE8F0810320FAE7002E9B
:10B20000A4D1852102AB0022B2E700BFCA240020EE
:10B21000D827002038B505460C46FEF7BDFA0128B0
:10B2200008D154B121462846FFF795FE042808BFEF
:10B23000112038BD43F20200FBE72046F9E7000089
:10B240002DE9F0470388113B88B00446092B5ED8EE
:10B25000DFE813F00A005D00190039005D005D00B1
:10B260005D005D008A001E01037A80883D2B41F25B
:10B270003D014FF0000218BF4FF4885108B0BDE8FF
:10B28000F047FFF70BBF8088FEF786FA012808D148
:10B29000217AA08801F00101C1F10201C9B2FFF7D2
:10B2A000CDFE34F8045F1822002102A801F096FFB9
:10B2B000043405238DF80830ADF80A50049402A830
:10B2C000FFF74FFE23E000F110063046FEF795FF32
:10B2D0004FF6FF7398420546A0881BD1FEF71CFF6E
:10B2E0000546A0880021FFF7A9FE4FF6FF739D4297
:10B2F00014D1002500232946A0881A46FFF72FFE07
:10B300000828014603D010B3A088FFF747FE08B015
:10B31000BDE8F0872946FEF791FFE2E702AA072180
:10B320002846FFF72BFB0028E3D1A37E039DD90716
:10B33000DFD595F84430DA0701D53435DAE7314600
:10B3400005F14600FEF745FF0028F6D1D1E7A37EC0
:10B35000DB07DCD5002DDAD1A0882B4641F20602AE
:10B360002946FFF72FFED2E7067A8588002E40F0A7
:10B3700089805A4B071D197832462846FEF73EFA57
:10B38000617A11F0040105D1384608B0BDE8F047F4
:10B39000FFF73CBE05F580791FFA89F96B4601225B
:10B3A00007214846FFF7EEFA804640B1014628469D
:10B3B000FFF7F4FD31463846FFF728FEA7E7284699
:10B3C000FEF7AAFE4FF6FF7398420446824639D133
:10B3D00001460198FEF784FE50450446064620D0FB
:10B3E000DFF8FCA001462846FEF728FF9AF8001077
:10B3F0002846FEF7EBF9064620BB2846FFF7BCFDC2
:10B400009AF800102846FEF7E1F901460028D2D04C
:10B41000072122464846FFF740FB0146A0B901211B
:10B42000C9E7FFF763F9B042044605D10421284675
:10B43000FFF7B4FD4146BEE701462846FEF7FEFE93
:10B440000126E5E74646E3E786280DD118220021CC
:10B4500002A801F0C3FE062302A88DF80830ADF85B
:10B460000A50FFF77EFDDAE72846FFF797FD002137
:10B470003846FFF7CBFD002E3FF449AF2046FEF7DC
:10B48000E7FE44E7427A314602F003022846F5E639
:10B49000144B80881978FEF799F9054600287FF447
:10B4A00036AFA088FEF77AF90146A08839B90123A2
:10B4B00041F2060208B0BDE8F047FFF783BD074B35
:10B4C0002A461978FEF79AF902238DF80830A388E6
:10B4D000ADF80A30ADF81050F1E600BFCB240020E3
:10B4E000CA240020CD240020FFF7AEBB70B511297F
:10B4F00086B006460C46154603D81A4BCB40DB07F0
:10B5000023D418220021684601F068FE3046ADF8C9
:10B510000260FEF701FE0D2CADF8040019D10323E3
:10B520008DF800309DB12B7803F00103C3F10203C5
:10B53000DBB28DF8083000238DF80C3041F2011396
:10B54000ADF80A306846FFF7CFFF06B070BD0223A2
:10B55000EFE707238DF80030002302948DF80C30BC
:10B56000F0E700BF010102002DE9F0411D4B8AB058
:10B570000027CDE905771B68049304AD044688468F
:10B5800095E8070001AE86E80700052320468DF800
:10B590001030ADF81240FEF7BFFDADF8140028469C
:10B5A000CDE90686FFF7A0FF0F4B01991A682046E8
:10B5B000FFF7AEFDA0F111035A425A410B4B05466D
:10B5C00019782046FEF71AF9094B3A4619782046B1
:10B5D000FEF714F9019A29462046FFF787FF0AB0C3
:10B5E000BDE8F0812428002018280020D124002064
:10B5F000D02400200021FFF7B7BF00002DE9F0475D
:10B6000005468AB0174698468A4631BB304BCDE98D
:10B6100005111B68049304AE96E807000DF10409B8
:10B6200089E80700052428468DF81040ADF812502F
:10B63000FEF772FDADF814003046CDE906A9FFF71C
:10B6400053FF244BDDF804901B7843B99DF80D306F
:10B650002BB920460AB0BDE8F0874FF000093A4602
:10B6600049462846FFF7D6FDA0F111035A425A4138
:10B67000194B064619782846FEF7C0F8112E11D846
:10B680000124B44042F601131C401ED1112E0FD0EC
:10B690000324B8F1000FDCD04A4631462846FFF7B4
:10B6A00025FFD6E743F20204A64218BF0324F0E7C1
:10B6B0000A4B524619782846FEF7A0F8084B3A463E
:10B6C00019782846FEF79AF8E3E73446E1E700BF29
:10B6D0002428002021280020D0240020CF2400206E
:10B6E000CE24002070B5094B19780446FEF76EF899
:10B6F000074B054619782046FEF768F82A460146AA
:10B7000001232046BDE87040FFF778BFCE2400201B
:10B71000CF24002010B50378052B044606D0122B49
:10B720000AD02046BDE81040FFF7DEBE81684088A1
:10B73000BDE81040FFF718BF0C4B1B689BB10C4BCA
:10B74000017A1B7803F0010291420CD8417AC3F3CD
:10B750004003994294BF0021012160880123002207
:10B76000FFF74CFFDDE70121F7E700BF24280020A9
:10B770001C28002008B503780B2B0FD8072B0FD9F6
:10B78000084B094918780022FEF756F8074B08497C
:10B7900018780022BDE80840FEF74EB8132BEFD012
:10B7A00008BD00BFD1240020F5B50100D024002041
:10B7B000E5B6010008B5FFF743FD074B07491878C8
:10B7C0000022FEF739F8064B064918780022BDE83A
:10B7D0000840FEF731B800BFD1240020F5B50100C4
:10B7E000D0240020E5B60100AEDF7047B0DF70471F
:10B7F0003CDF70473DDF70477FB5044638B10388B2
:10B80000502B5BD005D8102B19D0112B1BD004B0B6
:10B8100070BD512B1FD0532BF9D12F4DC288EB880F
:10B820009A42F4D16B7E002BF1D000F019F9002878
:10B83000EDD06B69022004B0BDE8704018478288E3
:10B84000254B9A80E3E7244B81889A889142DED188
:10B850004FF6FF72F5E7204D8288AB889A42D6D129
:10B860008679022ED3D10289EB889A42CFD1837B8D
:10B87000043B022BCBD910220021684601F0AEFC1C
:10B880002B7E8DF80060A3B19DF8063043F00103D4
:10B890008DF80630A8886946FFF7A8FF1128F9D06F
:10B8A000BDF80430002BB2D104F1080000F086F896
:10B8B000ADE740F2FD13ADF80430EBE7064DC2886A
:10B8C0006B899A42A3D1038A022BA0D11230FDF7D3
:10B8D000F6FF28769BE700BF282800207FB50023CD
:10B8E000CDF80B308DF80F300323ADF80230202354
:10B8F0008DF804300D4B8DF80500DA88ADF808207E
:10B9000002228DF80A206A448DF806100492988865
:10B9100001AA02A90592FFF767FF20B9BDF802301E
:10B92000032B18BF0C2007B05DF804FB282800206B
:10B9300010B54FF0FF310020FFF75CFF044658B907
:10B94000B121FFF755FF044630B9044B01205B6974
:10B950009847022001F066FA204610BD28280020F2
:10B9600014490B6810B51BB34B680BB308319847EB
:10B9700008281DD0104C236858B998760121022060
:10B98000FFF7ACFFA0B123685B690320BDE810405E
:10B99000184700229A7606210220FFF79FFF18B170
:10B9A000236803205B699847236802205B69EDE701
:10B9B00010BD00BF642800206028002070B5054637
:10B9C000007B244C01280ED0022824D00221287BA1
:10B9D000FFF784FF18B1236803205B699847236849
:10B9E00002205B6909E023689E7E4EB10621FFF7C5
:10B9F00075FF50B323685B690320BDE870401847AA
:10BA000058760146FFF76AFFF8B1236811285E7681
:10BA10001CD00421DBE76A7B531E132B18D80E4E73
:10BA200005F10E01301D01F0A3FB6B7BB3612368B0
:10BA30009B7E002BEDD10949304651F8083B9847D1
:10BA40000028E6D1236801229A7670BD0621BEE760
:10BA50000521BCE76028002044280020642800203D
:10BA600008B5044B1B6800205B699847BDE8084097
:10BA7000FFF75EBF6028002038B5074C051E04F1B3
:10BA8000080318BF1C4623682BB11A6822605B6844
:10BA900028469847F7E738BD7828002020B9054B9D
:10BAA00001225A70FFF7E8BF012802D1014A9070C5
:10BAB000F8E770477028002020B9034B01225A7024
:10BAC000FFF7DABF704700BF7028002038B50B4C75
:10BAD000237883B90A486360A3602361E36000F0C0
:10BAE00059F8054601F0C0FA08B900F061F80123E1
:10BAF0002370284638BD8525FBE700BF702800204D
:10BB00009DBA010037B50B4C00230DF107008DF8ED
:10BB1000073000F03BF9E368013BE360E56815B9E5
:10BB200000F058F8A5709DF8070000F053F903B035
:10BB300030BD00BF70280020012813B508D00328AD
:10BB40001CD018B9114B0122C3F8802002B010BDDF
:10BB50000F4C00230DF107008DF8073000F016F9A7
:10BB600023780BB9FFF7B2FFE3689DF807000133B4
:10BB7000E3600123A37000F02DF9E7E700F018F867
:10BB800002B0BDE81040FFF7BDBF00BF00E100E01C
:10BB900070280020054A13792BB901211060937198
:10BBA0009180184670478520704700BF8428002088
:10BBB000074B1A68D2075FBFC02283F80023012217
:10BBC0001A604FF080430022C3F81825704700BF69
:10BBD00000E100E04FF080430122DA60D3F818243E
:10BBE000D203FBD470471FB50021039001AA44F291
:10BBF0000100CDE9011100F019F805B05DF804FB72
:10BC0000BFF34F8F00BF074BDB6803F4E0620549C9
:10BC1000054B1343CB60BFF34F8F00BF00BF00BF86
:10BC2000FCE700BF00ED00E00400FA0500B585B0B8
:10BC300003900291019272B600BFFFF7E1FF00BFCF
:10BC400005B05DF804FB0000094B5A789978013281
:10BC5000D2B2914208BF0022197891421FBF0270F0
:10BC60005A78182101FB023014BF043000207047BD
:10BC70008C28002073B5054600240DF107000E4600
:10BC80008DF8074000F082F80DF10600FFF7DCFFA9
:10BC900090B10670094B9DF8062045605A709DF8DA
:10BCA000070000F097F824B9054B4FF48012C3F851
:10BCB0000021204602B070BD0424F0E78C2800204B
:10BCC00000E100E02DE9F743DFF87C8098F80230CE
:10BCD00005460E461746ABB3A0B3042930D94369D5
:10BCE00083B3437C0024012B0DF107000CBF894670
:10BCF000A1468DF8074000F049F80DF10600FFF766
:10BD0000A3FFD8B101230370104B4560D3F804356D
:10BD1000C0E90497C0E902369DF8063088F8013082
:10BD20009DF8070000F056F824B9094B4FF4801233
:10BD3000C3F80021204603B0BDE8F0830424EFE7F8
:10BD40000724F7E70824F5E78C28002000100140BD
:10BD500000E100E0064A92783AB130B1426922B17E
:10BD6000002202740221FFF785BF0820704700BF40
:10BD70008C280020044B9B781BB103210020FFF787
:10BD800079BF0820704700BF8C28002070B5EFF302
:10BD9000108672B60C4A9468012384B993600B4BE9
:10BDA0000B4DD3F8801029401160C3F88050D3F8B0
:10BDB000841051604FF0FF32C3F884202346037093
:10BDC00006B962B670BD00BF9829002000E100E00E
:10BDD000FC06FFBD084B9A6810B55AB150B9EFF395
:10BDE000108172B6054A1C6814605C6854609860E3
:10BDF00001B962B610BD00BF9829002000E100E043
:10BE000070B5064E0546002456F8043B0BB1284693
:10BE100098470134042CF7D170BD00BFB029002031
:10BE20004388033300EB8303994209D382884FF69A
:10BE3000FF739A4206D00088B0FA80F0400970473C
:10BE40000220704701207047C21C92B240F2FD33BD
:10BE50009A4230B51ED8114B187838B91C895D89C3
:10BE60002C441444A4B2B4F5806F0AD3187D98B959
:10BE7000988BDC8B2044104480B2B0F5806F0BD2DD
:10BE800001200880142101FB0033002059890A4455
:10BE90005A8130BD0920FCE70720FAE7E429002099
:10BEA0000B4A0C495388142000FB0311CB6833B9AB
:10BEB0000420496810700122074800F01DBE0749A0
:10BEC0000523137002238B80012209680023F3E706
:10BED000C8290020E429002090240020202A0020E6
:10BEE00007B5002305490093054A0968054808235A
:10BEF00000F0D4FD03B05DF804FB00BF202A002051
:10BF000068D301009024002007B500230146009368
:10BF1000034A0448082300F0C1FD03B05DF804FBA8
:10BF200060D301009024002013B500230C46009339
:10BF30000146084A0848042300F0B0FD38B9074913
:10BF4000142202FB041101230B7402B010BD0E2059
:10BF5000FBE700BF5CD3010090240020E42900200F
:10BF600037B50A480A4B42689C88196853880325EC
:10BF7000033305709BB2002000909B0001EB84010D
:10BF8000044800F08BFD03B030BD00BFC82900207D
:10BF9000202A00209024002010B50146044800F01B
:10BFA00060FC1C220446002101F018F9204610BD57
:10BFB0000C2A002038B5144B14220D4602FB003326
:10BFC0005C682B6804F58051A3B15C88033403EBF3
:10BFD00084048C4215D22368013312D02046FFF727
:10BFE0001FFF012808D002280BD00028F1D12C60B7
:10BFF000012038BD0834ECE76388033304EB830485
:10C00000E7E70020F5E700BFE42900204368F7B523
:10C0100005460E46002B43D0234AD1688B423FD3BE
:10C02000126993423CD813F0030439D11F4A0189A5
:10C030001289914235D101689A68914231D11C49E7
:10C040004A68934203D902F5805293420DD38A691C
:10C0500093420CD902F58052934208D201233380D7
:10C06000B4FA84F0400903B0F0BD2346F7E70A2490
:10C07000F6E7019701A92046FFF79CFF30B901348C
:10C08000A4B2022C3480F4D10020ECE7019B2A6892
:10C0900099689142EED16B60044B1B892B81E2E7DA
:10C0A00000240027EDE700BF90240020C8290020CD
:10C0B000E42900202DE9F0471C461D4B1B7807465C
:10C0C000884616467BB382B37CB3DFF868904FF0A6
:10C0D000140AA588012D01D90A2022E00AFB05F3E4
:10C0E00019F803302BB921462846FFF763FF18B92A
:10C0F00020600135A580ECE723681FB199883A8854
:10C100009142F0D1B8F1000F04D01988B8F800209E
:10C110009142E8D19A68C6E90023074B1B89338115
:10C120000020BDE8F0870220FBE70520F9E700BF0B
:10C13000C0290020E4290020C829002008B5074BA9
:10C140005888191DFFF736FF18B1BDE80840FFF702
:10C1500007BFBDE80840FFF7A3BE00BFC829002005
:10C160002DE9F0479D4FDFF8788288B006463B689E
:10C1700023B99C48414600F0AEFB38603D68297801
:10C180004B1E052B07D8DFE813F01F007600760062
:10C190000401040157010F241422002103A801F017
:10C1A0001DF841F61D539C4208BF00243B680494CF
:10C1B0001A78023A042A00F2F581DFE812F0D6017B
:10C1C000E20104020C02130226B1874B00225A60DE
:10C1D0000124E1E72B79032B1CD8DFE803F01402DC
:10C1E0002934824A1378022B19D0137D022B4FF089
:10C1F000010316D114214B43D1180020D0544868B4
:10C20000FFF782FE03E001232B71FFF769FE002890
:10C2100000F0BA80744B00225A600E24BCE7002361
:10C22000E8E7714A13700023536041F61D54B3E7E9
:10C230006F497048002302222B718A80096801220D
:10C2400000F05AFCE3E76A4C00262E712068FFF7E5
:10C250005BFE694B65495B88256814225343CA1805
:10C26000CE54D2F804C05560A58815810222C4F8C6
:10C2700000C0A280CBE7B5F814A0AA7DDFF86C91CE
:10C280009EB1022AEB8806D9142101FB0A91DA1C1F
:10C29000088902440A81142202FB0A92C3F57F43F3
:10C2A0005189FD330B44538192E7142303FB0A9316
:10C2B00018895C6804EB8004062A68D8DFE802F07D
:10C2C000274D35431D59040041F61D54AA7DEB88C6
:10C2D000022A06D9142101FB0A91DA1C08890244BA
:10C2E0000A81142202FB0A99C3F57F43B9F80A2098
:10C2F000FD331344A9F80A304EE740484049002373
:10C300004360AB690360FFF781FE002859D0022328
:10C31000AB75002300930423EA182146354800F04A
:10C32000BDFB002830D00E24D0E72B69002B14BFB2
:10C3300003230123AB750023009305F10C020423B2
:10C3400004F10801EAE70123AB750022EB880092B3
:10C350002A699B0004F10C01E0E703290CBF0523C7
:10C360000623AB7500230093042305F10802E118AE
:10C37000D4E70623AB75224B1988204B5868FFF78A
:10C38000D3FD04460028A1D108B0BDE8F0870F24F2
:10C390009CE7002E7FF41CAF2B79012B32D0022BAF
:10C3A0003FF443AF002B7FF4F6AE02232B710DF167
:10C3B0000A01EB68039303A8CDE90466FFF726FEA4
:10C3C00008B90A24E8E60498BDF80A108388EB80CF
:10C3D00003882B81FFF7A8FD044626E0E029002012
:10C3E000D82900200C2A0020C0290020E4290020A0
:10C3F000202A002090240020C8290020A429002001
:10C40000282A0020DFF8E49103AA4B463146A81DF4
:10C41000FFF750FE044660B9B9F804100498FFF71E
:10C4200083FD04460A2C3FF400AF002C7FF4B4AE29
:10C43000AAE7C9E90066F5E7002E7FF4C9AE6C4BA8
:10C44000197B1A78B1B11E731A78013A062A3FF6A1
:10C45000A2AE01A151F822F0FFC4010025C50100E0
:10C4600043C5010049C5010097C101004FC5010046
:10C4700061C50100072AE7D801A151F822F000BFE9
:10C48000A1C4010049C4010049C40100C7C401009E
:10C49000DBC40100FBC40100FBC40100C3C40100F4
:10C4A0001A89544901321A8100225A801A730A7873
:10C4B000B2FA82F252099A720A7DB2FA82F25209F3
:10C4C000DA72012207E04C4958688A8840880332B2
:10C4D00002448A8002221A70B6E75C88454A4649BF
:10C4E000142505FB04220868546850608888108170
:10C4F00002228A800C600622EDE70722EBE79A7A97
:10C5000032B9DA7A8AB900221A705A805A608CE6F7
:10C51000384900229A72CA68002AF2D1097C00299F
:10C52000EFD05A80FFF70AFE56E70022DA72314A4E
:10C53000116A0029E7D192F82420002AE3D00122D1
:10C54000EFE7FFF70DFD47E7FFF7AAFC44E75A883E
:10C55000284B142101FB02335868FFF7D5FC3BE759
:10C5600000225A60FFF7BCFC36E701228DF80C2050
:10C570001A89ADF818209A88DB68ADF81A2005935F
:10C5800010E002228DF80C201A89ADF818209A8844
:10C59000ADF81A20DA689B7D05929A1F53425341E9
:10C5A0008DF81C3003A8FFF72BFC002641461348EA
:10C5B0003E6000F0BBF91248012100F063FA002848
:10C5C0007FF4D5ADE0E603228DF80C20DA88ADF8D3
:10C5D00018201A89D0E704228DF80C20DB88ADF8EA
:10C5E0001830DFE705238DF80C30DBE72C2A00201C
:10C5F000C8290020E4290020202A00200C2A00203D
:10C600001C2A00204068FFF7ABBD000008B50548B4
:10C61000012100F01FFA18B9BDE80840FFF7A0BDDE
:10C6200008BD00BF1C2A00202DE9F3419846344B79
:10C630001B7806460D46002B59D0002959D0098891
:10C640004FF6FF73994256D06B88002B53D06B681E
:10C650009B0752D14AB92F890DF102013846FFF7E5
:10C66000F3FB30B102B0BDE8F08113885788ADF814
:10C67000023001A8FFF790FCBDF80220044648B93B
:10C68000204B142101FB023358890338C01B588109
:10C690000820E7E780F80080002383756B6803615A
:10C6A00082820121184800F0E1F92B882381B8F13A
:10C6B000030F6B88A38004BF0423A3754FF000050C
:10C6C00008BF3368E06008BFA3611048E780658158
:10C6D00001A900F0F0F836B1E36833600C4B7560E7
:10C6E0001B89B5723381FFF791FF0020BAE7022062
:10C6F000B8E70520B6E70420B4E70320B2E700BF9F
:10C70000C0290020E4290020DC2900200C2A002078
:10C71000C829002073B50D460446C8B1C1B10DF15A
:10C720000601FFF773FCA8B1BDF806300A48666839
:10C73000142202FB030001210C3000F097F963681A
:10C740002E600C336B600123A372002002B070BD19
:10C750000520FBE70A20F9E7E429002013B5044689
:10C76000A8B10DF10601FFF751FC90B1BDF806200C
:10C770000A4B142101FB0233DA6862B1A27A52B18A
:10C78000DA680020013ADA60A07202B010BD05201C
:10C79000FBE70A20F9E70620F7E700BFE4290020BD
:10C7A00002230022FFF740BF18B103230022FFF746
:10C7B0003BBF052070470000104B1B7813B50446A3
:10C7C000ABB14FF6FF73984213D001A8FFF7E4FB1B
:10C7D00088B10523037001230371C48001A90848AF
:10C7E00000F069F8FFF712FF002002B010BD022030
:10C7F000FBE70420F9E70820F7E700BFC029002085
:10C800000C2A002007B5ADF80600ADF804100DF1B4
:10C81000060001A9FFF74EFC03B05DF804FB07B565
:10C820001346ADF806000A4600200DF10601FFF799
:10C8300041FC03B05DF804FB07B51346ADF80600F4
:10C840000A460DF106000021FFF734FC03B05DF845
:10C8500004FB20B119B103680B600020704705206C
:10C86000704737B550E8013F9DB2C489254484899B
:10C87000A54228BF2D1B0489A54202BFBFF32F8FFD
:10C88000002207E0C5EA030540E80154002CE9D185
:10C890004FF001028DF803200193019A0A609DF880
:10C8A000031001F0FF0321B1006810FA82F003B019
:10C8B00030BD1846FBE70A884B889A4209D150E8F8
:10C8C000012FC2EA024240E80123002BF7D10120E8
:10C8D00070470020704737B550E8023F1FFAA3F5B4
:10C8E000C488A54202BFBFF32F8F00220DE0C48988
:10C8F00025448489A54228BF2D1BC3EA054540E88D
:10C900000254002CE8D14FF001028DF8032001936E
:10C91000019A0A609DF8031001F0FF0321B100683D
:10C9200000EB124003B030BD1846FBE70A884B8885
:10C930009A4209D150E8022FC2EA224240E802237B
:10C94000002BF7D1012070470020704701F01F0233
:10C950004B090121914000EB830000F063B84B09C3
:10C9600010B501F01F040121A14000EB830000F08D
:10C970004DF8E04000F0010010BD01F01F0301225E
:10C980009A404B0900EB8300D14300F057B84B09A4
:10C9900001F01F0150F82300C84000F0010070476B
:10C9A0002DE9F0474F1E7F0980460E4601370025CE
:10C9B00058F8254008EB850AE44394FAA4F4B4FA45
:10C9C00084F44FEA45194C44A64206D80135AF42DB
:10C9D000EED834462046BDE8F08721464046FFF7B2
:10C9E000BEFF0028F6D0DAF80040E44394FAA4F43D
:10C9F000B4FA84F4E7E710B5034653E8000F0A469B
:10CA000043E8002494F0000FF7D110BD10B50346A1
:10CA100053E8000F40EA010243E8002494F0000FBD
:10CA2000F6D110BD10B5034653E8002F42EA0100CD
:10CA300043E8000494F0000FF6D110BD10B5034692
:10CA400053E8002F02EA010043E8000494F0000FCD
:10CA5000F6D110BD10B5034653E8000F00EB0102FC
:10CA600043E8002494F0000FF6D110BD10B5034642
:10CA700053E8002F02EB010043E8000494F0000F9C
:10CA8000F6D110BD10B5034653E8002FA2EB01000C
:10CA900043E8000494F0000FF6D110BD2DE9F043F7
:10CAA00008B302B3D0F800E0BEF1000F1ED0FBB116
:10CAB0004768D7F80490B3FBF9F709FB1737BFB9FC
:10CAC00042EA010C1CF0030F14D1C768B94211D31C
:10CAD00005694C1E1C44AC420CD8DEF80C40A44640
:10CAE000BDE8F04360470E20BDE8F0830820FBE777
:10CAF0000920F9E71020F7E7F0B5D8B1D0F800C069
:10CB0000BCF1000F18D0CAB14768D7F800E00EF1A9
:10CB1000FF370F4214D1C768B94211D305694C1EC3
:10CB20000EFB0244AC420BD8DCF81040A446BDE832
:10CB3000F04060470E20F0BD0820FCE70920FAE72E
:10CB40001020F8E729DF704728DF704770B50368C9
:10CB50009E6886B004460D466EB1142200216846D8
:10CB600000F03CFBA3680593237901952BB1012BC1
:10CB70000DD06846B04706B070BD01238DF8003077
:10CB800023690293E368039363690493F1E7022343
:10CB90008DF80030E3681B030293F5E7034B187A26
:10CBA0000122B0FA80F05A7440097047442A0020EC
:10CBB00038B5234C234D237A3BB923492348FFF74B
:10CBC0008AFE286008B9606038BD022323722B6892
:10CBD0001A7972B1012A24D028680321FFF7B6FF21
:10CBE00000232372636018491848BDE83840FFF7F6
:10CBF0009DBED3E90520121AB2F5805FD3E9031375
:10CC000028BF4FF480529208012A014438BF012204
:10CC10001844FFF797FF50B11128DDD1012323728B
:10CC2000D2E7D3E903031844FFF78EFFF3E7237C31
:10CC3000002BC9D1BDE83840022000F009B800BF80
:10CC4000442A00205C2A0020582A0020342A002090
:10CC500038B5234C237A002B41D0022B09D103286D
:10CC600030D0204B00221B68E2601A793AB1012AC9
:10CC700022D0637C7BBBBDE83840FFF799BFD3E986
:10CC800005128D1AB5F5805F94BF521902F58052D6
:10CC90009A619142EDD102284FF0000308BF194676
:10CCA0002372104B18BF0D211868FFF74FFF0E4974
:10CCB0000E48FFF73BFEDCE71A6901321A615B6937
:10CCC0009A42E7E7E3680133082B01D8E360D0E735
:10CCD0000023E360DFE7BDE8384000F0B5B938BDB8
:10CCE000442A00205C2A0020582A0020342A0020F0
:10CCF000831E012B01D8FFF7ABBF704700F0FD0387
:10CD0000012B08D1044B00225A74421E504250415C
:10CD10001874FFF74DBF7047442A0020BFF34F8FB0
:10CD200000BF074BDB6803F4E0620549054B134382
:10CD3000CB60BFF34F8F00BF00BF00BFFCE700BF59
:10CD400000ED00E00400FA0582B00190019B5B68F1
:10CD5000184602B0704700B585B0019001210198D6
:10CD6000FFF749FE0390BFF35F8F00BF039B002BCB
:10CD70000CBF01230023DBB2184605B05DF804FBAD
:10CD800082B00190BFF35F8F00BF019B00221A6049
:10CD900000BF02B0704733DF704700BF18464FF046
:10CDA00080430122C3F80025BFF34F8F00BF20BF8F
:10CDB00000BFFCE700B583B00FE01848FFF7C4FFE1
:10CDC0000090009B1B68164A12781046984703464D
:10CDD000002B1ED0114800F05FF81048FFF7B4FF99
:10CDE0000346002BE9D10E4B1B78032B03D00C4BD1
:10CDF0001B78022B02D1FFF791FF0BE000F034F912
:10CE00000346002B02D0FFF7C6FF0190FFF7C7FFD4
:10CE100000E000BF03B05DF804FB00BF6C2A0020F7
:10CE2000602A002000B583B003468DF80730134810
:10CE3000FFF791FF034683F00103DBB2002B18D10B
:10CE40009DF80730042B0ED00D4B1B78002B03D020
:10CE50000A48FFF795FF0DE00A4A9DF80730137066
:10CE6000074B01221A70FFF7A5FF0448FFF788FF60
:10CE700000E000BF03B05DF804FB00BF642A00209F
:10CE8000682A0020602A0020D1E90032934208BFBE
:10CE90000023016043607047436843B102689168B2
:10CEA00052680B449342436004BF002343607047C1
:10CEB00010DF704711DF704713B504460949684613
:10CEC000FFF7E2FF019808B902B010BDD0E90031C8
:10CED0002046984718B16846FFF7DEFFF2E71120B9
:10CEE000F2E700BF74D3010013B504460749684652
:10CEF000FFF7CAFF019B0BB902B010BD2046D3E972
:10CF0000002190476846FFF7C7FFF3E780D3010091
:10CF1000064B9A6822B11A6822F480021A607047A0
:10CF2000034B4FF48002C3F88020704798290020FB
:10CF300000E100E00B4991F81623EC23520913415C
:10CF4000DB0706D5084B9A683AB94FF480030B60AB
:10CF5000704742F20200FEF746BE1A6842F48002B1
:10CF60001A60704700E100E098290020F7B5194FDA
:10CF70003C7864BB184E012520463570FFF79CFFB6
:10CF8000112821D02046FFF7AFFF144B8DF8034046
:10CF9000186801900DF10300FEF7F8FE104901A892
:10CFA000FFF786FF0446B0FA80F0400938709DF81C
:10CFB0000300FEF70FFF3CB90A4B34701C70FFF7FB
:10CFC000B9FF2846FFF790FF204603B0F0BD0824C4
:10CFD000FAE700BF752A0020742A002070D30100F0
:10CFE0002DBC0100762A0020F7B5154F3B781BB306
:10CFF000144E01203070FFF75FFF11284FF000053D
:10D000001CD00220FFF770FF0DF107008DF80750CC
:10D01000FEF7BCFEFFF74EFF04469DF807003D708B
:10D02000FEF7D8FE2CB903203470FFF771FFFFF72D
:10D030005BFF204603B0F0BD0824FAE72C46F8E772
:10D04000752A0020742A0020054B1B7833B1054B4C
:10D050001B780BB1FFF7C8BFFFF788BF08207047E8
:10D06000742A0020752A0020014B1878704700BFF1
:10D07000752A002061DF704700BF184682B001901A
:10D08000019B5B68184602B07047000000B5ADF523
:10D09000077D86ABA3F505731860224B1B7883F0E0
:10D0A0000103DBB2002B38D14FF4FA73ADF806322E
:10D0B0000DF2062202AB11461846FFF7DBFF859002
:10D0C000859B002B03D0859B052B22D126E002AB4C
:10D0D00084937FAB14491846FFF7D6FE11E07FAB6F
:10D0E0001846FFF7CBFF8390839B1B688293839B3B
:10D0F0005A68829B1146849898477FAB1846FFF781
:10D10000CBFE7FAB1846FFF7B9FF0346002BE6D1F5
:10D11000CAE78598FEF767FD00E000BF0DF5077DC3
:10D120005DF804FB772A00208CD301004BDF7047A9
:10D130001FB50E4C01A8FFF7F9FF70B9214602A8F0
:10D14000FFF7A2FE039B002BF4D00198D3E9002146
:10D15000904702A8FFF7A0FEF4E7052804D004B02A
:10D16000BDE81040FEF73FBD04B010BD98D30100EC
:10D1700072B3844690EA01039B0721D1830709D04B
:10D1800011F8013B00F8013B013A20D08307F7D1A9
:10D1900000E08446202A0AD32DE9F007B1E8F80719
:10D1A000A0E8F807203A202AF8D2BDE8F007042AC0
:10D1B00006D351F8043B40F8043B043A042AF8D261
:10D1C0002AB111F8013B00F8013B013AF9D1604660
:10D1D000704700BF00220B0011001A0084465AB3AA
:10D1E000830704D000F8011B013AF9D124E0C9B249
:10D1F00041EA012141EA0141202A11D3203A2DE9D7
:10D20000F0030B460C460D460E460F4688468946EF
:10D21000A0E8FA03203AFBD2BDE8F00320320BD09D
:10D22000042A05D340F8041B043A05D0042AF9D295
:10D2300000F8011B013AFBD160467047042A09D36C
:10D2400050F8043BD1F800C0634505D1043A0431DD
:10D25000032AF5D89AB10368086880EA030191FAB5
:10D26000A1F1B1FA81F1B2EBD10F08D901F0380187
:10D27000C840C0B223FA01F1C9B2081A70470020B1
:02D280007047F5
:10D28400A596010000000000F1A3010094250020F0
:10D2940053940100DC24002061950100000000008B
:10D2A40025AC01000000000011900100AC24002016
:10D2B400F9B70100282800202D910100000000008A
:10D2C400B9BA010000000000F1CC01000000000028
:10D2D400BD940100DC24002061B9010000000000BD
:04D2E400AF91010005
:08D2E8009DCB010000000000D5
:10D2F000999101000000000039BB0100000000000E
:08D30000FDCC0100000000005B
:10D308008DD001000000000031D1010000000000B4
:10D31800000000000000000005C601000000000039
:04D328000000000001
:10D32C000100FFFF000000000100000001000100EF
:10D33C0048D30100010001004CD3010001000000A2
:10D34C0000000000010000010101010101000000CA
:10D35C000000FFFFDEC0ADDEFE011EF1DEC0ADDE63
:10D36C00FF011EF100200201E8D20100F0D2010001
:10D37C0008000000F0D2010008D3010008000000F2
:10D38C0084D20100C4D2010008000000C4D2010004
:08D39C00E4D2010008000000CA
:10D3A400D824002001000400000000000000000058
:10D3B400000000000000000000000000A424002081
:0ED3C40000000000FFFF18181818181818189D
:040000031000900059
:00000001FF
