:020000022000DC
:106000000000042019620200016202000362020023
:10601000056202000762020009620200000000003F
:106020000000000000000000000000000B62020001
:106030000D620200000000000F6202001162020007
:1060400065AE0200136202002DB10200136202006D
:1060500013620200136202006DAF020013620200BD
:106060001362020013620200136202001362020054
:106070001362020013620200136202001362020044
:10608000136202006DB2020013620200136202008A
:1060900009B3020013620200D5CF020013620200AE
:1060A0001362020013620200136202001362020014
:1060B00013620200136202000000000000000000F2
:1060C00013620200136202001362020021B1020097
:1060D00013620200136202001362020013620200E4
:1060E000136202001362020013620200000000004B
:1060F00000000000136202000000000013620200B2
:10610000000000000000000000000000000000008F
:10611000000000000000000000000000000000007F
:10612000000000000000000000000000000000006F
:10613000000000000000000000000000000000005F
:10614000000000000000000000000000000000004F
:10615000000000000000000000000000000000003F
:10616000000000000000000000000000000000002F
:10617000000000000000000000000000000000001F
:10618000000000000000000000000000000000000F
:1061900000000000000000000000000000000000FF
:1061A00000000000000000000000000000000000EF
:1061B00000000000000000000000000000000000DF
:1061C00000000000000000000000000000000000CF
:1061D00000000000000000000000000000000000BF
:1061E00000000000000000000000000000000000AF
:1061F000000000000000000000000000000000009F
:10620000FEE7FEE7FEE7FEE7FEE7FEE7FEE7FEE766
:10621000FEE7FEE7704700BF0C4880470C484FF090
:106220000701884385460B48804700F01BB80A48A1
:106230000A490B4A884207D0521A05D00378013028
:106240000B700131013AF9D170470000156202006C
:10625000000004200D7202002CDD0200882B0020BB
:106260009C2B0020344935480A1A02D0072291435A
:106270008D46334933480A1A06D00722914381F3E9
:106280000988022282F314882F483049304A00F0EE
:1062900041F830483049314A00F03CF83048314943
:1062A000314A00F037F831483149324A00F032F8CB
:1062B00031483249324A00F02DF832483249334AE7
:1062C00000F028F832483349334A00F023F83348C5
:1062D0003349002200F029F832483349002200F007
:1062E00024F832483249091A07F0D4FC314A904761
:1062F0001F482049884205D00268043003B4904703
:1063000003BCF7E700208646EC46002000212A4A1D
:106310009047FEE7884207D0521A05D00378013033
:106320000B700131013AF9D17047884202D00270F6
:106330000130FAE7704700000000042000E003206D
:10634000000004200000042044E102009C2B0020F7
:10635000282C0020BC630200BC630200A8DC020001
:1063600044E102009C2B00209C2B002040DD020019
:1063700040DD020040DD020040DD020040DD0200A1
:1063800040DD020040DD020040DD020041E102008C
:10639000D0E10200282C0020282C0020282C0020EE
:1063A00068390020683900206839002068390020E9
:0C63B000685900202F6202001D710200DD
:1063BC0072DF70474CDF7047014B00221A70704738
:1063CC00B42C002037B524490A780423ADF80630E4
:1063DC00224B12B902221A700A7021480A78B0F9BD
:1063EC00004090F901009854501CC0B21C541D4C34
:1063FC00901CC0B2B4F9005094F901401C54D41C48
:10640C00E4B2101D1D55184CC0B2B4F9005094F9EB
:10641C0001401C54941D0532D2B2F0289D540C70CE
:10642C0006D912480DF1060100F082FB03B030BD15
:10643C00FCD15870F2220020013AD2B29C5C20446C
:10644C00C0B2002AF8D10A7009490A88134403F82B
:10645C00010C0248E8E700BF292C0020BE2C0020CC
:10646C003A3100203E31002042310020BC2B00206C
:10647C00C02B002037B501A8FFF79CFF274A284BFB
:10648C00B2F9001092F901201A70264A5970B2F92B
:10649C00001092F901209A70234AD970B2F90010B9
:1064AC0092F901201A7100229A71DA71019A1A720A
:1064BC001E4C1F4A1F485971936040F23371237868
:1064CC001D4D118009219180026605EB03121346C4
:1064DC003C3099680C3200F0E0FF08B104F026FE65
:1064EC002378144805EB03121B010432E95800F021
:1064FC00D4FF08B104F01AFE21781048002205EBF5
:10650C000111FFF755FF08B104F010FE2378013399
:10651C0003F00103237003B030BD00BF3C310020F9
:10652C00B52C00204031002044310020282C0020C4
:10653C00A82C0020F02D00209C2B0020F02E0020F9
:10654C0008B5094B188801F067FD022806D1074BE6
:10655C001B783BB1BDE80840FFF734BFBDE80840ED
:10656C00FFF788BF08BD00BFEC2B0020B42C002027
:10657C0010B5044603F072FD2046BDE8104003F050
:10658C0079BD000007B503F011FB08B104F0CEFD96
:10659C00002300938DF804304FF4E663ADF800301F
:1065AC00684610238DF8023003F046FB08B104F066
:1065BC00BDFD044803F028FB08B104F0B7FD03B09F
:1065CC005DF804FB7D650200A8DF7047ADDF704706
:1065DC00AEDF704762DF704770B505468AB00C4677
:1065EC0000295ED000285CD00388502B33D0572B69
:1065FC0069D0102B55D181886069002601AA0196BB
:10660C0001F094FE0223218AA888ADF80A6002AA40
:10661C00CDF80CD0ADF80830FFF7D8FF002840D1EA
:10662C00A369002B3DD0039801F0BEFE002838D0A2
:10663C00019E0EB1012333701822002104A806F02C
:10664C0081FE02238DF81030AB88ADF8183005941C
:10665C00A369079623E08188606902AA01F066FEAF
:10666C001822002104A806F06DFEAB882189ADF834
:10667C001830EB88029A05949942079216D12E8A0B
:10668C00022E13D16AB105F1120001F08DFE029BAE
:10669C0048B101221A70A3698DF810600BB104A8DF
:1066AC0098470AB070BD18700326F4E7A2899A4285
:1066BC00F7D1A369002BF4D005F1120208922A8AB3
:1066CC00ADF82420EBE78188606902AA01F02EFE68
:1066DC0001460028E5D1029E3378002BE1D0182228
:1066EC0004A806F02FFE0123ACE70000F0B53A4BEE
:1066FC008FB002AD04460A4603F1100C2F46186801
:10670C0059682E4603C6083363453546F7D1002C2D
:10671C005FD0002A5DD01368A36121463846FFF78D
:10672C0059FF002853D12246012512F8023B8DF85F
:10673C00063001A92846ADF80450FFF745FF0028A4
:10674C0045D10146202206A806F0FCFD2246022374
:10675C00ADF8183012F80C3B8DF81A30BDF8243017
:10676C001E4E6088079623F44F6323F00F0343F407
:10677C0040632B4306A9ADF824308DF829508DF8D1
:10678C002A5001F01EFE10BB0146202206A806F07E
:10679C00D9FD22460323ADF8183012F8043B8DF8CE
:1067AC001A30BDF824306088079623F4875323F001
:1067BC001F0343F480532B43ADF8243006A940F259
:1067CC0001138DF82950ADF82A3001F0FAFD0FB005
:1067DC00F0BD0E20FBE700BF40DD0200F40001001D
:1067EC00F0B50F4687B016461C46054610B34069F7
:1067FC0001AA194601F09AFDD0B94FF6FF739C42DD
:10680C001AD0019BC3B11B78C3B13388F42B17D8B2
:10681C00AB88CDF80B008DF80F00ADF8083002A94D
:10682C0001232046CDE904678DF80A30FFF7D0FE2E
:10683C0007B0F0BD0E20FBE70520F9E70820F7E7CD
:10684C000720F5E777DF704700BF18462DE9F043C6
:10685C0087B000AF78607B681B78002B40F0148108
:10686C006B461E467B689B8A7B827B8A002B00F0E2
:10687C000A81798A0B46013BFB608BB20022984659
:10688C0091464FF000024FF000034FEAC90343EA70
:10689C0058734FEAC8028BB200221C4615464FF0C3
:1068AC0000024FF00003EB0043EA5473E2000B4686
:1068BC000733DB08DB00ADEB030D6B460033BB602D
:1068CC0000237B610CE07B681A697B69134419789F
:1068DC00BA687B6913440A461A707B6901337B6181
:1068EC007B8A7A699A42EED3BB681B78613B0C2B8E
:1068FC0000F2B78001A252F823F000BF3D690200FC
:10690C006F6A02007D690200A3690200C969020076
:10691C00F36902003D6A02006F6A02006F6A0200AE
:10692C006F6A02006F6A02006F6A0200556A020009
:10693C00BB685B78303B002B14BF01230023DAB219
:10694C00534B1A70524B1B78002B08D051495248AC
:10695C0006F0E5FD03469AB2504B1A808AE0504986
:10696C004D4806F0DCFD03469AB24C4B1A8081E090
:10697C00042000F07BF94B4B1B88042219460320A2
:10698C00FFF760FF4849444806F0C9FD03469AB238
:10699C00424B1A806EE0002000F068F9414B1B88D6
:1069AC00002219460320FFF74DFF40493A4806F0F4
:1069BC00B6FD03469AB2394B1A805BE06FF02700A4
:1069CC0000F054F9374B1B886FF02702194603204F
:1069DC00FFF738FF3649304806F0A1FD03469AB25E
:1069EC002E4B1A8046E07B8A042B4BD1BB685B781C
:1069FC00303B642202FB03F1BB689B78A3F13002AD
:106A0C0013469B0013445B00CA18BB68DB78303B11
:106A1C0013441A46274B1A60264B1B681A46264904
:106A2C001D4806F07CFD03469AB21C4B1A8021E0EF
:106A3C00204B01221A602149174806F070FD0346CD
:106A4C009AB2164B1A8015E01A4B4FF0FF321A60AF
:106A5C001B49114806F063FD03469AB20F4B1A808E
:106A6C0008E018490C4806F05AFD03469AB20B4B45
:106A7C001A8000BF094B1B88002B01D000F024F8B2
:106A8C00B54601E000BFB5461C37BD46BDE8F083F6
:106A9C00B42C002050DD0200B82D0020EC2D00207D
:106AAC0064DD0200EC2B002078DD02008CDD02009E
:106ABC00A0DD0200F42B0020B4DD0200D0DD0200CA
:106ACC00DCDD0200F4DD020000B58FB0144B1B8836
:106ADC001A4601AB02331349184606F0FDFB01239D
:106AEC008DF804300E4B1B88DBB28DF805300C4B47
:106AFC001B88023338336B44FF2203F8342C084BC9
:106B0C001B8803339AB2064B1A80074B1B8801A9CA
:106B1C00034A0648FFF764FE00BF0FB05DF804FBA4
:106B2C00EC2D0020B82D0020EC2B0020CC2B0020CD
:106B3C0000B583B001900091054B1B88009A019918
:106B4C000448FFF74DFE00BF03B05DF804FB00BF27
:106B5C00EC2B0020CC2B002000B585B001AB04221F
:106B6C000021184606F0EEFB094B019301AB1946C8
:106B7C000848FFF7BBFD0390039B0293029B002B7D
:106B8C0002D0029804F0D2FA00BF05B05DF804FB05
:106B9C0059680200CC2B002076DF704777DF7047F6
:106BAC007ADF70477CDF70478FDF7047704704F0E7
:106BBC00BDBA00000388212B07B523D006D8102BB3
:106BCC0013D0112B15D003B05DF804FB3B2B01D077
:106BDC00562BF8D180881321FFF7DEFF0028F2D066
:106BEC0003B05DF804EB04F0A1BA0C4B82881A8058
:106BFC00E9E70A4B4FF6FF721A8003B05DF804EB1D
:106C0C00FFF7DABB00238088ADF8043001A9FFF749
:106C1C00CBFF0028D7D004F089FAD4E7EC2B002066
:106C2C0008B530B906F076F918B1BDE8084004F0A3
:106C3C007DBA08BD032807D14FF08043A922C3F8C1
:106C4C002025002006F084B87047000008B50378B2
:106C5C004BB9054B3B211888FFF79EFF18B1BDE8D7
:106C6C00084004F063BA08BDEC2B0020034B02462D
:106C7C0093F854100120FFF791BF00BF9C2E002009
:106C8C0070B596B006F008F908B104F04FFA06ACEE
:106C9C00002321460120069306F0BEF908B104F04A
:106CAC0045FA204606F054FA08B104F03FFAFFF713
:106CBC0053FF40220021204606F044FB9849204611
:106CCC0001F076FB97490EA801F072FB96490CA8CF
:106CDC0001F06EFB954908A801F06AFB914910A8D8
:106CEC0001F066FB4FF0805302ADD3F8A830C3F32C
:106CFC00013242F00C0237328DF80820C3F3032224
:106D0C00092A94BF303237328DF80920C3F30312AD
:106D1C00092A03F00F0394BF30323732092B94BF8A
:106D2C00303337338DF80B304FF080538DF80A2009
:106D3C00D3F8A4301A0FB3F1204F34BF30323732AE
:106D4C008DF80C20C3F30362092A94BF303237321A
:106D5C008DF80D20C3F30352092A94BF3032373219
:106D6C008DF80E20C3F30342092A94BF3032373218
:106D7C008DF80F20C3F30332092A94BF3032373217
:106D8C008DF81020C3F30322092A94BF3032373216
:106D9C008DF81120C3F30312092A03F00F0394BFDB
:106DAC0030323732092B94BF303337338DF81330F0
:106DBC000AA8002329468DF814308DF8122001F012
:106DCC00F7FA012320468DF8543001F0DDF908B1B3
:106DDC0004F0ACF9FFF7D6FB554B02930023ADF84A
:106DEC000C308DF80E304FF0805301AED3F8A43038
:106DFC00C3F30332092A94BF303237328DF80B209B
:106E0C00C3F30322092A94BF303237328DF80C2099
:106E1C00C3F30312092A03F00F0394BF3032373245
:106E2C00092B94BF303337338DF80D208DF80E308D
:106E3C0007221123294630468DF80430FFF7B2FEA5
:106E4C0008B104F073F90023ADF81C30394B0693EC
:106E5C0020464FF4C873ADF81E30FFF7A1FE08B101
:106E6C0004F064F93449354802F04DF908B104F0E6
:106E7C005DF90923ADF81C3040F23373ADF81830CE
:106E8C002F4B08950021AC221846CDE902118DF844
:106E9C0004108DF8101006F055FA0622C27001226B
:106EAC002849028180F87C208022C160C0F88820AB
:106EBC000221254A80F83C1004660664C0F8A42020
:106ECC000146224800F0FCFC08B104F02FF91F48E1
:106EDC00012100F0F2FC14220021204606F032FAC7
:106EEC004FF470234FF42032CDE9072303238DF8A0
:106EFC002430174B0B932046164B0C9300F098FF45
:106F0C0008B104F013F91148032100F04EFD20B133
:106F1C0016B0BDE8704004F009B916B070BD00BFE2
:106F2C00FCDD02000DDE020011DE02001BDE0200A1
:106F3C00495353000C001800B96B0200F4300020C8
:106F4C00F02D0020E82B00202D6C02009C2E002040
:106F5C00596C0200BB6B0200094A136801331360C1
:106F6C00084B01221A70084B084A196810688142B4
:106F7C0003D20748007800B1116000221A607047F4
:106F8C000C3100201031002008310020F02B0020A3
:106F9C001131002008B504F009FB08B104F0C6F863
:106FAC00054A0648012104F031FB18B1BDE8084040
:106FBC0004F0BCB808BD00BF656F020024DE0200FF
:106FCC0008B5064800224FF4004104F031FB18B11B
:106FDC00BDE8084004F0AAB808BD00BF1431002079
:106FEC0082B00190019B1B681F2B02D84FF0A0436D
:106FFC0006E0019B1B6803F01F02019B1A60024B09
:10700C00184602B0704700BF0003005000B585B0B1
:10701C000190084611461A4603468DF803300B467C
:10702C008DF8023013468DF8013001AB1846FFF78E
:10703C00D7FF03909DF803209DF802305B001A43A4
:10704C009DF801309B001A439DF818301B0242EA50
:10705C0003019DF81C301B04019A1943039B02F594
:10706C00E07243F8221000BF05B05DF804FB00B5D8
:10707C0085B0039000230193002300930023012289
:10708C0001210398FFF7C2FF00BF05B05DF804FBB8
:10709C0000B585B0019001AB1846FFF7A1FF039036
:1070AC00019B012202FA03F31946039800F026F81B
:1070BC0000BF05B05DF804FB00B585B0019001ABD5
:1070CC001846FFF78DFF0390039BD3F8043502930A
:1070DC00029BDA43019B012101FA03F31A40039B43
:1070EC00C3F80825019B01229A40029B1A40039B7E
:1070FC00C3F80C2500BF05B05DF804FB82B001900D
:10710C000091019B009AC3F80C2500BF02B0704798
:10711C0008B50D20FFF7ABFF0D20FFF7B9FFFFF708
:10712C0039FF00F02EF8FFF7ABFDFFF749FF0B4BD3
:10713C001B78002B0AD0094B00221A700D20FFF788
:10714C00BBFF012000F028F8FFF7FAF900F022F855
:10715C00034B1B680133024A1360E8E7103100202F
:10716C0008310020022808B509D105F0D3FE08B17A
:10717C0003F0DCFF04F0B4FA08B103F0D7FF0120F0
:10718C0008BD08B505F07EFD18B1BDE8084003F058
:10719C00CDBF08BD05F08EBD38B50F4B0F4C1A682E
:1071AC0010441860237813B1012B07D038BD0C4B59
:1071BC001B689842FAD901232370F7E74FF0A043DC
:1071CC004FF400520225C3F808250020C3F83457A9
:1071DC0005F0BEFD2570E9E7343100203831002080
:1071EC00F42B00204FF08053D3F83021082A03BF32
:1071FC00D3F83401B0FA80F0400900207047000049
:10720C0008B54FF080430022C3F80C21C3F81021BD
:10721C00C3F838254FF0805203F54043D2F80414DC
:10722C00C3F82015D2F80814C3F82415D2F80C149E
:10723C00C3F82815D2F81014C3F82C15D2F814146E
:10724C00C3F83015D2F81814C3F83415D2F81C143E
:10725C00C3F84015D2F82014C3F84415D2F82414FE
:10726C00C3F84815D2F82814C3F84C15D2F82C14CE
:10727C00C3F85015D2F83014C3F85415D2F834149E
:10728C00C3F86015D2F83814C3F86415D2F83C145E
:10729C00C3F86815D2F84014C3F86C15D2F844241E
:1072AC00C3F87025FFF79EFF18B1364B364AC3F86A
:1072BC008C26FFF797FF18B1344BFB22C3F8182527
:1072CC00FFF790FF70B14FF080414FF08053D1F831
:1072DC00E42ED3F8583222F00F0203F00F031343BD
:1072EC00C1F8E43EFFF77EFF20B1294B4FF400724A
:1072FC00C3F840264FF08043D3F80024D20744BF94
:10730C006FF00102C3F800244FF01023D3F80022D1
:10731C00002A03DBD3F80432002B2EDA1D4B01229A
:10732C00C3F80425D3F80024002AFBD04FF0102218
:10733C001221C2F80012D3F80024002AFBD04FF01F
:10734C0010231222C3F80422124BD3F80024002A73
:10735C00FBD00022C3F80425D3F80024002AFBD06C
:10736C00BFF34F8F0C490D4BCA6802F4E062134314
:10737C00CB60BFF34F8F00BFFDE7094B094A1A6082
:10738C0008BD00BF005000404881030000F00040E1
:10739C000090024000E0014000ED00E00400FA051E
:1073AC00F82B00200090D0036DDF704779DF704719
:1073BC007DDF704764DF70472DE9F04F85B0002505
:1073CC000E9CBDF83CB0B4F800A001910746904665
:1073DC001E46A9463A884A450DDC45B12388013B37
:1073EC00A3EB0A039BB2FF2B39D806F80A30002016
:1073FC0005B0BDE8F08F7A6852F82900039000229E
:10740C000DF10B0103A8FFF7D5FF0028F0D19DF873
:10741C000B20424520D1228885F0010002EB0801A7
:10742C0001EB400159451ADC3DB9013292B2019B86
:10743C002280B35422880132228022880DF10B0164
:10744C00324403A8FFF7B6FF0028D1D121889DF85C
:10745C000B200A442280012509F10109BAE70C200E
:10746C00C6E72DE9F341089FBDF824801546CDE908
:10747C000078022204461E46FFF79EFF50B93346A1
:10748C00102229462046CDE9087802B0BDE8F0412B
:10749C00FFF792BF02B0BDE8F0812DE9F04F002359
:1074AC001788138090F82D3085B006460D4614468B
:1074BC005BB3082F01D80C2028E102A8FFF774FF5A
:1074CC00002840F023812388DDF809100822EA54B3
:1074DC00238801339BB21B222380EA542388013377
:1074EC009BB2EA182380E950BDF80D3093802388B5
:1074FC009DF8082006339BB212F0FE0218BF012241
:10750C002380EA54238801332380B378FBB123888A
:10751C000433BB42CFD802A8FFF748FF002840F045
:10752C00F58023880322EA54238801339BB2192265
:10753C002380EA542388BDF8082001339BB2E91854
:10754C002380EA54120A4A70238802332380F2788B
:10755C009AB12388D91CB942ADD80221E9542388A9
:10756C0001339BB201212380E95423880B449BB245
:10757C002380EA5423880B4423807368ABB193F9BE
:10758C0000202388D91CB94295D80221E9542388BC
:10759C0001339BB20A212380E954238801339BB227
:1075AC002380EA542388013323803389002B40F055
:1075BC00A180338A5BB1CDE900472B46072203211A
:1075CC0006F11000FFF74DFF002840F09F80338B31
:1075DC005BB1CDE900472B461522142106F11800AA
:1075EC00FFF73FFF002840F09180326A002A40F0FC
:1075FC009080D6F82480B8F1000F30D0B8F8043061
:10760C002188981C8A1C0244BA423FF654AFFE28CB
:10761C003FF651AF03336B54238801339BB2FF22E7
:10762C002380EA54238801339BB22380B8F80020CE
:10763C00EA54E918120A4A702088023080B220807D
:10764C00B8F804205AB1D8F8081000296BD0284497
:10765C0005F042FE2388B8F804201344238096F8E2
:10766C002C30002B40F09880307800284ED0338896
:10767C00012B58D0228802F1020CBC453FF61BAFFF
:10768C00012805D17378023313449F42FFF413AFE2
:10769C00023FBF1ABFB202A905EB0C00ADF808708F
:1076AC00FFF786FE90BB3178BDF80830022900F058
:1076BC00B98072789A4202D39F4280F0B18001293E
:1076CC0040F0B280974293B2C0F0AE80ADF8083073
:1076DC000821BDF80830FE2B3FF6EDAE22880133B1
:1076EC00AB542288013292B22280A95422881344CE
:1076FC0023800BE0CDE900472B460622022106F140
:10770C000800FFF7AEFE00283FF453AF05B0BDE80C
:10771C00F08FB4F800C00CF10603BB423FF6CBAEC1
:10772C001188052901D80720F0E76FF4486E01EBAA
:10773C000E039BB24FF27D3E7345F4D95388052B53
:10774C00F1D96FF44860181880B27045EBD94FF638
:10775C00FF70814201D09942E5D8052305F80C3021
:10776C00238801339BB212212380E95423880133EF
:10777C009BB223801188E954E818090A41702388C8
:10778C0002339BB223805288EA54E918120A4A70D9
:10779C002388023323802CE7B36A002BC3D04FF02D
:1077AC0000084FF00C0A4FF0160BB16A5FFA88F222
:1077BC000AFB02F201EB0209B9F80430981CFE280E
:1077CC003FF679AE208803332B54238801339BB2C8
:1077DC00238005F803B0238801339BB223808A5A97
:1077EC00EA54E918120A4A702088023080B22080CC
:1077FC00B9F804205AB1D9F80810002993D02844BC
:10780C0005F06AFD2388B9F804201344238096F808
:10781C002C2008F101085FFA88F39A42C5D823E7B7
:10782C00092156E79F42FBD2ADF8087050E770B5BE
:10783C00C0B14AB116880024B44203D305196D783F
:10784C009D4208D0A14201D800200BE0055D013516
:10785C002C44A4B2F0E7A142F6D9A31C1380005D1E
:10786C00013880B270BD13B513460022ADF8062066
:10787C000DF106020446FFF7DAFF10B1BDF8060061
:10788C00204402B010BD72DF704773DF704738B50B
:10789C00012204460D46B0F83812D0F83402FFF736
:1078AC00E2FF00B1057004F13C0204F50D7104F126
:1078BC005400BDE83840FFF7E6BF80F83010704741
:1078CC00F8B504460F4600296BD0002869D091F812
:1078DC007A301BB191F89830002B64D14FF0000C2A
:1078EC0084F802C007F178060FCE251D0FC50FCE08
:1078FC000FC596E8070085E8070084F830C0D7F874
:10790C00A4306363D7F8A830A36304F50D724FF667
:10791C00FF73C4F84AC2A4F84832C4F84422C4F82D
:10792C004DC222780AB984F8543094F82430002BD4
:10793C0014BFEE231F2304F15501C4F83412A4F82C
:10794C00383204F50E723846FFF7A7FD40BB94F8A9
:10795C002430002B14BFEE231F2304F24311C4F870
:10796C003C12A4F8403204F5107207F13C00FFF70A
:10797C0094FDA8B9A369A4F848304FF4807301258D
:10798C00A4F8503063692064014684F83C50636469
:10799C0004F13C0204F15400FFF775FF00B92570A7
:1079AC00F8BD0E20FCE70720FAE7F8B50778044687
:1079BC000D46002F00F003810023C0F84A32C0F8B6
:1079CC004D32C388817000F24A260BB1012903D0D5
:1079DC00E37943B1022D06D1636BA3B1012284F884
:1079EC00512208209847334604F5147113F8012FDF
:1079FC0012B98B42FAD117466B1E032B4ED8DFE817
:107A0C0003F0050B0F1284F85132ECE7A3791BB18C
:107A1C0094F8243003B94FB9E3790BB1002F3FD15F
:107A2C00237A002B3ED1657AAD00EDB2636BA57065
:107A3C00002B39D0033D012D36D86279A2B394F8CE
:107A4C0052228ABB84F85422012284F85322072044
:107A5C00984704F13C0518220021284605F072FCD9
:107A6C00E26A0123511E994284F83C3001D9042A60
:107A7C0000D1D3B284F8513094F8243033B10129B9
:107A8C0016D9042A14D0012284F85220A278042A90
:107A9C001ED8DFE802F07B0F25385A000025C5E719
:107AAC000225C3E70325C1E7002384F85332D0E74E
:107ABC00A26AE9E7012384F831300023C4E910639A
:107ACC00C4F84432022384F83C308023A4F84830B4
:107ADC00A378002B5ED1636B002B6CD1002069E086
:107AEC00002B14BF0723032384F83C302369A4F82C
:107AFC00483000230222C4F84432E36884F8312071
:107B0C0026646364E4E761696164A169A4F84810C0
:107B1C0013B1062384F83C3063797BB194F852326C
:107B2C0063B994F854324BB1022384F850300421D9
:107B3C002046FFF7ACFE0028CAD1052204F50D73D0
:107B4C0084F83120C4F84432C2E7002B14BF06235A
:107B5C000123E16984F83C3063796164216AA4F8FB
:107B6C004810002BEAD094F85232002BE6D194F84E
:107B7C005432002BE2D0022384F8503004212046EA
:107B8C00FFF785FE0028A3D10622D7E7002384F84F
:107B9C0031309DE7D4F844122A4604F15400FFF723
:107BAC0072FE38B994F8301094F85400FFF76DFE5B
:107BBC00002890D0F8BD94F8310098478EE7082043
:107BCC00F8E70388112B10B50C460AD0262B1FD0D2
:107BDC00102B05D1C27B8388012A01D1A1F8483230
:107BEC0010BD0022838881F85222B1F848229A42B3
:107BFC00F6D10B79002BF3D101212046FFF7D5FEEE
:107C0C000028EDD0A36B002BEAD0BDE8104018473C
:107C1C00037A013B012BE3D8897805230131B1FBB1
:107C2C00F3F303EB8303C91AC9B2E6E7704775DFB8
:107C3C00704776DF70477ADF70477BDF7047000054
:107C4C00034B1A8882420CBF18460020704700BFB5
:107C5C0064310020024B9B6903B11847704700BF89
:107C6C004831002073B585B22846FFF7E9FF04467A
:107C7C0038B3174E027A337B9A420CD200F10A01C8
:107C8C002846FFF7D4FFF0B111281AD002B0BDE896
:107C9C007040FFF7DFBF00230372337C43B13B21FD
:107CAC002846FFF7C6FF30F0080301D0FFF7D2FFDC
:107CBC00736933B100228DF80420ADF8065001A889
:107CCC00984702B070BD237A01332372F9E700BFE5
:107CDC004831002013B50B46497A02460E4871B95B
:107CEC00D0E901101C7A002C18BF0146586803F02B
:107CFC009FFC78B102B0BDE81040FFF7ABBF00218C
:107D0C001972436933B101218DF80410ADF80620C6
:107D1C0001A8984702B010BD483100204B8802885A
:107D2C009A4212D842889A420FD380888B8840F2AC
:107D3C00F311884294BF021A421A9A4205D8084499
:107D4C00984234BF0020012070470020704700008B
:107D5C000388122B70B5014659D004D8102B1ED0B5
:107D6C00112B44D070BD502BFCD12F4BC288DB891A
:107D7C009A42F7D1038A022BF4D186883046FFF75A
:107D8C005FFF05460028EDD001F1120000F00CFB5E
:107D9C0038BB686803F094FC0028E3D00AE0C37B8E
:107DAC008688012BDED14FF6FF70FFF749FF0546A1
:107DBC0020B90420BDE87040FFF74CBF1B4A068079
:107DCC00002303721368C0F80A305368C0F80E30F1
:107DDC0010310A30FFF7A2FF134B6872DB89002BBE
:107DEC00C0D129463046BDE87040FFF773BF80888C
:107DFC00FFF726FF04460028B4D0406803F060FC6F
:107E0C0008B1FFF727FF4FF6FF732380AAE7868898
:107E1C003046FFF715FF05460028A3D008310A307D
:107E2C00FFF77CFF6872DCE74831002078310020D6
:107E3C00F8B5064648B305460FCD154F3C460FC462
:107E4C0095E8070084E807003068124C3C60B0B13C
:107E5C00FFF7F1FEC0B932681368236053686360A2
:107E6C000D480E4A4FF6FF7303800D4B40F8043F4C
:107E7C00002103F0CBFB002818BF032004E02046B0
:107E8C00FFF7DBFE0028EBD0F8BD0E20FCE700BFAF
:107E9C00483100207831002064310020717C0200D0
:107EAC0080310020F7B5174601900E4691B1019C28
:107EBC006CB100252C46294601A804F0DDFB18B155
:107ECC003946A8B2B04701340135142DF3D1204600
:107EDC0003B0F0BD0C46FAE773B50191019C064660
:107EEC006CB100252C46294601A804F0C5FB18B13D
:107EFC0006EB440301349D800135142DF3D130463B
:107F0C00346002B070BD00002DE9F047038884880E
:107F1C00112B8CB005463DD01A2B42D0102B19D109
:107F2C00DFF8AC80D8F80830DB430093D8F80410A5
:107F3C00684604F0F8FB009901A8FFF7CDFF0DF19E
:107F4C0006090027019B9F4207D3132C12D904204A
:107F5C0003F0ECF80CB0BDE8F08739F802AF00265E
:107F6C000136514608EB860004F07CFB1D2EF7D140
:107F7C000137E7E71748214604F05DFB1648214618
:107F8C0004F059FBEB7B012BE4D01448214604F0A0
:107F9C0052FBDFE70F4821460CB0BDE8F04704F078
:107FAC0061BB037A0E481F2B4FEA131521460AD9E1
:107FBC0004F041FB022D0B482146EDD00CB0BDE87E
:107FCC00F04704F038BB04F04DFB06482146E3E7CC
:107FDC00A0310020A8310020A4310020AC310020B9
:107FEC00B0310020B43100201328014602D80248D9
:107FFC0004F042BB00207047A431002010B50446A9
:10800C00FFF7F2FF28B10348214604F035FB01309D
:10801C00C0B210BDAC31002010B50446FFF7E4FF30
:10802C0028B10348214604F027FB0130C0B210BD33
:10803C00A831002010B50446FFF7D6FF28B1214621
:10804C000248BDE8104004F017BB10BDB031002051
:10805C0010B50446FFF7C8FF28B121460248BDE819
:10806C00104004F009BB10BDB431002010B504461B
:10807C00FFF7BAFF002814BF2046142010BD0000E3
:10808C0008B51821024804F000FBC0B208BD00BFBF
:10809C00A031002070B50A4E054630460C4604F05F
:1080AC00EBFA58B12846FFF79FFF38B10634294642
:1080BC0006EB8400BDE8704004F0DEBA002070BD11
:1080CC00A0310020F8B50D4E054630460C4617463B
:1080DC0004F0D2FA80B12846FFF786FF60B1A01DEC
:1080EC00294606EB80001FB1BDE8F84004F0A3BAA6
:1080FC00BDE8F84004F0B6BAF8BD00BFA0310020CE
:10810C00F8B50A4D04460E4601462846174604F0BB
:10811C00B3FA48B1043405EB84053A46A8683146F5
:10812C00BDE8F840FFF7BEBEF8BD00BFA03100208F
:10813C00A8DF7047F0B5074689B014461E460D46B9
:10814C0011B9084602F0F2FF14B9204602F0EEFF16
:10815C0020220021684605F0F5F802238DF80D3039
:10816C00084B0E9A1888ADF800706946ADF80440BB
:10817C00ADF8064002958DF8116000F022F909B0B7
:10818C00F0BD00BF5032002030B587B041F60A0375
:10819C005C4AADF80C30044603A901208DF80E00A2
:1081AC00FFF7C6FF0546002849D12288002A49D18D
:1081BC00228952B1544B0093E16894F83C3042F65A
:1081CC002420FFF7B7FF002847D1228A52B14F4B2A
:1081DC000093616994F83C3042F62520FFF7AAFF22
:1081EC0000283AD1228B52B1494B0093E16994F8A3
:1081FC003C3042F62720FFF79DFF00282DD1228C22
:10820C004AB1444B0093616A94F83C3042F6262004
:10821C00FFF790FF08BB228D4AB13F4B0093E16AF8
:10822C0094F83C3042F62820FFF784FFA8B9236B62
:10823C00ABB9616B002938D1A36B002B42D1284616
:10824C0007B030BD354B0093616894F83C3042F672
:10825C002920FFF76FFF0028AAD00546EFE71A6820
:10826C008DF810201A68120A8DF811205A888DF892
:10827C001220DA788DF813205A688DF814209B6838
:10828C008DF815301A0A1B0C8DF81730244B8DF80D
:10829C0016200093082294F83C3004A942F62320BF
:1082AC00FFF748FF0028C4D0D7E71E4B0A7900938C
:1082BC00096894F83C3042F62A20FFF73BFF00286F
:1082CC00BAD0CAE71A788DF810205A888DF8112088
:1082DC00120A8DF812209A888DF81320120A8DF844
:1082EC001420DB888DF815301B0A8DF816300E4BD8
:1082FC000093072294F83C3004A942F65020FFF773
:10830C0019FFAAE7503200203032002048320020FA
:10831C002032002018320020523200202832002057
:10832C005A320020403200203832002070B5054609
:10833C00164608460AB90E2070BD00231360002DA6
:10834C00F9D02B68002BF6D0EB8813F003040ED178
:10835C00FFF78CFEC0B214280BD02B7983420AD9BC
:10836C00EA882B6800FB023333602046E4E70720E1
:10837C00E2E70520E0E70420DEE7AADF70470023F0
:10838C0001380B70042806D8DFE800F00306080A51
:10839C000C0011230B7070472123FBE73123F9E705
:1083AC001223F7E72223F5E7008800F0010070475D
:1083BC0038B5044608460D4604F05EFF6560208023
:1083CC0038BDF0B58B7891B00C46012B38BF01232A
:1083DC0000278DF80E3005460B88607CADF80C300C
:1083EC006946ADF800708DF80270FFF7C8FFA07CED
:1083FC000DF10101FFF7C3FF1646227D237B0132ED
:10840C0002F0030243EA4203E27B43EAC203227C0A
:10841C0043EA02139DF8022003F01F0322F01F020F
:10842C00134339461C2209A88DF8023004F08AFF48
:10843C00637B13F0300F14D00DF10901E07CADF823
:10844C0008708DF80A70FFF79AFF11238DF8083029
:10845C009DF80A30012102AA61F342038DF80A301B
:10846C000E92637B8DF82430A37B8DF8253000238E
:10847C00CDE90633089303AB0493A388ADF81C3005
:10848C00A368CDF814D01BB1E288ADF8182008937E
:10849C00A2695AB301A90023ADF804308B7013887C
:1084AC00ADF82C305388ADF82E3053680D91107BFD
:1084BC000A93FFF764FF0DF10501507BFFF75FFF97
:1084CC00937B117A013303F0030341EA4301937A5E
:1084DC0041EAC301D37A41EA03119DF8063001F059
:1084EC001F0123F01F0319438DF80610E36903B134
:1084FC000C93334604AA09A92846FFF73EFF11B096
:10850C00F0BDA0DF7047A1DF7047ADDF7047B3DF70
:10851C00704710B50446408800F076FCA0802046D9
:10852C00BDE8104001F03CBB30B587B005460C46A9
:10853C0018220021684604F005FF072368468DF8D1
:10854C000030ADF802500294FFF7E3FF07B030BDE6
:10855C0030B587B0054618220021684604F0F2FEBB
:10856C004FF6FF739D42ADF8025023D0284600F021
:10857C0060FB1128044617D007D860B10B2811D026
:10858C0021462846FFF7D0FF03E043F2020398424E
:10859C00F6D1002209E00E2368468DF80030FFF773
:1085AC00B8FFF6E70F23F7E70122034B28461978AB
:1085BC00FFF788FD07B030BD6B320020FFF7C8BF56
:1085CC00024B034918780022FFF79ABD6D32002048
:1085DC00E18502002DE9F047DFF8008188B098F8BA
:1085EC0000100446FFF756FD0646002873D12046BE
:1085FC0000F072FB0828014622D006D888B1062864
:10860C004BD02046FFF790FF09E043F2020398425B
:10861C0005D043F20143984259D01128F1D10125DC
:10862C0046E03146182202A804F08CFE102302A862
:10863C008DF80830ADF80A400126FFF76AFFEEE727
:10864C0001A8FFF764FF354601274FF002090DF131
:10865C00060ABDF80430BB421FD902AA394620468F
:10866C00CDE9029AFFF751FFB8B9BDF806300137D2
:10867C0035B942F605255B1B5D425D41BFB2E8E7AB
:10868C0042F602129342F9D10DF1020302AAB9B2D9
:10869C0020460393FFF739FF30B1204600F0B4FBBE
:1086AC0000F034FB002503E0BDF80230002BF4D0C1
:1086BC000B4B2A4619782046FFF704FD98F800105A
:1086CC003246204608B0BDE8F047FFF7FBBC204619
:1086DC00FFF73EFFA3E708B0BDE8F0876E3200203D
:1086EC006D32002013B5044600F08EFB00236A4661
:1086FC00092100F0AFFE052805D1044B01221978A1
:10870C002046FFF7DFFC02B010BD00BF693200202D
:10871C0008B5084B084918780022FFF7F1FC02460F
:10872C0030B9064B06491878BDE80840FFF7E8BC9D
:10873C0008BD00BF6C32002089870200693200201E
:10874C005187020013B50A4B00930A4B0446186874
:10875C00019001AA69462046FFF7D3FE28B9064BC3
:10876C00012219782046FFF7ADFC02B010BD00BF06
:10877C00A62A010028DE02006832002030B5012153
:10878C0087B005461C4803F0ABFF0446BFF35F8F70
:10879C0070BB284600F008FA862801460ED007D890
:1087AC00D0B1112826D02846FFF7BEFE002403E0E6
:1087BC0043F202039842F6D122460FE018222146DA
:1087CC00684604F0BFFD062368468DF80030ADF80E
:1087DC000250FFF79EFEEFE701240246074B2846A6
:1087EC001978FFF76FFC1CB9BFF35F8F024B1C604D
:1087FC0007B030BD0122F1E7643200206C3200205A
:10880C0038B503780446A3B94088FFF7A1FE658804
:10881C00284600F04EFA28B1064B0122197828465A
:10882C00FFF750FC6088FFF75DFFBDE83840FFF7AD
:10883C006FBF38BD6D32002037B50378082B044666
:10884C0030D1427A72BB057A072D1BD0082D2ED061
:10885C00012D27D180886A46294601F02FF808BBE4
:10886C00019B1B78F3B1A08800F0FCFA4FF6FF7364
:10887C00984217D0124B2A461978FFF723FCFFF7C2
:10888C009FFE0FE0808800F0EDFA4FF6FF739842E0
:10889C00044607D00B4B01221978FFF713FC204636
:1088AC00FFF720FF03B0BDE83040FFF731BF064BA8
:1088BC0019680129F6D1BFF35F8F1A60F2E700BF88
:1088CC006D3200206C320020643200202DE9F84318
:1088DC00FFF7D6FBDFF87890DFF8788089F8000096
:1088EC00FFF7CEFB88F80000FFF7CAFB1A4F1B4EB0
:1088FC003870FFF7C5FB3070FFF7C2FB184D194CF1
:10890C002870FFF7BDFB2070FFF7BAFB164B1870F1
:10891C0099F80030182B18D098F80030182B14D078
:10892C003B78182B11D03378182B0ED02B78182BB2
:10893C000BD02378182B08D0182806D00B4B00200E
:10894C001860BFF35F8FBDE8F8830320FBE700BF1F
:10895C006C3200206B3200206D3200206E32002011
:10896C0069320020683200206A3200206432002014
:10897C0073B50D4B0024CDE900340C4B0E4622464A
:10898C0019780546FFF79EFB094A0A4B2846A64272
:10899C0008BF1346019300F037FA2246694600F0EF
:1089AC00CBFD02B070BD00BF010009006932002090
:1089BC002CDE020030DE020070B503888488502B58
:1089CC0086B0054638D00ED8352B48D0362B63D020
:1089DC003F4B404918780022FFF792FB06B0BDE8E8
:1089EC007040FFF7EDBD522B22D0542BF0D1182242
:1089FC000021684604F0A6FC112320468DF80030B7
:108A0C00ADF8024000F000FAADF8040000F07EF979
:108A1C00314B204619780022FFF754FB2F4B204690
:108A2C0019780022FFF74EFB6846FFF772FDCFE77F
:108A3C002046FFF78DFDCBE7037B0189827A012B62
:108A4C00C6D1012AC4D142F602139942C0D1244B9B
:108A5C0020461978FFF736FBFFF75AFEB8E7214E90
:108A6C0020463178FFF716FB0028B1D00022317870
:108A7C002046FFF727FBEA883ABBAE89012E24D1AA
:108A8C00E9892046FFF73FFDF8B9174B32461978B4
:108A9C002046FFF717FB9BE7134E20463178FFF774
:108AAC00F9FA002894D0317800222046FFF70AFB0F
:108ABC00E98851B9EB89012B03D1297C003918BF06
:108ACC0001212046FFF754FF82E70021F9E700BFA0
:108ADC006B320020C98502006E3200206D320020FE
:108AEC006C320020683200206A320020AFDF704701
:108AFC00B1DF7047B2DF7047B3DF704710B5044683
:108B0C00808800F0AFF960802046BDE8104001F08D
:108B1C0049B80000F0B5184B184D93E8030089B024
:108B2C006E4686E803004FF6FF772888B8421CD0C3
:108B3C000022314600F000FD0446C0B1182200218D
:108B4C0002A804F0FFFB2B88ADF80C30112C0CD0D4
:108B5C00862C0CBF0623072302A80EBF8DF8083005
:108B6C008DF808300494FFF7C9FF09B0F0BD2888D0
:108B7C0000F039FD2880D8E734DE02007032002086
:108B8C00044B1A884FF6FF739A4201D0FFF7C2BF0D
:108B9C00704700BF70320020024B4FF6FF721A80F4
:108BAC0000207047703200202DE9F743804600F01A
:108BBC002BF94FF6FF739842064637D001274FF03A
:108BCC0003093A466B460821304600F07BFE01371C
:108BDC00BFB2054628BB01990A46032342F8049B01
:108BEC0006314046FFF786FF044648B93246082155
:108BFC00304600F0F2FE0446204603B0BDE8F08398
:108C0C000C280CD0052800D12C460821304600F049
:108C1C00BBFE002818BF0324002DD2D1ECE70125A0
:108C2C00F3E7072814BF04460C24E5E743F20204DB
:108C3C00E2E72DE9F341074600F0E6F84FF6FF7343
:108C4C00984218D10024032526464FF001082B46E4
:108C5C00224631463846FFF74BFF042821D008281E
:108C6C0025D00B281ED115F002030FD196B9ACB943
:108C7C0002B0BDE8F0816A46082100F01FFE002812
:108C8C00E0D1019B9C881D689E1DDEE701254FF0FD
:108C9C000008DCE703251C461E46F8E7032534468E
:108CAC00F5E71120B8F1000F08BF0B20E0E700201A
:108CBC00F8E71FB50DF10703039300F0A5F802AA1E
:108CCC00012100F0FBFD20B9039B187805B05DF87D
:108CDC0004FB0020FAE7000070B505460A48FFF7D0
:108CEC000BFF70B9084C43F2030621884FF6FF7254
:108CFC002846FFF7FBFEB04204D1238801332380C2
:108D0C00F3E7032070BD00BF7232002013B5074A91
:108D1C00044692E803006B4683E8030000221946E0
:108D2C00204600F009FC02B010BD00BF3CDE020082
:108D3C0046DF7047421E00F10F0312F8010F10B905
:108D4C009A42FAD170470120704708B570B171B1E1
:108D5C0003780A78534013F0FE0F08D10622013134
:108D6C00013004F01FFBB0FA80F0400908BD002070
:108D7C00FCE72DE9F04700F101084F1C06460D46B3
:108D8C0000F1110901F1110A10223946404604F094
:108D9C0009FB0446D0B94046FFF7CCFF18B1384662
:108DAC00FFF7C8FF044651464846FFF7CEFF737CD9
:108DBC0003F0FC03042B05D06B7C03F0FC03042BA9
:108DCC0018BF044604F00100BDE8F0870024EAE770
:108DDC007FB505460E4600F077FB02AA0DF10601A1
:108DEC00072000F079FB10B94FF6FF7409E0BDF8CD
:108DFC000640B442F1D003992846FFF7BAFF002889
:108E0C00EBD0204604B070BD132810B5044602D92F
:108E1C004FF6FF7010BDFFF7E7F80028F8D00A23D3
:108E2C005C43014B185BF5E774320020132838B50E
:108E3C0005460C4602D943F2020038BDFFF7D4F8C0
:108E4C000028F8D006480A2202FB0500D0F80230B0
:108E5C002360C388A380037AA3710020EDE700BFD1
:108E6C00743200204FF6FF7398422DE9F04105460D
:108E7C000CD00C4F00244FF00A0808FB04F3A6B2E8
:108E8C00DB5BAB4205D00134142CF6D14FF6FF76E8
:108E9C0004E03046FFF7A8F80028F4D03046BDE8CF
:108EAC00F08100BF74320020038843B9421C00F1EA
:108EBC00090312F8010F10B99A42FAD17047012038
:108ECC00704710B50446FFF7EFFF58B122880B88A6
:108EDC009A4208D108220231A01C04F063FAB0FABD
:108EEC0080F0400910BD0020FCE730B585B0044689
:108EFC0000F0EAFA02AA0DF10601072000F0ECFAE4
:108F0C0010B94FF6FF700FE0039D204605F14601A6
:108F1C00FFF7D7FF30B905F12A012046FFF7D1FF43
:108F2C000028E7D0BDF8060005B030BD13289FBF60
:108F3C000A235843014B1952704700BF743200206A
:108F4C0038B50546FFF78EFF0446284600F026FD8F
:108F5C0038B9132C05D80A235C43024B4FF6FF7229
:108F6C001A5338BD7432002070B58CB014466A4662
:108F7C000D4600F11003164613F8011D02F8011BF3
:108F8C009842F9D10D22002104A804F0DBF92B78CA
:108F9C008DF81F306B788DF81E303046AB788DF81D
:108FAC001D30FFF7C5FE9DF82F3023709DF82E3035
:108FBC0063709DF82D30A3700CB070BD1FB50346C7
:108FCC0008461A7802F0FE02042A1BD1DA78B3F8AC
:108FDC0001108DF806209A88ADF804109B79ADF835
:108FEC000C2003A902AA8DF80E30FFF7BDFF032257
:108FFC0002A901A804F0D6F9B0FA80F0400905B036
:10900C005DF804FB0020FAE730B50388102B93B011
:10901C004ED1041D0FCC07AD0FC50FCC0FC594E876
:10902C0007009DF8203003F0FE03062B85E80700AF
:10903C0009D000F049FA9DF82030032B4FEA530277
:10904C0004D9022A3DD04FF6FF7310E001AA0DF1AE
:10905C000201072000F040FA0028F4D0029908A879
:10906C001131FFF772FE0028F0D0BDF80230BDF8C8
:10907C001C4018480A226243811883529DF826200E
:10908C0008980A724FF6FF72C1F802009342BDF8BD
:10909C002400C8800CD0ADF8083001A80023ADF82E
:1090AC0006408DF8043000F07FFD01A8FFF7A8FB07
:1090BC0013B030BD029908A80131FFF77FFF0028DB
:1090CC00D3D101AA0DF10201072000F005FA002806
:1090DC00F0D1B8E77432002090DF7047A5DF7047FD
:1090EC00B5DF70471FB50023ADF80810ADF80A10B6
:1090FC006A4602A903930093ADF80430FFF7ECFF26
:10910C0005B05DF804FB80B14FF0F7130360FB234F
:10911C000371F723C3801723038141F6FB3200232D
:10912C00016143818281184670470E20704713B548
:10913C00034680880C4698B91A88242A76D011D810
:10914C00112A52D0232A7ED0102A2BD0A37A3BB1DD
:10915C00E1880020FFF7C2FF10B94FF480736381E0
:10916C0002B010BD3A2A49D0552AEFD1DB88C98804
:10917C00A072172B38BF17238B4228BF0B462381B5
:10918C00FFF7AEFFE37A002BE0D12369002BDDD093
:10919C0040F6772200922289ADF8042069462046D9
:1091AC009847D3E7DB7B0A790A73012B13D0022B88
:1091BC0014D0E18823898B4205D20020FFF78EFF63
:1091CC0070B90123E372217B637B8B42BED20020FA
:1091DC00FFF788FFBAE70B88E380EAE74B88FBE7E9
:1091EC00112804BF0123A372EDE7F723CB801723CB
:1091FC000B8141F6FB3348818B81A7E75B89CA88D9
:10920C00934228BF1346172B0A6938BF17230B81CB
:10921C004AB1C97A39B140F677210091ADF80430E2
:10922C00694620469047002363818FE71A7A0B69C1
:10923C004A73002B8AD04DF67A218DF805000091E7
:10924C008DF80420AAE7197A237B994228BF194686
:10925C00BEE74FF6FF73438000F080BA07B50023DA
:10926C00A1F58041A0F58040CDE9003389B26B4671
:10927C0080B203F007F9002818BF052003B05DF891
:10928C0004FB0000F0B5204E00238DB04FF6FF70AC
:10929C00CDE90133337000F053FC4FF6FF770446F1
:1092AC00BC4211D0A4F58045ADB201AA03A9284651
:1092BC0003F002F90A2809D0284603F099F8082887
:1092CC0005460BD1012333700DB0F0BD204600F0E4
:1092DC00DBFB204600F034FC0446E1E7002DF3D024
:1092EC00182200210DEB020004F02CF807238DF856
:1092FC00183006A80123ADF81C4008958DF82430D1
:10930C00FFF7A7FFE0E700BF4433002070B5044629
:10931C0086B018220021684604F014F8A08923783E
:10932C00344D00F5804080B2042BADF8040040D0E1
:10933C0008D85A1E022A12D92B780BB1FFF7A2FFBC
:10934C0006B070BD052BF7D16368002B4AD11323EF
:10935C008DF800304FF6FF73ADF804301DE043F686
:10936C00FE76B042E18904D901F5804292B2B24254
:10937C00E2D8DA1E534253418DF80930A3680393A7
:10938C0063688DF8081063B908238DF800309DF8D8
:10939C00103043F001038DF810306846FFF759FF89
:1093AC00CAE70922049301238DF800208DF81430AC
:1093BC00F3E743F6FE739842BED8E389002BBBD18A
:1093CC0063683BB90A238DF8003000F05DFB012384
:1093DC002B70E2E70B22029301238DF800208DF80D
:1093EC000C30F4E71422029301238DF800208DF841
:1093FC000C30AFE74433002030B5154889B002F08B
:10940C0089FE08BB02F09CFE0446F8B900F01CFB78
:10941C00CDE9034403AA05A94CF2070003F03FF879
:10942C0010B1204609B030BD01A905A802F08EFF8D
:10943C00019B9D8805F58045ADB205A802F0AAFFF9
:10944C00284600F009FBE5E70324EAE78624E8E771
:10945C0019930200F0B5FF2887B00E4615461F463B
:10946C002DD84B1EDBB2082B29D8164AD35633B352
:10947C0003AAFFF7F3FE18B10524204607B0F0BD90
:10948C0001A903A802F062FF04460028F4D1019B55
:10949C00AE705E8802992E8027B9696003A802F02D
:1094AC0079FFEAE73F886868B600B74228BF3746BD
:1094BC003A4603F011FFBE42F0D90C24DDE7072435
:1094CC00DBE700BF4CDE0200024B0022C3E90022A6
:1094DC00704700BF3C33002070B5431EDBB2082B35
:1094EC0086B005460E46144620D8114AD356EBB129
:1094FC00A0F580400F4A03A980B202F0D0FF10B152
:10950C00002006B070BD01A903A802F01FFF0028BF
:10951C00F6D1019BA5705A889B88228003F5804365
:10952C00029A626003A8338002F034FF0120E8E75E
:10953C004CDE02003C33002070B5FF2886B00C4690
:10954C00154636D889784A1ED2B2082A31D81C4E14
:10955C00B25672B3A0F58043ADF80030A1F580434C
:10956C00ADF802306368019303AA23880293FFF7D6
:10957C0075FE0528694603A80AD102F02DFF0728BD
:10958C00044618D007D868B10324204606B070BD35
:10959C0002F026FFF3E708280FD00E2814BF03248F
:1095AC001124F2E7002DF0D0294603A802F091FF18
:1095BC00EBE70724E9E78624E7E71124E5E700BF9A
:1095CC004CDE02004FF6FF7000F046BAFF2808B5DB
:1095DC0005D800F047FAFFF755FE002008BD07201C
:1095EC00FCE700F065BA00F091BA00F0A9BA0000EF
:1095FC000A68084B70B50C25032A01D9002006E037
:10960C0005FB02F4E65A864202D10A60181970BDB5
:10961C000132F1E79C34002037B500230D46044697
:10962C00019301A9FFF7E4FF38B18378AB4206D16F
:10963C00837A9B0703D143680BB903B030BD019B00
:10964C000133019301A92046ECE710B5044600F064
:10965C00C5FB204601F0C4FA2046FFF791FA2046DC
:10966C00BDE81040FFF7E8B870B50E4E0446002573
:10967C00237AAB420DD84FF6FF732380A3700023DF
:10968C0063604FF47F432381A37A23F00303A37217
:10969C0070BD617A2944C9B2304600F0DBFD01355A
:1096AC00E6E700BF8C34002013B50023CDE900336E
:1096BC00417A83788DF802300446264800F0B1FDDB
:1096CC0060B3237AA2788DF8022003EB83039B000E
:1096DC00ADF80030531E0190072B08D8DFE803F0DB
:1096EC0016070707071604181423ADF80030224696
:1096FC00694632F8040BFFF71FFF112815D00BD861
:10970C0070B1072818BF032002B010BD0123ECE78D
:10971C00838809339B08E8E7862811D00320F3E7F8
:10972C00A37A23F00303A372EEE7A37A23F00303D7
:10973C0043F00203A372084B01221A700020E3E7E6
:10974C00A37A23F0030343F00103A372024B01221B
:10975C001A70D9E78C340020883400202DE9F047AA
:10976C003A4EC16886B005463246002337465068EB
:10977C0081421BD10C2202FB03702B78DFF8D080C6
:10978C00092B1AD0132B55D0082B55D16C7A002CE1
:10979C0052D1002852D0FFF767FF2846FFF755FF3C
:1097AC0098F800309BB906B0BDE8F0870133042B64
:1097BC0002F10C02DBD10020DFE76C7A002C3BD1EC
:1097CC0000283BD0827A446042F00202827200256B
:1097DC0088F800504FF00C094FF0010A09FB057393
:1097EC009B7A9907C3F3400201D4DB0728D588F88C
:1097FC0000A002B924B33046FFF756FF00B34FF672
:10980C00FF73ADF802300C236B438628FB5AADF87E
:10981C00043017BF072306238DF80030029018BFC1
:10982C00002368460CBF8DF800308DF80C30FFF724
:10983C000CFFB8E70124B0E70024AEE70446ACE720
:10984C000135042D06F10C06C8D1ACE79C34002080
:10985C0088340020154BF7B500221E464FF6FF75D5
:10986C004FF0FF0C0C27104607FB02641D809D7007
:10987C0083F809C0A17A013221F00301042AA172F4
:10988C0003F10C0303F8040C43F8080CECD150233F
:10989C00CDE900230649074B07484FF4A07200F0AE
:1098AC00ACFC002818BF032003B0F0BD9C34002092
:1098BC0048330020CC3400208C3400200023FFF7E8
:1098CC00C9BD00002DE9F04180460E4614461F46E6
:1098DC00002B4FD0CB1F012B4FD8531E032B4CD832
:1098EC00FFF79AFE054610BBFF214FF6FF70FFF7FE
:1098FC0093FE0546C8B1A0F8008086706B7AFF2BEA
:10990C001AD12048214600F0BDFCFF2868722ED1E8
:10991C004FF6FF732B8000236B604FF47F432B813A
:10992C00AB7AA87023F00303AB72112023E0037A07
:10993C00A342E3D00F201EE04FF00008697A1148D3
:10994C002C7200F06EFCD0B104EB840424010334BF
:10995C00C4F38D04BE7078603C80B8F1000F04D065
:10996C00082E02D1A400063C8480002003E04FF0B6
:10997C000108E3E70E20BDE8F0810720FBE7032098
:10998C00F9E700BF8C34002008B5FFF745FE18B18D
:10999C00FFF76AFE002008BD0520FCE713B5002385
:1099AC000446019301A9FFF723FE30B92046FFF7C7
:1099BC000DFE50B1072807D107E081782046FFF74C
:1099CC00E3FF20B1052802D0032002B010BD019B9B
:1099DC000133019301A92046E5E7CB1F012B70B59C
:1099EC0006460C46154601D9072070BD1046FFF7F8
:1099FC00F8FD0028F8D021463046FFF70DFE28B1BF
:109A0C0084700580BDE87040FFF74EBE0520ECE782
:109A1C0010B54FF6FF7304469C4208460AD14FF42A
:109A2C00807102F032FE84B2B4F5807F09D14FF61A
:109A3C00FF7406E0FF2CFAD8214602F005FE002840
:109A4C00F5D1204610BD000002484022002103F051
:109A5C0079BC00BFD03400200149FFF7D9BF00BF4B
:109A6C00D03400204FF6FF73984210B5044606D050
:109A7C000449FFF7CDFF231A5842584110BD00206E
:109A8C00FCE700BFF0340020FF2810B5044609D8CD
:109A9C000146054802F0E6FD21460448BDE81040A9
:109AAC0002F0E0BD10BD00BFD0340020F034002027
:109ABC00FF28014602D8024802F0DEBD00207047A4
:109ACC00D0340020FF28014602D8024802F0D4BD51
:109ADC0000207047F03400204FF6FF73984270B5A9
:109AEC0018BF441C0E4614BFA4B20024A5B2FF2D0F
:109AFC0002D94FF6FF7506E02146304602F0BCFD58
:109B0C0001340028F2D0284670BD000070B50B4916
:109B1C000A4EFFF7E1FF4FF6FF750446AC4201D148
:109B2C00204670BD2046FFF7CDFF0028F8D0204618
:109B3C003146FFF7D1FF0446F0E700BFD0340020D8
:109B4C000149FFF7C9BF00BFF0340020F8B5074E3C
:109B5C00074F054600243B78A34200DCF8BD56F8BD
:109B6C00043B284698470134F5E700BF1835002020
:109B7C0027350020074B1B7810B504464BB1FFF777
:109B8C0043FA204601F068F82046BDE81040FEF785
:109B9C0013BF10BD2635002008B1FFF7D7BF7047A3
:109BAC00FFF7D4BFFFF7D2BFFFF7D0BF08B5FFF761
:109BBC0023FC08B1032008BDFFF74CFE0028F9D1A7
:109BCC0001F02EF80028F5D100F074FC0028F1D13A
:109BDC00FEF77CFE0028EDD1FEF7DEFF0028E9D170
:109BEC00054B4FF6FF721A80044B1860044B18702B
:109BFC00044B01221A70DEE7243500202C3500209E
:109C0C002835002026350020084B1B7853B1084A14
:109C1C001378022B08D8074941F82300013313703D
:109C2C00002070470820704704207047263500201C
:109C3C002735002018350020034B1B780BB101F0A1
:109C4C0025B80820704700BF2635002008B5054B05
:109C5C001B782BB101F038F8082808BF112008BD7B
:109C6C000820FCE72635002038B5194B1B78054633
:109C7C000C4633B339B3FEF7CFF930B3821E5342DF
:109C8C005341227863F3000222702846FFF7BCF898
:109C9C004FF6FF73C01A237818BF012060F3C3037B
:109CAC0023702846FEF7C6F9237860F3410323702E
:109CBC002846FEF7CDF9237860F382032370002049
:109CCC0038BD0820FCE70E20FAE743F20200F7E764
:109CDC0026350020034B1B780BB1FFF731B9082058
:109CEC00704700BF263500202DE9F04F87B0814624
:109CFC0001932E4B1B7888461646002B53D04FF6FB
:109D0C00FF70FFF770FC0423ADF80A3003AB00259D
:109D1C00059304AA0DF10A03062104460395049544
:109D2C00FFF798FB07283AD04FF6FF77BB464FF06A
:109D3C00FF3AF0B1052825D04FF6FF739C4230D185
:109D4C00A3452AD0A7420CBF05200020B9F1000F73
:109D5C0001D0A9F800B0B8F1000F01D0C8F800503C
:109D6C0006B13780019B0BB1C3F800A007B0BDE86A
:109D7C00F08F039BAB4224BFA3461D4653453CBF0B
:109D8C0027469A462046FFF72EFC0DF10A0304AA3B
:109D9C0006210446FFF75EFBCBE70520D6E705203E
:109DAC00E4E70320E2E70820E0E700BF26350020C7
:109DBC0008B50023064907481A46FFF795FF28B156
:109DCC00431F58425841044B187008BD0120FAE754
:109DDC00103500202435002028350020F0B504462D
:109DEC0087B08088FFF73EF823786080083B032B10
:109DFC0020D8DFE803F002253569637A5BB9424A63
:109E0C00116851B1E068814207D113603F4AA188C3
:109E1C001180E3600EE0012B0CD13D4B1B784BB154
:109E2C003A4BA2881B889A4204D1237A062B01D183
:109E3C00FFF7BEFF204607B0BDE8F040FFF786BE37
:109E4C00637A002BF6D1304A11680029F2D0E06811
:109E5C008142EFD12F4913600A68013A0A60D8E7B2
:109E6C002D4F3B786BB90125294B1B7833B1274B10
:109E7C00A2881B889A4201D1FFF79AFF002D41D08E
:109E8C00D8E74FF6FF70FFF7AEFB4FF6FF73984223
:109E9C000546E8D1FFF7A9FBA8420646E3D1002509
:109EAC001822294668463D7003F04CFA0C232046D4
:109EBC008DF80030ADF80460ADF80260FFF746FE97
:109ECC006846FFF743FECFE7134B1A78002AB1D050
:109EDC00002118226846197003F034FA0D238DF80E
:109EEC0000304FF6FF73ADF80430ADF80230A368C4
:109EFC0002932046237B8DF80C30FFF727FE684633
:109F0C00FFF724FE07B0F0BD2C35002024350020CF
:109F1C002835002010350020143500202DE9F041A3
:109F2C00304B1B7888B00546002B57D02E4B2F4C4E
:109F3C0093E8030023786F4687E803004BB1DFF802
:109F4C00B080D8F8004054B11124204608B0BDE8C8
:109F5C00F081FFF72DFF2378002BF5D0EFE7254A92
:109F6C00254E12883368AA421DD1F3B1182221461E
:109F7C0002A803F0E7F9082328468DF80830FEF70D
:109F8C0071FF0623ADF810309DF81830ADF80A00BB
:109F9C0064F3000302A8ADF80C5005948DF818304A
:109FAC00FFF7D4FDD1E75A1C1AD00133104A3360A5
:109FBC0039462846FFF7C0FA04460028C5D00023CE
:109FCC00C8F800303368112803F1FF333360BBD07D
:109FDC008628BAD0072818BF0324B6E70824B4E7AC
:109FEC001324B2E72635002058DE02002835002065
:109FFC002C350020243500201035002076DF7047EA
:10A00C0013B5044669B901A9FFF72EFE43F202020B
:10A01C00904202D008B101F089F89DF804309B07FA
:10A02C001AD400212046FFF711FEA8B1112813D035
:10A03C000D2806D11321204602B0BDE81040FFF7D1
:10A04C00DDBF0B2808D043F20202904204D002B0CC
:10A05C00BDE8104001F06AB802B010BD017811B92A
:10A06C004088FFF7CDBF072903D1806808B101F004
:10A07C005DB870472DE9F041037886B00446142B87
:10A08C0042D8DFE803F00B413341414144416C417C
:10A09C006C41414141414141417096008088FFF73C
:10A0AC003DFF86280ED011280CD008D860B3831F32
:10A0BC00012B29D906B0BDE8F04101F037B81328BF
:10A0CC00F8D121E04149424A0B68A08822F81300DC
:10A0DC0001335A4202F0070203F0070358BF534200
:10A0EC000B6006B0BDE8F04100F078B8037A012BA4
:10A0FC000AD8848818220021684603F023F96846A0
:10A10C00ADF80440FFF7B6FF06B0BDE8F081314D65
:10A11C002B78002BF8D1304E3378C3B96A461946E8
:10A12C001846FFF7E1FD044648B9BDF80000FFF7FB
:10A13C00D1FD044608B100F0F9FF01233370631F11
:10A14C00012BE1D91CB1204600F0F0FFDCE702F056
:10A15C0075F910B901232B70D6E70828B0E71E4B10
:10A16C0001221A70D0E71B4B194D00241C701A4B9E
:10A17C001C70164B1F684FF6FF763B195A4202F0C3
:10A18C00070203F0070358BF534235F81380B0455C
:10A19C000BD025F8136018220021684603F0D2F882
:10A1AC006846ADF80480FFF765FF0134082CE4D154
:10A1BC00AAE7084B00221A70037B002BA4D08368FB
:10A1CC000E2B8ED0012B9FD18BE700BF3435002096
:10A1DC00FC2B002030350020313500207FB51822B3
:10A1EC000021684603F0AEF8062368468DF800306F
:10A1FC00FFF740FF07B05DF804FB70B5DDE90454D0
:10A20C0068B161B15BB104FB05F6964207D835B174
:10A21C002CB1C0E90013C0E90254002070BD072026
:10A22C00FCE738B50D46044608B9002038BD036874
:10A23C00002BFAD040680028F7D0FF29F5D0BFF3E7
:10A24C005F8F02F019FA0028EFD0E368206803FB57
:10A25C000500EBE738B50D46044690B1036883B1B1
:10A26C00406870B1FF290CD0BFF35F8F02F004FA85
:10A27C0038B16068BFF35F8F2946BDE8384002F003
:10A28C00F1B938BD2DE9F0418846064618B9FF24CE
:10A29C002046BDE8F0810368002BF8D04368002B02
:10A2AC00F5D00027FF24B368FDB29D42EFD2706851
:10A2BC00294602F0C9F9BFF35F8F40B9FF2C08BFE4
:10A2CC002C462D1B01354545E2D00137EBE7FF2C21
:10A2DC0007D1FF24F9E721463046FFF7BBFF0134D5
:10A2EC00E4B2AC42F7D3F4E77EDF70477FDF704710
:10A2FC0086DF704710B50378182B044602D1FDF7A2
:10A30C00BFFE207010BD10B504464088FEF77CFDE2
:10A31C00A0802046BDE8104000F032BC10B586B0DD
:10A32C00044618220021684603F00CF80423684602
:10A33C008DF80030ADF80240FFF7E5FF06B010BD18
:10A34C0030B587B005460C4618220021684602F04D
:10A35C00F9FF072368468DF80030ADF802500294DF
:10A36C00FFF7D1FF07B030BDF0B587B004460F46FC
:10A37C0016460021182268461D4602F0E3FF03230F
:10A38C008DF80030094BADF8024019788DF8087043
:10A39C0000222046ADF80A608DF80C50FDF792FEB5
:10A3AC006846FFF7B0FF07B0F0BD00BF0D2C0020D2
:10A3BC007FB502238DF800300388ADF80230437965
:10A3CC008DF8091013F0040F14BF01230223684603
:10A3DC008DF80830FFF797FF07B05DF804FB00001D
:10A3EC0030B5144B87B00C46012219780546FDF7A1
:10A3FC0069FE114B221E1978284618BF0122FDF761
:10A40C0061FE631E5A425A410C4B28461978FDF7DF
:10A41C0059FE18220021684602F094FF0123684679
:10A42C008DF80030ADF802508DF80840FFF76BFF47
:10A43C0007B030BD0D2C00200F2C00200E2C00205E
:10A44C002DE9F041184B0E46197804461746FDF7D6
:10A45C0021FE30B3154B20461978FDF71BFE014643
:10A46C00E0B1134B20461978FDF714FEC0F102053C
:10A47C0004F58070072180B2FFF786FAEDB2014631
:10A48C0020B1052802D02046FFF75AFF3B46324642
:10A49C0029462046BDE8F041FFF766BF3B463246F1
:10A4AC00F7E7BDE8F08100BF0D2C00200F2C002039
:10A4BC000E2C0020F8B5104F104E114D114C384693
:10A4CC00FFF718FF3046FFF715FF2846FFF712FF7E
:10A4DC002046FFF70FFF3B78182B0BD03378182B47
:10A4EC0008D02B78182B05D02378182B0CBF032001
:10A4FC000020F8BD0320FCE70D2C00200F2C0020C1
:10A50C000E2C00200C2C00202DE9F0418AB00E46B8
:10A51C0017460446FDF772FD20220546002102A8CD
:10A52C0002F010FF012D08D1364B0022197820467D
:10A53C00FDF7C8FD36B9852114E0002D5BD143F23F
:10A54C00020053E02046FEF75FFC4FF6FF73984283
:10A55C000ED100213378DB0721D42B4B05970993BF
:10A56C00012D4BD102AB32462046FFF7BFFE3DE03A
:10A57C00012DEED1DFF88C80204698F80010FDF705
:10A58C0089FD0028E5D12046FFF7C8FE98F8001099
:10A59C002046FDF77FFD0028DBD18521DAE78529F0
:10A5AC00DED004F580706B460122072180B2FFF7E4
:10A5BC0089F911281AD0E0B901465022019802F00D
:10A5CC00C1FE01990B46204603F8345B029301F15E
:10A5DC00180306934B1C079311310B4B05970993EA
:10A5EC00FEF724FC01460028BAD008200AB0BDE8CA
:10A5FC00F0810320FAE7002EA4D1852102AB0022C2
:10A60C00B2E700BF0C2C00203835002038B50546C9
:10A61C000C46FDF7F3FC012808D154B1214628461D
:10A62C00FFF762FE042808BF112038BD43F2020078
:10A63C00FBE72046F9E700002DE9F0470388113BC2
:10A64C0088B00446092B5ED8DFE813F00A005D00E1
:10A65C00190039005D005D005D005D008A001E017F
:10A66C00037A80883D2B41F23D014FF0000218BF68
:10A67C004FF4885108B0BDE8F047FFF7E1BE808881
:10A68C00FDF7BCFC012808D1217AA08801F001015A
:10A69C00C1F10201C9B2FFF7A3FE34F8045F18221E
:10A6AC00002102A802F04EFE043405238DF8083078
:10A6BC00ADF80A50049402A8FFF725FE23E000F140
:10A6CC0010063046FEF711FC4FF6FF739842054614
:10A6DC00A0881BD1FEF798FB0546A0880021FFF748
:10A6EC007FFE4FF6FF739D4214D1002500232946AF
:10A6FC00A0881A46FFF7FCFD0828014603D010B3CA
:10A70C00A088FFF71DFE08B0BDE8F0872946FEF7CC
:10A71C000DFCE2E702AA07212846FFF7CFF8002834
:10A72C00E3D1A37E039DD907DFD595F84430DA0732
:10A73C0001D53435DAE7314605F14600FEF7C1FBA9
:10A74C000028F6D1D1E7A37EDB07DCD5002DDAD1CA
:10A75C00A0882B4641F206022946FFF705FED2E7F8
:10A76C00067A8588002E40F089805A4B071D19788F
:10A77C0032462846FDF7A6FC617A11F0040105D19A
:10A78C00384608B0BDE8F047FFF712BE05F58079F2
:10A79C001FFA89F96B46012207214846FFF792F808
:10A7AC00804640B101462846FFF7CAFD314638467F
:10A7BC00FFF7FEFDA7E72846FEF726FB4FF6FF73D3
:10A7CC0098420446824639D101460198FEF700FBB7
:10A7DC0050450446064620D0DFF8FCA0014628462A
:10A7EC00FEF7A4FB9AF800102846FDF753FC06462A
:10A7FC0020BB2846FFF792FD9AF800102846FDF77B
:10A80C0049FC01460028D2D0072122464846FFF7D2
:10A81C00E4F80146A0B90121C9E7FEF7D3FEB04226
:10A82C00044605D104212846FFF78AFD4146BEE7C0
:10A83C0001462846FEF77AFB0126E5E74646E3E7A4
:10A84C0086280DD11822002102A802F07BFD0623D8
:10A85C0002A88DF80830ADF80A50FFF754FDDAE77E
:10A86C002846FFF76DFD00213846FFF7A1FD002EAD
:10A87C003FF449AF2046FEF763FB44E7427A31468A
:10A88C0002F003022846F5E6144B80881978FDF790
:10A89C0001FC054600287FF436AFA088FDF7CAFB03
:10A8AC000146A08839B9012341F2060208B0BDE87F
:10A8BC00F047FFF759BD074B2A461978FDF702FC04
:10A8CC0002238DF80830A388ADF80A30ADF810508B
:10A8DC00F1E600BF0D2C00200C2C00200F2C0020CA
:10A8EC00034660B3027802F08201802927D0C2F3BC
:10A8FC000211042923D802F0F20132291FD040782A
:10A90C00997888421BD8062819D9102917D8D978D4
:10A91C0011F0040013D11B7913F0040F10D141EA8C
:10A92C00030001070BD4D30700F0030003D4B0FAE3
:10A93C0080F040097047003818BF01207047002094
:10A94C007047FFF729B910B50378182B044602D1CC
:10A95C00FDF796FB207010BD70B5112986B0064628
:10A96C000C46154603D81A4BCB40DB0723D41822D0
:10A97C000021684602F0E6FC3046ADF80260FEF7B6
:10A98C0043FA0D2CADF8040019D103238DF80030D7
:10A99C009DB12B7803F00103C3F10203DBB28DF8F8
:10A9AC00083000238DF80C3041F20113ADF80A3059
:10A9BC006846FFF7C6FF06B070BD0223EFE707231A
:10A9CC008DF80030002302948DF80C30F0E700BFB6
:10A9DC00010102002DE9F0411D4B8AB00027CDE9A1
:10A9EC0005771B68049304AD0446884695E8070078
:10A9FC0001AE86E80700052320468DF81030ADF82F
:10AA0C001240FEF701FAADF814002846CDE906868F
:10AA1C00FFF797FF0F4B01991A682046FFF774FD5B
:10AA2C00A0F111035A425A410B4B054619782046A6
:10AA3C00FDF748FB094B3A4619782046FDF742FBD7
:10AA4C00019A29462046FFF787FF0AB0BDE8F0813E
:10AA5C008435002078350020132C0020122C002087
:10AA6C000021FFF7B7BF00002DE9F04705468AB07B
:10AA7C00174698468A4631BB304BCDE905111B6809
:10AA8C00049304AE96E807000DF1040989E8070069
:10AA9C00052428468DF81040ADF81250FEF7B4F995
:10AAAC00ADF814003046CDE906A9FFF74AFF244B58
:10AABC00DDF804901B7843B99DF80D302BB9204676
:10AACC000AB0BDE8F0874FF000093A4649462846DF
:10AADC00FFF79CFDA0F111035A425A41194B06464F
:10AAEC0019782846FDF7EEFA112E11D80124B4403E
:10AAFC0042F601131C401ED1112E0FD00324B8F1C5
:10AB0C00000FDCD04A4631462846FFF725FFD6E732
:10AB1C0043F20204A64218BF0324F0E70A4B524644
:10AB2C0019782846FDF7CEFA084B3A46197828468C
:10AB3C00FDF7C8FAE3E73446E1E700BF84350020AF
:10AB4C0081350020122C0020112C0020102C00200C
:10AB5C0070B5094B19780446FDF79CFA074B05466E
:10AB6C0019782046FDF796FA2A460146012320461D
:10AB7C00BDE87040FFF778BF102C0020112C00208E
:10AB8C0010B50378052B044606D0122B0AD02046AC
:10AB9C00BDE81040FFF7D5BE81684088BDE8104085
:10ABAC00FFF718BF0C4B1B689BB10C4B017A1B7841
:10ABBC0003F0010291420CD8417AC3F3400399424D
:10ABCC0094BF00210121608801230022FFF74CFF74
:10ABDC00DDE70121F7E700BF843500207C3500203C
:10ABEC0008B503780B2B0FD8072B0FD9084B094945
:10ABFC0018780022FDF784FA074B084918780022D0
:10AC0C00BDE80840FDF77CBA132BEFD008BD00BFA0
:10AC1C00132C00206DAA0200122C00205DAB020048
:10AC2C0010B50948094CFFF78EFE0948FFF78BFE5B
:10AC3C000848FFF788FE2046FFF785FE2378182B7F
:10AC4C000CBF0320002010BD122C0020132C002060
:10AC5C00102C0020112C002008B5FFF7EDFC074B41
:10AC6C00074918780022FDF74BFA064B064918786D
:10AC7C000022BDE80840FDF743BA00BF132C0020AA
:10AC8C006DAA0200122C00205DAB020010B5044628
:10AC9C0030B90A4B18600A4B01221A70002010BD03
:10ACAC00FFF71EFE38B1074B22681A6022791A7121
:10ACBC00024A1360EFE70720F1E700BF843500205C
:10ACCC00813500207C35002000230A461946FFF709
:10ACDC00CBBE000038B5074C051E04F1080318BFA5
:10ACEC001C4623682BB11A6822605B68284698477B
:10ACFC00F7E738BD9035002020B9054B01225A707A
:10AD0C00FFF7E8BF012802D1014A9070F8E77047BD
:10AD1C008835002020B9034B01225A70FFF7DABFA7
:10AD2C00704700BF8835002038B50B4C237883B9A9
:10AD3C000A486360A3602361E36000F063F8054692
:10AD4C0002F028F908B900F06BF8012323702846AB
:10AD5C0038BD8525FBE700BF8835002005AD020016
:10AD6C0037B50B4C00230DF107008DF8073000F0C0
:10AD7C00C3FCE368013BE360E56815B900F062F8D9
:10AD8C00A5709DF8070000F0DBFC03B030BD00BFE0
:10AD9C0088350020012813B508D003281CD018B919
:10ADAC00114B0122C3F8802002B010BD0F4C0023C0
:10ADBC000DF107008DF8073000F09EFC23780BB9DD
:10ADCC00FFF7B2FFE3689DF807000133E36001234E
:10ADDC00A37000F0B5FCE7E700F022F802B0BDE884
:10ADEC001040FFF7BDBF00BF00E100E08835002038
:10ADFC0000F18040002382B0036003680193019B43
:10AE0C0002B07047054A13792BB901211060937178
:10AE1C009180184670478520704700BF9C350020F4
:10AE2C00074B1A68D2075FBFC02283F800230122A8
:10AE3C001A604FF080430022C3F81825704700BFFA
:10AE4C0000E100E04FF080430122DA60D3F81824CF
:10AE5C00D203FBD4704700004FF0804110B5D1F8FD
:10AE6C00003163B14FF48070FFF7C2FF1F4B58796C
:10AE7C000122C1F8082310B95A711B6898474FF08A
:10AE8C008042D2F8043153B14FF48270FFF7B0FF17
:10AE9C000223C2F80833154B01201B6898474FF06A
:10AEAC008042D2F8103153B14FF48870FFF7A0FFF5
:10AEBC001023C2F808330D4B02201B6898474FF043
:10AECC008042D2F80C3183B100214FF48670C2F865
:10AEDC00341CFFF78DFF0823C2F80833034B99711C
:10AEEC00BDE810401B680320184710BD9C3500209E
:10AEFC0000F1804000F5C040002382B0036003687D
:10AF0C000193019B02B0704703681F2B83BF03F0B2
:10AF1C001F03036001484FF0A0407047000300502E
:10AF2C0007B5019001A8FFF7EFFF019B00EB830031
:10AF3C00D0F8003723F44033C0F80037D0F800378E
:10AF4C0043EA0141C0F8001703B05DF804FBC208E6
:10AF5C00012300F007008340885C03438B54704747
:10AF6C002DE9F04F00248BB0CDE90444654D4FF42E
:10AF7C008072012102F1804303F5C04390B21B683B
:10AF8C00012B06D1D5F804330B4202D0FFF7B0FFEA
:10AF9C000C430432B2F5907F4FEA4101EAD1594B90
:10AFAC00D3F87C31012B0ED14FF4BE70FFF7A0FF0C
:10AFBC004FF0A04344F00044D3F810350493524BA7
:10AFCC00D3F810350593E3B2D3B1504F01260025C9
:10AFDC00344210D0AB0003F1804303F5C043D3F8E7
:10AFEC001005D3F8101557F8253023B1C1F30141E2
:10AFFC00C0F3052098470135082D4FEA4606E7D1E6
:10B00C00002C7BDA0023CDE906334FF0FF33CDE97A
:10B01C000833DFF8F8A03E4B019300252F46019B27
:10B02C0013F9014F0193631C4FD0C4F3C2060122E4
:10B03C00E3B204F03F0B04F0070402FA04F406F147
:10B04C0028020DEB020616F8081C21423DD00AEB33
:10B05C000B014FEA931991F930105AF82180B8F18D
:10B06C00000F07D1B9F1030F2FD106A95846FFF7EE
:10B07C006EFF02E0B9F1030FF7D003A8CDF80CB0C6
:10B08C00FFF742FF039901F5E07150F8211016F813
:10B09C00180C2042C1F3014106D0022915D1B9F197
:10B0AC00030F0CD1494605E003290ED1B9F1030F6A
:10B0BC0005D102215846FFF733FF0135EDB2B8F147
:10B0CC00000F02D049465846C0470137042FA6D17D
:10B0DC00A5B14FF0A0430499D3F8102503F54073A4
:10B0EC009142D3F8103502D10599994206D00492B9
:10B0FC000593069A079B089209938CE70BB0BDE861
:10B10C00F08F00BF0060004000030050A435002009
:10B11C0003360020014B1B68184700BF1036002077
:10B12C00014B1B68184700BF183600201FB50021C3
:10B13C00039001AA44F20100CDE9011100F01AF8C4
:10B14C0005B05DF804FB0000BFF34F8F00BF074B49
:10B15C00DB6803F4E0620549054B1343CB60BFF396
:10B16C004F8F00BF00BF00BFFCE700BF00ED00E049
:10B17C000400FA0500B585B003900291019272B6F5
:10B18C0000BFFFF7E1FF00BF05B05DF804FB000056
:10B19C00094B5A7899780132D2B2914208BF0022F9
:10B1AC00197891421FBF02705A78182101FB0230A6
:10B1BC0014BF0430002070472036002073B50546BC
:10B1CC0000240DF107000E468DF8074000F094FAAC
:10B1DC000DF10600FFF7DCFF90B10670094B9DF8EE
:10B1EC00062045605A709DF8070000F0A9FA24B9B2
:10B1FC00054B4FF48012C3F80021204602B070BDFD
:10B20C000424F0E72036002000E100E0024B4FF46C
:10B21C003C6043F00103184760DE020038B50C4B6C
:10B22C000C4C4FF40032C3F8802001254FF48033CE
:10B23C00C4F84833C4F808336560FFF7E7FF064BE2
:10B24C00A56000241C60FFF7E1FF044B1C7038BDA7
:10B25C0000E100E0001001403C3700202D370020B9
:10B26C00F8B51F4B1F491B680025C1F84051C1F8A8
:10B27C004451C1F84851C1F84C51C1F80051C1F8C2
:10B28C0004514BB3D1F8044517490968641A24F0EA
:10B29C007F442F461A68A24209D8A41A15441A7C76
:10B2AC00DE691AB1D3E905201F749047AEB90F4A75
:10B2BC000F4B11781B788B4205D10133DBB2022B7B
:10B2CC0008BF0023137012780A4B43F822500A4B24
:10B2DC004FF48012C3F80021F8BD3346DAE700BF03
:10B2EC0040370020001001403C3700203937002047
:10B2FC00383700203037002000E100E02DE9F04F16
:10B30C009F4AA049137809789F4D994285B03CD04B
:10B31C000133DBB2022B08BF002313709B49127858
:10B32C009B4B0F6853F822003B1823F07F430022FD
:10B33C000B602B6816461446944613B942B12B6029
:10B34C0006E0196881420ED902B12B60091A196006
:10B35C0001272B68DFF83CA201934FF00008BEB91F
:10B36C00DFF834B25EE0401A0C44D968D3F81CE024
:10B37C00C3F800C031B13A1922F07F42C3E9012170
:10B38C00DE611E4673460122D7E700263746E0E70A
:10B39C003446F6697D4B60681A68DFF800C2A36812
:10B3AC00811A21F07F41614500F2A4800B440121F8
:10B3BC002174296823600022C4E90122E26100297A
:10B3CC0040F0A0802C60CAE79BF802105A1CD2B245
:10B3DC00914208BF00228BF80020182202FB03B315
:10B3EC002A6819799C68022975D003297FD0012914
:10B3FC0018D1207CB0B9D3E90312A2605A69E2607B
:10B40C009A69674BA2611A78002A18BF01466160DD
:10B41C00C0E78C4200F092808946C9690029F8D1B6
:10B42C00002323749BF800309BF801209A42CBD167
:10B43C002B68B8F1000F04D1019A9A4201D1002F68
:10B44C0043D0002B77D0D3F800A0524D4F4BD5F8FA
:10B45C0004751C68DFF84C813E1B98F8003026F010
:10B46C007F4603369BB94FF48033C5F84433C5F897
:10B47C0004334D4B4FF400324FF00109C3F88021D7
:10B48C001A60C5F80090FFF7C1FE88F80090B2452D
:10B49C002CBF5444A41924F07F44C5F84045D5F87A
:10B4AC000435DB1B23F07F43E41B033324F07F4480
:10B4BC00A3420AD9D5F80435C5F84035FFF7A6FEE6
:10B4CC00394B4FF40032C3F80021354B00221A706F
:10B4DC0005B0BDE8F08F114691469FE71174D26913
:10B4EC000123002AFAD1002B9CD02A609AE7002372
:10B4FC001946F6E7121A22F07F429A4234BF9B1A81
:10B50C00002354E70A689A4213D3D21A0A60E16105
:10B51C0058E71B1AD069114638B102461068984298
:10B52C00F7D3C01A106010460A462360E061D4615C
:10B53C0015E70A46F2E7FFF771FEC6E74C4511D155
:10B54C00D3692B6073B9DFF844E00120CDE9021216
:10B55C00CAF80800CEF80030114B1870FFF756FEF1
:10B56C00DDE902120B68C969C9F81C1011B1086831
:10B57C0003440B602B68934218BF4FF001084FE750
:10B58C003837002039370020403700203C37002066
:10B59C00303700200010014020360020FEFF7F00D5
:10B5AC002C3700202D37002000E100E008B5FFF714
:10B5BC0035FE104B00200B2218809A700E4B186031
:10B5CC000E4B18700E4B18700E4B4FF48012C0219E
:10B5DC00C3F8802183F814131A6002F18042A2F59B
:10B5EC006F22C2F8080583F81113074BD2F8042513
:10B5FC001A6008BD20360020403700203837002064
:10B60C003937002000E100E03C370020074B9B78E5
:10B61C004BB132B128B10368187C20B959745A6106
:10B62C007047072070470820704700BF2036002065
:10B63C002DE9F743DFF87C8098F8023005460E467A
:10B64C001746ABB3A0B3042930D9436983B3437C09
:10B65C000024012B0DF107000CBF8946A1468DF883
:10B66C00074000F049F80DF10600FFF791FDD8B145
:10B67C0001230370104B4560D3F80435C0E90497DF
:10B68C00C0E902369DF8063088F801309DF80700B5
:10B69C0000F056F824B9094B4FF48012C3F800217E
:10B6AC00204603B0BDE8F0830424EFE70724F7E756
:10B6BC000824F5E7203600200010014000E100E0EE
:10B6CC00064A92783AB130B1426922B10022027432
:10B6DC000221FFF773BD0820704700BF2036002001
:10B6EC00044B9B781BB103210020FFF767BD08209A
:10B6FC00704700BF2036002070B5EFF3108672B68D
:10B70C000C4A9468012384B993600B4B0B4DD3F80E
:10B71C00801029401160C3F88050D3F88410516018
:10B72C004FF0FF32C3F884202346037006B962B68B
:10B73C0070BD00BF4437002000E100E0FC06FFBDF7
:10B74C00084B9A6810B55AB150B9EFF3108172B624
:10B75C00054A1C6814605C685460986001B962B654
:10B76C0010BD00BF4437002000E100E070B5064E6C
:10B77C000546002456F8043B0BB128469847013483
:10B78C00042CF7D170BD00BF5C3700204388033315
:10B79C0000EB8303994209D382884FF6FF739A42D8
:10B7AC0006D00088B0FA80F040097047022070473C
:10B7BC0001207047C21C92B240F2FD339A4230B560
:10B7CC001ED8114B187838B91C895D892C44144447
:10B7DC00A4B2B4F5806F0AD3187D98B9988BDC8B22
:10B7EC002044104480B2B0F5806F0BD20120088049
:10B7FC00142101FB0033002059890A445A8130BDC1
:10B80C000920FCE70720FAE7903700200B4A0C4987
:10B81C005388142000FB0311CB6833B9042049680A
:10B82C0010700122074800F0EBBF07490523137085
:10B83C0002238B80012209680023F3E77437002070
:10B84C0090370020882B00205838002007B50023A3
:10B85C0005490093054A09680548082300F0A2FF32
:10B86C0003B05DF804FB00BF5838002074DE020002
:10B87C00882B002007B5002301460093034A044897
:10B88C00082300F08FFF03B05DF804FB6CDE0200B0
:10B89C00882B002013B500230C4600930146084A60
:10B8AC000848042300F07EFF38B90749142202FB34
:10B8BC00041101230B7402B010BD0E20FBE700BF76
:10B8CC0068DE0200882B00209037002037B50A482C
:10B8DC000A4B42689C88196853880325033305700A
:10B8EC009BB2002000909B0001EB8401044800F007
:10B8FC0059FF03B030BD00BF74370020583800200A
:10B90C00882B002010B50146044800F01FFE1C22B5
:10B91C000446002101F016FD204610BD44380020DD
:10B92C0068B10268084B9A4209D14068074B9842AB
:10B93C0007D00133984214BF032001207047032025
:10B94C0070470020704700BFDEC0ADDEFE011EF167
:10B95C002DE9F0410D460223154F2B80164600F5BC
:10B96C00805100F108044FF001088C420ED223687C
:10B97C0001330BD02046FFF709FF48B10EB186F812
:10B98C000080022809D14FF480632B80BDE8F08140
:10B99C00A3683A68934200D93B602B8862880333D2
:10B9AC0013442B806388033304EB8304DDE700BF6F
:10B9BC008837002038B5144B14220D4602FB003397
:10B9CC005C682B6804F58051A3B15C88033403EBED
:10B9DC0084048C4215D22368013312D02046FFF721
:10B9EC00D5FE012808D002280BD00028F1D12C60FC
:10B9FC00012038BD0834ECE76388033304EB83047F
:10BA0C00E7E70020F5E700BF903700204368F7B563
:10BA1C0005460E46002B43D0234AD1688B423FD3B8
:10BA2C00126993423CD813F0030439D11F4A01899F
:10BA3C001289914235D101689A68914231D11C49E1
:10BA4C004A68934203D902F5805293420DD38A6916
:10BA5C0093420CD902F58052934208D201233380D1
:10BA6C00B4FA84F0400903B0F0BD2346F7E70A248A
:10BA7C00F6E7019701A92046FFF79CFF30B9013486
:10BA8C00A4B2022C3480F4D10020ECE7019B2A688C
:10BA9C0099689142EED16B60044B1B892B81E2E7D4
:10BAAC0000240027EDE700BF882B0020743700200E
:10BABC00903700202DE9F0471C461D4B1B7807469C
:10BACC00884616467BB382B37CB3DFF868904FF0A0
